{"contracts/TrustChain.sol":{"TrustChain":{"abi":[{"inputs":[],"stateMutability":"nonpayable","type":"constructor"},{"anonymous":false,"inputs":[{"indexed":true,"internalType":"string","name":"batchNumber","type":"string"},{"indexed":true,"internalType":"string","name":"boxId","type":"string"},{"indexed":false,"internalType":"uint256","name":"productCount","type":"uint256"}],"name":"BatchRegistered","type":"event"},{"anonymous":false,"inputs":[{"indexed":true,"internalType":"string","name":"productId","type":"string"},{"indexed":true,"internalType":"string","name":"boxId","type":"string"}],"name":"ProductRegistered","type":"event"},{"anonymous":false,"inputs":[{"indexed":true,"internalType":"string","name":"productId","type":"string"}],"name":"ProductShipped","type":"event"},{"anonymous":false,"inputs":[{"indexed":true,"internalType":"string","name":"productId","type":"string"}],"name":"ProductSold","type":"event"},{"anonymous":false,"inputs":[{"indexed":true,"internalType":"string","name":"productId","type":"string"}],"name":"ProductSystemVerified","type":"event"},{"anonymous":false,"inputs":[{"indexed":true,"internalType":"string","name":"productId","type":"string"}],"name":"ProductVerified","type":"event"},{"inputs":[{"internalType":"string","name":"productId","type":"string"}],"name":"getProduct","outputs":[{"components":[{"internalType":"string","name":"productId","type":"string"},{"internalType":"string","name":"boxId","type":"string"},{"internalType":"string","name":"name","type":"string"},{"internalType":"string","name":"category","type":"string"},{"internalType":"string","name":"manufacturer","type":"string"},{"internalType":"string","name":"manufacturerDate","type":"string"},{"internalType":"string","name":"manufacturePlace","type":"string"},{"internalType":"string","name":"modelNumber","type":"string"},{"internalType":"string","name":"serialNumber","type":"string"},{"internalType":"string","name":"warrantyPeriod","type":"string"},{"internalType":"string","name":"batchNumber","type":"string"},{"internalType":"string","name":"color","type":"string"},{"internalType":"string","name":"specs","type":"string"},{"internalType":"uint256","name":"price","type":"uint256"},{"internalType":"string","name":"image","type":"string"},{"internalType":"bool","name":"shipped","type":"bool"},{"internalType":"bool","name":"verifiedByRetailer","type":"bool"},{"internalType":"bool","name":"sold","type":"bool"},{"internalType":"bool","name":"verifiedBySystem","type":"bool"}],"internalType":"struct TrustChain.Product","name":"","type":"tuple"}],"stateMutability":"view","type":"function"},{"inputs":[{"internalType":"string","name":"boxId","type":"string"}],"name":"getProductsByBox","outputs":[{"internalType":"string[]","name":"","type":"string[]"}],"stateMutability":"view","type":"function"},{"inputs":[],"name":"owner","outputs":[{"internalType":"address","name":"","type":"address"}],"stateMutability":"view","type":"function"},{"inputs":[{"internalType":"string","name":"batchNumber","type":"string"},{"internalType":"string","name":"boxId","type":"string"},{"components":[{"internalType":"string","name":"productId","type":"string"},{"internalType":"string","name":"boxId","type":"string"},{"internalType":"string","name":"name","type":"string"},{"internalType":"string","name":"category","type":"string"},{"internalType":"string","name":"manufacturer","type":"string"},{"internalType":"string","name":"manufacturerDate","type":"string"},{"internalType":"string","name":"manufacturePlace","type":"string"},{"internalType":"string","name":"modelNumber","type":"string"},{"internalType":"string","name":"serialNumber","type":"string"},{"internalType":"string","name":"warrantyPeriod","type":"string"},{"internalType":"string","name":"batchNumber","type":"string"},{"internalType":"string","name":"color","type":"string"},{"internalType":"string","name":"specs","type":"string"},{"internalType":"uint256","name":"price","type":"uint256"},{"internalType":"string","name":"image","type":"string"}],"internalType":"struct TrustChain.ProductInput[]","name":"items","type":"tuple[]"}],"name":"registerBatchProducts","outputs":[],"stateMutability":"nonpayable","type":"function"},{"inputs":[{"internalType":"string","name":"productId","type":"string"}],"name":"saleComplete","outputs":[],"stateMutability":"nonpayable","type":"function"},{"inputs":[{"internalType":"string","name":"_boxId","type":"string"}],"name":"shipBox","outputs":[],"stateMutability":"nonpayable","type":"function"},{"inputs":[{"internalType":"string","name":"_boxId","type":"string"}],"name":"verifyBox","outputs":[],"stateMutability":"nonpayable","type":"function"},{"inputs":[{"internalType":"string","name":"productId","type":"string"}],"name":"verifyBySystem","outputs":[],"stateMutability":"nonpayable","type":"function"},{"inputs":[{"internalType":"string","name":"productId","type":"string"}],"name":"verifyProduct","outputs":[],"stateMutability":"nonpayable","type":"function"}],"evm":{"bytecode":{"linkReferences":{},"object":"6080806040523461002857600080546001600160a01b0319163317905561208e908161002e8239f35b600080fdfe610260604052600436101561001357600080fd5b60003560e01c80631768850f14611c74578063289496bb14611b7a57806352671aef14611a5457806368111cce1461167657806385abadc2146103ae5780638da5cb5b1461038557806392efc453146102ea578063cfc9a8c9146101915763d15bd3cb1461008057600080fd5b3461018c57602036600319011261018c576004356001600160401b03811161018c576100b0903690600401611d94565b6000546001600160a01b0316330361015a5761013390600f61011260206040516101016100fa8651928481818a01956100ea818389611db2565b8101600181520301902054611e51565b151561201b565b604051809381928751928391611db2565b8101600181520301902001630100000063ff00000019825416179055611f05565b7f7d8a41247edd77a402ab86adc7161f72221dda94f4f8e55c05267db2f3723932600080a2005b60405162461bcd60e51b815260206004820152600a60248201526927b7363c9037bbb732b960b11b6044820152606490fd5b600080fd5b3461018c5760208060031936011261018c576001600160401b0360043581811161018c57826101c76101da923690600401611d94565b8160405193828580945193849201611db2565b8101600281520301902080549182116102d45760405192610200818460051b0185611d2d565b82845260009182528082208185015b8484106102b8578561022381511515611fcb565b60005b81518110156102b65761025a90600f60ff8161024b6102458588612007565b51611edf565b0154161561025f575b50611dfa565b610226565b61026c6102458386612007565b01805460ff1916600117905561028b6102858285612007565b51611f05565b7f9dbe2d347001eec4f99473edc6161746246c3bd920ebc7aec9ea509774a6a87c600080a283610254565b005b60018381926102c685611f25565b81520192019301929061020f565b634e487b7160e01b600052604160045260246000fd5b3461018c57602036600319011261018c576004356001600160401b03811161018c5761031d61035e913690600401611d94565b600f61034160206040516101016100fa8651928481818a01956100ea818389611db2565b810160018152030190200161010061ff0019825416179055611f05565b7f9bb3d92ff53ce504ee358d5ff79f13221b4836773184e8ec3e9e299f7d032aee600080a2005b3461018c57600036600319011261018c576000546040516001600160a01b039091168152602090f35b3461018c57606036600319011261018c576004356001600160401b03811161018c576103de903690600401611d94565b6024356001600160401b03811161018c576103fd903690600401611d94565b6101a0526001600160401b036044351161018c5736602360443501121561018c576001600160401b03604435600401351161018c573660246044356004013560051b60443501011161018c576044356004013515611643576000905b6044356004013582106104ae5761046f90611f05565b61047b6101a051611f05565b907f18db121024f7d458bf791e0bd10ef3c4172203c9f0a9179a3700330d364cb62c6020604051604435600401358152a3005b60248260051b60443501013580610200526102021960443536030181121561018c5760206104e6602461050193604435010180611e1f565b91908260405193849283378101600181520301902054611e51565b61160557610200516044350161051a6024820180611e1f565b906101c05260648201602483019061053191611e1f565b610160526080526105486084830160248401611e1f565b9061055960a4850160248601611e1f565b9061056a60c4870160248801611e1f565b909161057c60e4890160248a01611e1f565b9490956101048a0160248b019061059291611e1f565b9890996101248c0160248d01906105a891611e1f565b9c9061018052610144810160248201906105c191611e1f565b60c052610240526105d9610184820160248301611e1f565b60e052610120526105f16101a4820160248301611e1f565b6101e0526101405261060b906101e4810190602401611e1f565b60a05261010052604051806102205261062390611d11565b366101c0519161063292611d4e565b61022051526101a05161022051602001523661016051906080519161065692611d4e565b6102205160400152369061066992611d4e565b6102205160600152369061067c92611d4e565b6102205160800152369061068f92611d4e565b6102205160a0015236906106a292611d4e565b6102205160c0015236906106b592611d4e565b6102205160e001523661018051916106cc92611d4e565b61022051610100015260c051610240516106e7913691611d4e565b610220516101200152806102205161014001523660e05190610120519161070d92611d4e565b6102205161016001526101e05161014051610729913691611d4e565b61022051610180015261020051604435016101c40135610220516101a001523660a05190610100519161075b92611d4e565b610220516101c00152610220516101e001600090526102205161020001600090526102205161022001600090526102205161024001600090526102005160443501602401806107a991611e1f565b908160405192839283378101600181520360200190209161022051518051906001600160401b0382116102d45781906107ec826107e68854611e51565b88611e8b565b602090601f83116001146115995760009261158e575b50508160011b916000199060031b1c19161783555b60206102205101518051906001600160401b0382116102d457819061084c826108436001890154611e51565b60018901611e8b565b602090601f831160011461151c57600092611511575b50508160011b916000199060031b1c19161760018401555b60406102205101518051906001600160401b0382116102d45781906108af826108a66002890154611e51565b60028901611e8b565b602090601f831160011461149f57600092611494575b50508160011b916000199060031b1c19161760028401555b60606102205101518051906001600160401b0382116102d4578190610912826109096003890154611e51565b60038901611e8b565b602090601f831160011461142257600092611417575b50508160011b916000199060031b1c19161760038401555b60806102205101518051906001600160401b0382116102d45781906109758261096c6004890154611e51565b60048901611e8b565b602090601f83116001146113a55760009261139a575b50508160011b916000199060031b1c19161760048401555b60a06102205101518051906001600160401b0382116102d45781906109d8826109cf6005890154611e51565b60058901611e8b565b602090601f83116001146113285760009261131d575b50508160011b916000199060031b1c19161760058401555b60c06102205101518051906001600160401b0382116102d4578190610a3b82610a326006890154611e51565b60068901611e8b565b602090601f83116001146112ab576000926112a0575b50508160011b916000199060031b1c19161760068401555b60e06102205101518051906001600160401b0382116102d4578190610a9e82610a956007890154611e51565b60078901611e8b565b602090601f831160011461122e57600092611223575b50508160011b916000199060031b1c19161760078401555b6101006102205101518051906001600160401b0382116102d4578190610b0282610af96008890154611e51565b60088901611e8b565b602090601f83116001146111b1576000926111a6575b50508160011b916000199060031b1c19161760088401555b6101206102205101518051906001600160401b0382116102d4578190610b6682610b5d6009890154611e51565b60098901611e8b565b602090601f831160011461113457600092611129575b50508160011b916000199060031b1c19161760098401555b6101406102205101518051906001600160401b0382116102d4578190610bca82610bc1600a890154611e51565b600a8901611e8b565b602090601f83116001146110b7576000926110ac575b50508160011b916000199060031b1c191617600a8401555b6101606102205101519283516001600160401b0381116102d457610c2c81610c23600b850154611e51565b600b8501611e8b565b6020601f821160011461103d578192939495600092611032575b50508160011b916000199060031b1c191617600b8201555b6101806102205101518051906001600160401b0382116102d4578190610c9482610c8b600c870154611e51565b600c8701611e8b565b602090601f8311600114610fc057600092610fb5575b50508160011b916000199060031b1c191617600c8201555b6101c0610220516101a0810151600d84015501518051906001600160401b0382116102d457610d0182610cf8600e860154611e51565b600e8601611e8b565b602090601f8311600114610f4257600f93929160009183610f37575b50508160011b916000199060031b1c191617600e8201555b01610220516101e0810151151590825461ff00610200830151151560081b169060ff63ff00000061024062ff0000610220870151151560101b16950151151560181b1694169063ffffffff191617171717905560405160208181610da26101a05183815193849201611db2565b81016002815203019020610dc0602461020051604435010180611e1f565b9091805490680100000000000000008210156102d45760018201808255821015610f2157600052602060002001916001600160401b0382116102d457610e1082610e0a8554611e51565b85611e8b565b600090601f8311600114610eb257610ea19493929160009183610ea7575b50508160011b916000199060031b1c19161790555b610e57602461020051604435010180611e1f565b90816040519283928337810160008152039020610e766101a051611f05565b907f05c683c8ef124ed98b107dcf80c644abc011626816b5b3a73e3f6d518c0cd778600080a3611dfa565b90610459565b013590508680610e2e565b8360005260206000209160005b601f1985168110610f095750918391600193610ea1979695601f19811610610eef575b505050811b019055610e43565b0135600019600384901b60f8161c19169055868080610ee2565b90926020600181928686013581550194019101610ebf565b634e487b7160e01b600052603260045260246000fd5b015190508680610d1d565b90600e840160005260206000209160005b601f1985168110610f9d5750918391600193600f9695601f19811610610f84575b505050811b01600e820155610d35565b015160001960f88460031b161c19169055868080610f74565b91926020600181928685015181550194019201610f53565b015190508580610caa565b9250600c84016000526020600020906000935b601f1984168510611017576001945083601f19811610610ffe575b505050811b01600c820155610cc2565b015160001960f88460031b161c19169055858080610fee565b81810151835560209485019460019093019290910190610fd3565b015190508580610c46565b600b830160005260206000209060005b601f1984168110611094575060019394959683601f1981161061107b575b505050811b01600b820155610c5e565b015160001960f88460031b161c1916905585808061106b565b9091602060018192858b01518155019301910161104d565b015190508580610be0565b9250600a86016000526020600020906000935b601f198416851061110e576001945083601f198116106110f5575b505050811b01600a840155610bf8565b015160001960f88460031b161c191690558580806110e5565b818101518355602094850194600190930192909101906110ca565b015190508580610b7c565b9250600986016000526020600020906000935b601f198416851061118b576001945083601f19811610611172575b505050811b016009840155610b94565b015160001960f88460031b161c19169055858080611162565b81810151835560209485019460019093019290910190611147565b015190508580610b18565b9250600886016000526020600020906000935b601f1984168510611208576001945083601f198116106111ef575b505050811b016008840155610b30565b015160001960f88460031b161c191690558580806111df565b818101518355602094850194600190930192909101906111c4565b015190508580610ab4565b9250600786016000526020600020906000935b601f1984168510611285576001945083601f1981161061126c575b505050811b016007840155610acc565b015160001960f88460031b161c1916905585808061125c565b81810151835560209485019460019093019290910190611241565b015190508580610a51565b9250600686016000526020600020906000935b601f1984168510611302576001945083601f198116106112e9575b505050811b016006840155610a69565b015160001960f88460031b161c191690558580806112d9565b818101518355602094850194600190930192909101906112be565b0151905085806109ee565b9250600586016000526020600020906000935b601f198416851061137f576001945083601f19811610611366575b505050811b016005840155610a06565b015160001960f88460031b161c19169055858080611356565b8181015183556020948501946001909301929091019061133b565b01519050858061098b565b9250600486016000526020600020906000935b601f19841685106113fc576001945083601f198116106113e3575b505050811b0160048401556109a3565b015160001960f88460031b161c191690558580806113d3565b818101518355602094850194600190930192909101906113b8565b015190508580610928565b9250600386016000526020600020906000935b601f1984168510611479576001945083601f19811610611460575b505050811b016003840155610940565b015160001960f88460031b161c19169055858080611450565b81810151835560209485019460019093019290910190611435565b0151905085806108c5565b9250600286016000526020600020906000935b601f19841685106114f6576001945083601f198116106114dd575b505050811b0160028401556108dd565b015160001960f88460031b161c191690558580806114cd565b818101518355602094850194600190930192909101906114b2565b015190508580610862565b9250600186016000526020600020906000935b601f1984168510611573576001945083601f1981161061155a575b505050811b01600184015561087a565b015160001960f88460031b161c1916905585808061154a565b8181015183556020948501946001909301929091019061152f565b015190508580610802565b9250856000526020600020906000935b601f19841685106115ea576001945083601f198116106115d1575b505050811b018355610817565b015160001960f88460031b161c191690558580806115c4565b818101518355602094850194600190930192909101906115a9565b60405162461bcd60e51b815260206004820152601660248201527550726f6475637420616c72656164792065786973747360501b6044820152606490fd5b60405162461bcd60e51b815260206004820152600b60248201526a08adae0e8f240c4c2e8c6d60ab1b6044820152606490fd5b3461018c57602036600319011261018c576004356001600160401b03811161018c5760206116ab611750923690600401611d94565b60006102406040516116bc81611d11565b606081526060858201526060604082015260608082015260606080820152606060a0820152606060c0820152606060e082015260606101008201526060610120820152606061014082015260606101608201526060610180820152826101a082015260606101c0820152826101e0820152826102008201528261022082015201528160405193828580945193849201611db2565b8101600181520301902060ff600f6040519261176b84611d11565b61177481611f25565b845261178260018201611f25565b602085015261179360028201611f25565b60408501526117a460038201611f25565b60608501526117b560048201611f25565b60808501526117c660058201611f25565b60a08501526117d760068201611f25565b60c08501526117e860078201611f25565b60e08501526117f960088201611f25565b61010085015261180b60098201611f25565b61012085015261181d600a8201611f25565b61014085015261182f600b8201611f25565b610160850152611841600c8201611f25565b610180850152600d8101546101a085015261185e600e8201611f25565b6101c0850152015481811615156101e0840152818160081c161515610200840152818160101c16151561022084015260181c161515610240820152604051809160208252610240611a1d6119f96119e16119c96119b161199961198161196a61195461193e8b8d60806119296119146118fe6118e886516102606020880152610280870190611dd5565b6020870151868203601f19016040880152611dd5565b6040860151858203601f19016060870152611dd5565b6060850151848203601f190184860152611dd5565b9201519060a0601f1982850301910152611dd5565b60a08c01518d8203601f190160c08f0152611dd5565b60c08b01518c8203601f190160e08e0152611dd5565b60e08a01518b8203601f19016101008d0152611dd5565b6101008901518a8203601f19016101208c0152611dd5565b610120880151898203601f19016101408b0152611dd5565b610140870151888203601f19016101608a0152611dd5565b610160860151878203601f1901610180890152611dd5565b610180850151868203601f19016101a0880152611dd5565b6101a08401516101c08601526101c0840151601f19868303016101e0870152611dd5565b916101e081015115156102008501526102008101511515610220850152610220810151151582850152015115156102608301520390f35b3461018c5760208060031936011261018c576001600160401b0360043581811161018c57826101c7611a8a923690600401611d94565b8101600281520301902080549182116102d45760405192611ab0818460051b0185611d2d565b82845260009182528082208185015b848410611b5e5785611ad381511515611fcb565b60005b81518110156102b657611b0690600f60ff81611af56102458588612007565b015460081c1615611b0b5750611dfa565b611ad6565b611b186102458386612007565b01805461ff001916610100179055611b336102858285612007565b7f9bb3d92ff53ce504ee358d5ff79f13221b4836773184e8ec3e9e299f7d032aee600080a283610254565b6001838192611b6c85611f25565b815201920193019290611abf565b3461018c5760208060031936011261018c576001600160401b0360043581811161018c57826101c7611bb0923690600401611d94565b8101600281520301902080549182116102d457829060405192611bd8838260051b0185611d2d565b8084528284018092600052836000206000915b838310611c525750505050604051918083019381845251809452604083019360408160051b85010192916000955b828710611c265785850386f35b909192938280611c42600193603f198a82030186528851611dd5565b9601920196019592919092611c19565b6001868192611c63859a999a611f25565b815201920192019190959495611beb565b3461018c57602036600319011261018c576004356001600160401b03811161018c57611ca7611cea913690600401611d94565b600f611ccb60206040516101016100fa8651928481818a01956100ea818389611db2565b81016001815203019020016201000062ff000019825416179055611f05565b7f4e4003378fe790a19a351b9848e06179b5d6e7a3262a28cfc05f8bacba35857a600080a2005b61026081019081106001600160401b038211176102d457604052565b90601f801991011681019081106001600160401b038211176102d457604052565b9291926001600160401b0382116102d45760405191611d77601f8201601f191660200184611d2d565b82948184528183011161018c578281602093846000960137010152565b9080601f8301121561018c57816020611daf93359101611d4e565b90565b60005b838110611dc55750506000910152565b8181015183820152602001611db5565b90602091611dee81518092818552858086019101611db2565b601f01601f1916010190565b6000198114611e095760010190565b634e487b7160e01b600052601160045260246000fd5b903590601e198136030182121561018c57018035906001600160401b03821161018c5760200191813603831361018c57565b90600182811c92168015611e81575b6020831014611e6b57565b634e487b7160e01b600052602260045260246000fd5b91607f1691611e60565b90601f8111611e9957505050565b600091825260208220906020601f850160051c83019410611ed5575b601f0160051c01915b828110611eca57505050565b818155600101611ebe565b9092508290611eb5565b6020611ef8918160405193828580945193849201611db2565b8101600181520301902090565b611f1d90602060405192828480945193849201611db2565b810103902090565b9060405191826000825492611f3984611e51565b908184526001948581169081600014611fa85750600114611f65575b5050611f6392500383611d2d565b565b9093915060005260209081600020936000915b818310611f90575050611f6393508201013880611f55565b85548884018501529485019487945091830191611f78565b915050611f6394506020925060ff191682840152151560051b8201013880611f55565b15611fd257565b60405162461bcd60e51b815260206004820152600d60248201526c109bde081b9bdd08199bdd5b99609a1b6044820152606490fd5b8051821015610f215760209160051b010190565b1561202257565b60405162461bcd60e51b815260206004820152600e60248201526d139bdd081c9959da5cdd195c995960921b6044820152606490fdfea264697066735822122045dd98c93fa4b5a52729899b4c52fa83f3ef8aab6861700af74b307619376f2b64736f6c63430008140033","opcodes":"PUSH1 0x80 DUP1 PUSH1 0x40 MSTORE CALLVALUE PUSH2 0x28 JUMPI PUSH1 0x0 DUP1 SLOAD PUSH1 0x1 PUSH1 0x1 PUSH1 0xA0 SHL SUB NOT AND CALLER OR SWAP1 SSTORE PUSH2 0x208E SWAP1 DUP2 PUSH2 0x2E DUP3 CODECOPY RETURN JUMPDEST PUSH1 0x0 DUP1 REVERT INVALID PUSH2 0x260 PUSH1 0x40 MSTORE PUSH1 0x4 CALLDATASIZE LT ISZERO PUSH2 0x13 JUMPI PUSH1 0x0 DUP1 REVERT JUMPDEST PUSH1 0x0 CALLDATALOAD PUSH1 0xE0 SHR DUP1 PUSH4 0x1768850F EQ PUSH2 0x1C74 JUMPI DUP1 PUSH4 0x289496BB EQ PUSH2 0x1B7A JUMPI DUP1 PUSH4 0x52671AEF EQ PUSH2 0x1A54 JUMPI DUP1 PUSH4 0x68111CCE EQ PUSH2 0x1676 JUMPI DUP1 PUSH4 0x85ABADC2 EQ PUSH2 0x3AE JUMPI DUP1 PUSH4 0x8DA5CB5B EQ PUSH2 0x385 JUMPI DUP1 PUSH4 0x92EFC453 EQ PUSH2 0x2EA JUMPI DUP1 PUSH4 0xCFC9A8C9 EQ PUSH2 0x191 JUMPI PUSH4 0xD15BD3CB EQ PUSH2 0x80 JUMPI PUSH1 0x0 DUP1 REVERT JUMPDEST CALLVALUE PUSH2 0x18C JUMPI PUSH1 0x20 CALLDATASIZE PUSH1 0x3 NOT ADD SLT PUSH2 0x18C JUMPI PUSH1 0x4 CALLDATALOAD PUSH1 0x1 PUSH1 0x1 PUSH1 0x40 SHL SUB DUP2 GT PUSH2 0x18C JUMPI PUSH2 0xB0 SWAP1 CALLDATASIZE SWAP1 PUSH1 0x4 ADD PUSH2 0x1D94 JUMP JUMPDEST PUSH1 0x0 SLOAD PUSH1 0x1 PUSH1 0x1 PUSH1 0xA0 SHL SUB AND CALLER SUB PUSH2 0x15A JUMPI PUSH2 0x133 SWAP1 PUSH1 0xF PUSH2 0x112 PUSH1 0x20 PUSH1 0x40 MLOAD PUSH2 0x101 PUSH2 0xFA DUP7 MLOAD SWAP3 DUP5 DUP2 DUP2 DUP11 ADD SWAP6 PUSH2 0xEA DUP2 DUP4 DUP10 PUSH2 0x1DB2 JUMP JUMPDEST DUP2 ADD PUSH1 0x1 DUP2 MSTORE SUB ADD SWAP1 KECCAK256 SLOAD PUSH2 0x1E51 JUMP JUMPDEST ISZERO ISZERO PUSH2 0x201B JUMP JUMPDEST PUSH1 0x40 MLOAD DUP1 SWAP4 DUP2 SWAP3 DUP8 MLOAD SWAP3 DUP4 SWAP2 PUSH2 0x1DB2 JUMP JUMPDEST DUP2 ADD PUSH1 0x1 DUP2 MSTORE SUB ADD SWAP1 KECCAK256 ADD PUSH4 0x1000000 PUSH4 0xFF000000 NOT DUP3 SLOAD AND OR SWAP1 SSTORE PUSH2 0x1F05 JUMP JUMPDEST PUSH32 0x7D8A41247EDD77A402AB86ADC7161F72221DDA94F4F8E55C05267DB2F3723932 PUSH1 0x0 DUP1 LOG2 STOP JUMPDEST PUSH1 0x40 MLOAD PUSH3 0x461BCD PUSH1 0xE5 SHL DUP2 MSTORE PUSH1 0x20 PUSH1 0x4 DUP3 ADD MSTORE PUSH1 0xA PUSH1 0x24 DUP3 ADD MSTORE PUSH10 0x27B7363C9037BBB732B9 PUSH1 0xB1 SHL PUSH1 0x44 DUP3 ADD MSTORE PUSH1 0x64 SWAP1 REVERT JUMPDEST PUSH1 0x0 DUP1 REVERT JUMPDEST CALLVALUE PUSH2 0x18C JUMPI PUSH1 0x20 DUP1 PUSH1 0x3 NOT CALLDATASIZE ADD SLT PUSH2 0x18C JUMPI PUSH1 0x1 PUSH1 0x1 PUSH1 0x40 SHL SUB PUSH1 0x4 CALLDATALOAD DUP2 DUP2 GT PUSH2 0x18C JUMPI DUP3 PUSH2 0x1C7 PUSH2 0x1DA SWAP3 CALLDATASIZE SWAP1 PUSH1 0x4 ADD PUSH2 0x1D94 JUMP JUMPDEST DUP2 PUSH1 0x40 MLOAD SWAP4 DUP3 DUP6 DUP1 SWAP5 MLOAD SWAP4 DUP5 SWAP3 ADD PUSH2 0x1DB2 JUMP JUMPDEST DUP2 ADD PUSH1 0x2 DUP2 MSTORE SUB ADD SWAP1 KECCAK256 DUP1 SLOAD SWAP2 DUP3 GT PUSH2 0x2D4 JUMPI PUSH1 0x40 MLOAD SWAP3 PUSH2 0x200 DUP2 DUP5 PUSH1 0x5 SHL ADD DUP6 PUSH2 0x1D2D JUMP JUMPDEST DUP3 DUP5 MSTORE PUSH1 0x0 SWAP2 DUP3 MSTORE DUP1 DUP3 KECCAK256 DUP2 DUP6 ADD JUMPDEST DUP5 DUP5 LT PUSH2 0x2B8 JUMPI DUP6 PUSH2 0x223 DUP2 MLOAD ISZERO ISZERO PUSH2 0x1FCB JUMP JUMPDEST PUSH1 0x0 JUMPDEST DUP2 MLOAD DUP2 LT ISZERO PUSH2 0x2B6 JUMPI PUSH2 0x25A SWAP1 PUSH1 0xF PUSH1 0xFF DUP2 PUSH2 0x24B PUSH2 0x245 DUP6 DUP9 PUSH2 0x2007 JUMP JUMPDEST MLOAD PUSH2 0x1EDF JUMP JUMPDEST ADD SLOAD AND ISZERO PUSH2 0x25F JUMPI JUMPDEST POP PUSH2 0x1DFA JUMP JUMPDEST PUSH2 0x226 JUMP JUMPDEST PUSH2 0x26C PUSH2 0x245 DUP4 DUP7 PUSH2 0x2007 JUMP JUMPDEST ADD DUP1 SLOAD PUSH1 0xFF NOT AND PUSH1 0x1 OR SWAP1 SSTORE PUSH2 0x28B PUSH2 0x285 DUP3 DUP6 PUSH2 0x2007 JUMP JUMPDEST MLOAD PUSH2 0x1F05 JUMP JUMPDEST PUSH32 0x9DBE2D347001EEC4F99473EDC6161746246C3BD920EBC7AEC9EA509774A6A87C PUSH1 0x0 DUP1 LOG2 DUP4 PUSH2 0x254 JUMP JUMPDEST STOP JUMPDEST PUSH1 0x1 DUP4 DUP2 SWAP3 PUSH2 0x2C6 DUP6 PUSH2 0x1F25 JUMP JUMPDEST DUP2 MSTORE ADD SWAP3 ADD SWAP4 ADD SWAP3 SWAP1 PUSH2 0x20F JUMP JUMPDEST PUSH4 0x4E487B71 PUSH1 0xE0 SHL PUSH1 0x0 MSTORE PUSH1 0x41 PUSH1 0x4 MSTORE PUSH1 0x24 PUSH1 0x0 REVERT JUMPDEST CALLVALUE PUSH2 0x18C JUMPI PUSH1 0x20 CALLDATASIZE PUSH1 0x3 NOT ADD SLT PUSH2 0x18C JUMPI PUSH1 0x4 CALLDATALOAD PUSH1 0x1 PUSH1 0x1 PUSH1 0x40 SHL SUB DUP2 GT PUSH2 0x18C JUMPI PUSH2 0x31D PUSH2 0x35E SWAP2 CALLDATASIZE SWAP1 PUSH1 0x4 ADD PUSH2 0x1D94 JUMP JUMPDEST PUSH1 0xF PUSH2 0x341 PUSH1 0x20 PUSH1 0x40 MLOAD PUSH2 0x101 PUSH2 0xFA DUP7 MLOAD SWAP3 DUP5 DUP2 DUP2 DUP11 ADD SWAP6 PUSH2 0xEA DUP2 DUP4 DUP10 PUSH2 0x1DB2 JUMP JUMPDEST DUP2 ADD PUSH1 0x1 DUP2 MSTORE SUB ADD SWAP1 KECCAK256 ADD PUSH2 0x100 PUSH2 0xFF00 NOT DUP3 SLOAD AND OR SWAP1 SSTORE PUSH2 0x1F05 JUMP JUMPDEST PUSH32 0x9BB3D92FF53CE504EE358D5FF79F13221B4836773184E8EC3E9E299F7D032AEE PUSH1 0x0 DUP1 LOG2 STOP JUMPDEST CALLVALUE PUSH2 0x18C JUMPI PUSH1 0x0 CALLDATASIZE PUSH1 0x3 NOT ADD SLT PUSH2 0x18C JUMPI PUSH1 0x0 SLOAD PUSH1 0x40 MLOAD PUSH1 0x1 PUSH1 0x1 PUSH1 0xA0 SHL SUB SWAP1 SWAP2 AND DUP2 MSTORE PUSH1 0x20 SWAP1 RETURN JUMPDEST CALLVALUE PUSH2 0x18C JUMPI PUSH1 0x60 CALLDATASIZE PUSH1 0x3 NOT ADD SLT PUSH2 0x18C JUMPI PUSH1 0x4 CALLDATALOAD PUSH1 0x1 PUSH1 0x1 PUSH1 0x40 SHL SUB DUP2 GT PUSH2 0x18C JUMPI PUSH2 0x3DE SWAP1 CALLDATASIZE SWAP1 PUSH1 0x4 ADD PUSH2 0x1D94 JUMP JUMPDEST PUSH1 0x24 CALLDATALOAD PUSH1 0x1 PUSH1 0x1 PUSH1 0x40 SHL SUB DUP2 GT PUSH2 0x18C JUMPI PUSH2 0x3FD SWAP1 CALLDATASIZE SWAP1 PUSH1 0x4 ADD PUSH2 0x1D94 JUMP JUMPDEST PUSH2 0x1A0 MSTORE PUSH1 0x1 PUSH1 0x1 PUSH1 0x40 SHL SUB PUSH1 0x44 CALLDATALOAD GT PUSH2 0x18C JUMPI CALLDATASIZE PUSH1 0x23 PUSH1 0x44 CALLDATALOAD ADD SLT ISZERO PUSH2 0x18C JUMPI PUSH1 0x1 PUSH1 0x1 PUSH1 0x40 SHL SUB PUSH1 0x44 CALLDATALOAD PUSH1 0x4 ADD CALLDATALOAD GT PUSH2 0x18C JUMPI CALLDATASIZE PUSH1 0x24 PUSH1 0x44 CALLDATALOAD PUSH1 0x4 ADD CALLDATALOAD PUSH1 0x5 SHL PUSH1 0x44 CALLDATALOAD ADD ADD GT PUSH2 0x18C JUMPI PUSH1 0x44 CALLDATALOAD PUSH1 0x4 ADD CALLDATALOAD ISZERO PUSH2 0x1643 JUMPI PUSH1 0x0 SWAP1 JUMPDEST PUSH1 0x44 CALLDATALOAD PUSH1 0x4 ADD CALLDATALOAD DUP3 LT PUSH2 0x4AE JUMPI PUSH2 0x46F SWAP1 PUSH2 0x1F05 JUMP JUMPDEST PUSH2 0x47B PUSH2 0x1A0 MLOAD PUSH2 0x1F05 JUMP JUMPDEST SWAP1 PUSH32 0x18DB121024F7D458BF791E0BD10EF3C4172203C9F0A9179A3700330D364CB62C PUSH1 0x20 PUSH1 0x40 MLOAD PUSH1 0x44 CALLDATALOAD PUSH1 0x4 ADD CALLDATALOAD DUP2 MSTORE LOG3 STOP JUMPDEST PUSH1 0x24 DUP3 PUSH1 0x5 SHL PUSH1 0x44 CALLDATALOAD ADD ADD CALLDATALOAD DUP1 PUSH2 0x200 MSTORE PUSH2 0x202 NOT PUSH1 0x44 CALLDATALOAD CALLDATASIZE SUB ADD DUP2 SLT ISZERO PUSH2 0x18C JUMPI PUSH1 0x20 PUSH2 0x4E6 PUSH1 0x24 PUSH2 0x501 SWAP4 PUSH1 0x44 CALLDATALOAD ADD ADD DUP1 PUSH2 0x1E1F JUMP JUMPDEST SWAP2 SWAP1 DUP3 PUSH1 0x40 MLOAD SWAP4 DUP5 SWAP3 DUP4 CALLDATACOPY DUP2 ADD PUSH1 0x1 DUP2 MSTORE SUB ADD SWAP1 KECCAK256 SLOAD PUSH2 0x1E51 JUMP JUMPDEST PUSH2 0x1605 JUMPI PUSH2 0x200 MLOAD PUSH1 0x44 CALLDATALOAD ADD PUSH2 0x51A PUSH1 0x24 DUP3 ADD DUP1 PUSH2 0x1E1F JUMP JUMPDEST SWAP1 PUSH2 0x1C0 MSTORE PUSH1 0x64 DUP3 ADD PUSH1 0x24 DUP4 ADD SWAP1 PUSH2 0x531 SWAP2 PUSH2 0x1E1F JUMP JUMPDEST PUSH2 0x160 MSTORE PUSH1 0x80 MSTORE PUSH2 0x548 PUSH1 0x84 DUP4 ADD PUSH1 0x24 DUP5 ADD PUSH2 0x1E1F JUMP JUMPDEST SWAP1 PUSH2 0x559 PUSH1 0xA4 DUP6 ADD PUSH1 0x24 DUP7 ADD PUSH2 0x1E1F JUMP JUMPDEST SWAP1 PUSH2 0x56A PUSH1 0xC4 DUP8 ADD PUSH1 0x24 DUP9 ADD PUSH2 0x1E1F JUMP JUMPDEST SWAP1 SWAP2 PUSH2 0x57C PUSH1 0xE4 DUP10 ADD PUSH1 0x24 DUP11 ADD PUSH2 0x1E1F JUMP JUMPDEST SWAP5 SWAP1 SWAP6 PUSH2 0x104 DUP11 ADD PUSH1 0x24 DUP12 ADD SWAP1 PUSH2 0x592 SWAP2 PUSH2 0x1E1F JUMP JUMPDEST SWAP9 SWAP1 SWAP10 PUSH2 0x124 DUP13 ADD PUSH1 0x24 DUP14 ADD SWAP1 PUSH2 0x5A8 SWAP2 PUSH2 0x1E1F JUMP JUMPDEST SWAP13 SWAP1 PUSH2 0x180 MSTORE PUSH2 0x144 DUP2 ADD PUSH1 0x24 DUP3 ADD SWAP1 PUSH2 0x5C1 SWAP2 PUSH2 0x1E1F JUMP JUMPDEST PUSH1 0xC0 MSTORE PUSH2 0x240 MSTORE PUSH2 0x5D9 PUSH2 0x184 DUP3 ADD PUSH1 0x24 DUP4 ADD PUSH2 0x1E1F JUMP JUMPDEST PUSH1 0xE0 MSTORE PUSH2 0x120 MSTORE PUSH2 0x5F1 PUSH2 0x1A4 DUP3 ADD PUSH1 0x24 DUP4 ADD PUSH2 0x1E1F JUMP JUMPDEST PUSH2 0x1E0 MSTORE PUSH2 0x140 MSTORE PUSH2 0x60B SWAP1 PUSH2 0x1E4 DUP2 ADD SWAP1 PUSH1 0x24 ADD PUSH2 0x1E1F JUMP JUMPDEST PUSH1 0xA0 MSTORE PUSH2 0x100 MSTORE PUSH1 0x40 MLOAD DUP1 PUSH2 0x220 MSTORE PUSH2 0x623 SWAP1 PUSH2 0x1D11 JUMP JUMPDEST CALLDATASIZE PUSH2 0x1C0 MLOAD SWAP2 PUSH2 0x632 SWAP3 PUSH2 0x1D4E JUMP JUMPDEST PUSH2 0x220 MLOAD MSTORE PUSH2 0x1A0 MLOAD PUSH2 0x220 MLOAD PUSH1 0x20 ADD MSTORE CALLDATASIZE PUSH2 0x160 MLOAD SWAP1 PUSH1 0x80 MLOAD SWAP2 PUSH2 0x656 SWAP3 PUSH2 0x1D4E JUMP JUMPDEST PUSH2 0x220 MLOAD PUSH1 0x40 ADD MSTORE CALLDATASIZE SWAP1 PUSH2 0x669 SWAP3 PUSH2 0x1D4E JUMP JUMPDEST PUSH2 0x220 MLOAD PUSH1 0x60 ADD MSTORE CALLDATASIZE SWAP1 PUSH2 0x67C SWAP3 PUSH2 0x1D4E JUMP JUMPDEST PUSH2 0x220 MLOAD PUSH1 0x80 ADD MSTORE CALLDATASIZE SWAP1 PUSH2 0x68F SWAP3 PUSH2 0x1D4E JUMP JUMPDEST PUSH2 0x220 MLOAD PUSH1 0xA0 ADD MSTORE CALLDATASIZE SWAP1 PUSH2 0x6A2 SWAP3 PUSH2 0x1D4E JUMP JUMPDEST PUSH2 0x220 MLOAD PUSH1 0xC0 ADD MSTORE CALLDATASIZE SWAP1 PUSH2 0x6B5 SWAP3 PUSH2 0x1D4E JUMP JUMPDEST PUSH2 0x220 MLOAD PUSH1 0xE0 ADD MSTORE CALLDATASIZE PUSH2 0x180 MLOAD SWAP2 PUSH2 0x6CC SWAP3 PUSH2 0x1D4E JUMP JUMPDEST PUSH2 0x220 MLOAD PUSH2 0x100 ADD MSTORE PUSH1 0xC0 MLOAD PUSH2 0x240 MLOAD PUSH2 0x6E7 SWAP2 CALLDATASIZE SWAP2 PUSH2 0x1D4E JUMP JUMPDEST PUSH2 0x220 MLOAD PUSH2 0x120 ADD MSTORE DUP1 PUSH2 0x220 MLOAD PUSH2 0x140 ADD MSTORE CALLDATASIZE PUSH1 0xE0 MLOAD SWAP1 PUSH2 0x120 MLOAD SWAP2 PUSH2 0x70D SWAP3 PUSH2 0x1D4E JUMP JUMPDEST PUSH2 0x220 MLOAD PUSH2 0x160 ADD MSTORE PUSH2 0x1E0 MLOAD PUSH2 0x140 MLOAD PUSH2 0x729 SWAP2 CALLDATASIZE SWAP2 PUSH2 0x1D4E JUMP JUMPDEST PUSH2 0x220 MLOAD PUSH2 0x180 ADD MSTORE PUSH2 0x200 MLOAD PUSH1 0x44 CALLDATALOAD ADD PUSH2 0x1C4 ADD CALLDATALOAD PUSH2 0x220 MLOAD PUSH2 0x1A0 ADD MSTORE CALLDATASIZE PUSH1 0xA0 MLOAD SWAP1 PUSH2 0x100 MLOAD SWAP2 PUSH2 0x75B SWAP3 PUSH2 0x1D4E JUMP JUMPDEST PUSH2 0x220 MLOAD PUSH2 0x1C0 ADD MSTORE PUSH2 0x220 MLOAD PUSH2 0x1E0 ADD PUSH1 0x0 SWAP1 MSTORE PUSH2 0x220 MLOAD PUSH2 0x200 ADD PUSH1 0x0 SWAP1 MSTORE PUSH2 0x220 MLOAD PUSH2 0x220 ADD PUSH1 0x0 SWAP1 MSTORE PUSH2 0x220 MLOAD PUSH2 0x240 ADD PUSH1 0x0 SWAP1 MSTORE PUSH2 0x200 MLOAD PUSH1 0x44 CALLDATALOAD ADD PUSH1 0x24 ADD DUP1 PUSH2 0x7A9 SWAP2 PUSH2 0x1E1F JUMP JUMPDEST SWAP1 DUP2 PUSH1 0x40 MLOAD SWAP3 DUP4 SWAP3 DUP4 CALLDATACOPY DUP2 ADD PUSH1 0x1 DUP2 MSTORE SUB PUSH1 0x20 ADD SWAP1 KECCAK256 SWAP2 PUSH2 0x220 MLOAD MLOAD DUP1 MLOAD SWAP1 PUSH1 0x1 PUSH1 0x1 PUSH1 0x40 SHL SUB DUP3 GT PUSH2 0x2D4 JUMPI DUP2 SWAP1 PUSH2 0x7EC DUP3 PUSH2 0x7E6 DUP9 SLOAD PUSH2 0x1E51 JUMP JUMPDEST DUP9 PUSH2 0x1E8B JUMP JUMPDEST PUSH1 0x20 SWAP1 PUSH1 0x1F DUP4 GT PUSH1 0x1 EQ PUSH2 0x1599 JUMPI PUSH1 0x0 SWAP3 PUSH2 0x158E JUMPI JUMPDEST POP POP DUP2 PUSH1 0x1 SHL SWAP2 PUSH1 0x0 NOT SWAP1 PUSH1 0x3 SHL SHR NOT AND OR DUP4 SSTORE JUMPDEST PUSH1 0x20 PUSH2 0x220 MLOAD ADD MLOAD DUP1 MLOAD SWAP1 PUSH1 0x1 PUSH1 0x1 PUSH1 0x40 SHL SUB DUP3 GT PUSH2 0x2D4 JUMPI DUP2 SWAP1 PUSH2 0x84C DUP3 PUSH2 0x843 PUSH1 0x1 DUP10 ADD SLOAD PUSH2 0x1E51 JUMP JUMPDEST PUSH1 0x1 DUP10 ADD PUSH2 0x1E8B JUMP JUMPDEST PUSH1 0x20 SWAP1 PUSH1 0x1F DUP4 GT PUSH1 0x1 EQ PUSH2 0x151C JUMPI PUSH1 0x0 SWAP3 PUSH2 0x1511 JUMPI JUMPDEST POP POP DUP2 PUSH1 0x1 SHL SWAP2 PUSH1 0x0 NOT SWAP1 PUSH1 0x3 SHL SHR NOT AND OR PUSH1 0x1 DUP5 ADD SSTORE JUMPDEST PUSH1 0x40 PUSH2 0x220 MLOAD ADD MLOAD DUP1 MLOAD SWAP1 PUSH1 0x1 PUSH1 0x1 PUSH1 0x40 SHL SUB DUP3 GT PUSH2 0x2D4 JUMPI DUP2 SWAP1 PUSH2 0x8AF DUP3 PUSH2 0x8A6 PUSH1 0x2 DUP10 ADD SLOAD PUSH2 0x1E51 JUMP JUMPDEST PUSH1 0x2 DUP10 ADD PUSH2 0x1E8B JUMP JUMPDEST PUSH1 0x20 SWAP1 PUSH1 0x1F DUP4 GT PUSH1 0x1 EQ PUSH2 0x149F JUMPI PUSH1 0x0 SWAP3 PUSH2 0x1494 JUMPI JUMPDEST POP POP DUP2 PUSH1 0x1 SHL SWAP2 PUSH1 0x0 NOT SWAP1 PUSH1 0x3 SHL SHR NOT AND OR PUSH1 0x2 DUP5 ADD SSTORE JUMPDEST PUSH1 0x60 PUSH2 0x220 MLOAD ADD MLOAD DUP1 MLOAD SWAP1 PUSH1 0x1 PUSH1 0x1 PUSH1 0x40 SHL SUB DUP3 GT PUSH2 0x2D4 JUMPI DUP2 SWAP1 PUSH2 0x912 DUP3 PUSH2 0x909 PUSH1 0x3 DUP10 ADD SLOAD PUSH2 0x1E51 JUMP JUMPDEST PUSH1 0x3 DUP10 ADD PUSH2 0x1E8B JUMP JUMPDEST PUSH1 0x20 SWAP1 PUSH1 0x1F DUP4 GT PUSH1 0x1 EQ PUSH2 0x1422 JUMPI PUSH1 0x0 SWAP3 PUSH2 0x1417 JUMPI JUMPDEST POP POP DUP2 PUSH1 0x1 SHL SWAP2 PUSH1 0x0 NOT SWAP1 PUSH1 0x3 SHL SHR NOT AND OR PUSH1 0x3 DUP5 ADD SSTORE JUMPDEST PUSH1 0x80 PUSH2 0x220 MLOAD ADD MLOAD DUP1 MLOAD SWAP1 PUSH1 0x1 PUSH1 0x1 PUSH1 0x40 SHL SUB DUP3 GT PUSH2 0x2D4 JUMPI DUP2 SWAP1 PUSH2 0x975 DUP3 PUSH2 0x96C PUSH1 0x4 DUP10 ADD SLOAD PUSH2 0x1E51 JUMP JUMPDEST PUSH1 0x4 DUP10 ADD PUSH2 0x1E8B JUMP JUMPDEST PUSH1 0x20 SWAP1 PUSH1 0x1F DUP4 GT PUSH1 0x1 EQ PUSH2 0x13A5 JUMPI PUSH1 0x0 SWAP3 PUSH2 0x139A JUMPI JUMPDEST POP POP DUP2 PUSH1 0x1 SHL SWAP2 PUSH1 0x0 NOT SWAP1 PUSH1 0x3 SHL SHR NOT AND OR PUSH1 0x4 DUP5 ADD SSTORE JUMPDEST PUSH1 0xA0 PUSH2 0x220 MLOAD ADD MLOAD DUP1 MLOAD SWAP1 PUSH1 0x1 PUSH1 0x1 PUSH1 0x40 SHL SUB DUP3 GT PUSH2 0x2D4 JUMPI DUP2 SWAP1 PUSH2 0x9D8 DUP3 PUSH2 0x9CF PUSH1 0x5 DUP10 ADD SLOAD PUSH2 0x1E51 JUMP JUMPDEST PUSH1 0x5 DUP10 ADD PUSH2 0x1E8B JUMP JUMPDEST PUSH1 0x20 SWAP1 PUSH1 0x1F DUP4 GT PUSH1 0x1 EQ PUSH2 0x1328 JUMPI PUSH1 0x0 SWAP3 PUSH2 0x131D JUMPI JUMPDEST POP POP DUP2 PUSH1 0x1 SHL SWAP2 PUSH1 0x0 NOT SWAP1 PUSH1 0x3 SHL SHR NOT AND OR PUSH1 0x5 DUP5 ADD SSTORE JUMPDEST PUSH1 0xC0 PUSH2 0x220 MLOAD ADD MLOAD DUP1 MLOAD SWAP1 PUSH1 0x1 PUSH1 0x1 PUSH1 0x40 SHL SUB DUP3 GT PUSH2 0x2D4 JUMPI DUP2 SWAP1 PUSH2 0xA3B DUP3 PUSH2 0xA32 PUSH1 0x6 DUP10 ADD SLOAD PUSH2 0x1E51 JUMP JUMPDEST PUSH1 0x6 DUP10 ADD PUSH2 0x1E8B JUMP JUMPDEST PUSH1 0x20 SWAP1 PUSH1 0x1F DUP4 GT PUSH1 0x1 EQ PUSH2 0x12AB JUMPI PUSH1 0x0 SWAP3 PUSH2 0x12A0 JUMPI JUMPDEST POP POP DUP2 PUSH1 0x1 SHL SWAP2 PUSH1 0x0 NOT SWAP1 PUSH1 0x3 SHL SHR NOT AND OR PUSH1 0x6 DUP5 ADD SSTORE JUMPDEST PUSH1 0xE0 PUSH2 0x220 MLOAD ADD MLOAD DUP1 MLOAD SWAP1 PUSH1 0x1 PUSH1 0x1 PUSH1 0x40 SHL SUB DUP3 GT PUSH2 0x2D4 JUMPI DUP2 SWAP1 PUSH2 0xA9E DUP3 PUSH2 0xA95 PUSH1 0x7 DUP10 ADD SLOAD PUSH2 0x1E51 JUMP JUMPDEST PUSH1 0x7 DUP10 ADD PUSH2 0x1E8B JUMP JUMPDEST PUSH1 0x20 SWAP1 PUSH1 0x1F DUP4 GT PUSH1 0x1 EQ PUSH2 0x122E JUMPI PUSH1 0x0 SWAP3 PUSH2 0x1223 JUMPI JUMPDEST POP POP DUP2 PUSH1 0x1 SHL SWAP2 PUSH1 0x0 NOT SWAP1 PUSH1 0x3 SHL SHR NOT AND OR PUSH1 0x7 DUP5 ADD SSTORE JUMPDEST PUSH2 0x100 PUSH2 0x220 MLOAD ADD MLOAD DUP1 MLOAD SWAP1 PUSH1 0x1 PUSH1 0x1 PUSH1 0x40 SHL SUB DUP3 GT PUSH2 0x2D4 JUMPI DUP2 SWAP1 PUSH2 0xB02 DUP3 PUSH2 0xAF9 PUSH1 0x8 DUP10 ADD SLOAD PUSH2 0x1E51 JUMP JUMPDEST PUSH1 0x8 DUP10 ADD PUSH2 0x1E8B JUMP JUMPDEST PUSH1 0x20 SWAP1 PUSH1 0x1F DUP4 GT PUSH1 0x1 EQ PUSH2 0x11B1 JUMPI PUSH1 0x0 SWAP3 PUSH2 0x11A6 JUMPI JUMPDEST POP POP DUP2 PUSH1 0x1 SHL SWAP2 PUSH1 0x0 NOT SWAP1 PUSH1 0x3 SHL SHR NOT AND OR PUSH1 0x8 DUP5 ADD SSTORE JUMPDEST PUSH2 0x120 PUSH2 0x220 MLOAD ADD MLOAD DUP1 MLOAD SWAP1 PUSH1 0x1 PUSH1 0x1 PUSH1 0x40 SHL SUB DUP3 GT PUSH2 0x2D4 JUMPI DUP2 SWAP1 PUSH2 0xB66 DUP3 PUSH2 0xB5D PUSH1 0x9 DUP10 ADD SLOAD PUSH2 0x1E51 JUMP JUMPDEST PUSH1 0x9 DUP10 ADD PUSH2 0x1E8B JUMP JUMPDEST PUSH1 0x20 SWAP1 PUSH1 0x1F DUP4 GT PUSH1 0x1 EQ PUSH2 0x1134 JUMPI PUSH1 0x0 SWAP3 PUSH2 0x1129 JUMPI JUMPDEST POP POP DUP2 PUSH1 0x1 SHL SWAP2 PUSH1 0x0 NOT SWAP1 PUSH1 0x3 SHL SHR NOT AND OR PUSH1 0x9 DUP5 ADD SSTORE JUMPDEST PUSH2 0x140 PUSH2 0x220 MLOAD ADD MLOAD DUP1 MLOAD SWAP1 PUSH1 0x1 PUSH1 0x1 PUSH1 0x40 SHL SUB DUP3 GT PUSH2 0x2D4 JUMPI DUP2 SWAP1 PUSH2 0xBCA DUP3 PUSH2 0xBC1 PUSH1 0xA DUP10 ADD SLOAD PUSH2 0x1E51 JUMP JUMPDEST PUSH1 0xA DUP10 ADD PUSH2 0x1E8B JUMP JUMPDEST PUSH1 0x20 SWAP1 PUSH1 0x1F DUP4 GT PUSH1 0x1 EQ PUSH2 0x10B7 JUMPI PUSH1 0x0 SWAP3 PUSH2 0x10AC JUMPI JUMPDEST POP POP DUP2 PUSH1 0x1 SHL SWAP2 PUSH1 0x0 NOT SWAP1 PUSH1 0x3 SHL SHR NOT AND OR PUSH1 0xA DUP5 ADD SSTORE JUMPDEST PUSH2 0x160 PUSH2 0x220 MLOAD ADD MLOAD SWAP3 DUP4 MLOAD PUSH1 0x1 PUSH1 0x1 PUSH1 0x40 SHL SUB DUP2 GT PUSH2 0x2D4 JUMPI PUSH2 0xC2C DUP2 PUSH2 0xC23 PUSH1 0xB DUP6 ADD SLOAD PUSH2 0x1E51 JUMP JUMPDEST PUSH1 0xB DUP6 ADD PUSH2 0x1E8B JUMP JUMPDEST PUSH1 0x20 PUSH1 0x1F DUP3 GT PUSH1 0x1 EQ PUSH2 0x103D JUMPI DUP2 SWAP3 SWAP4 SWAP5 SWAP6 PUSH1 0x0 SWAP3 PUSH2 0x1032 JUMPI JUMPDEST POP POP DUP2 PUSH1 0x1 SHL SWAP2 PUSH1 0x0 NOT SWAP1 PUSH1 0x3 SHL SHR NOT AND OR PUSH1 0xB DUP3 ADD SSTORE JUMPDEST PUSH2 0x180 PUSH2 0x220 MLOAD ADD MLOAD DUP1 MLOAD SWAP1 PUSH1 0x1 PUSH1 0x1 PUSH1 0x40 SHL SUB DUP3 GT PUSH2 0x2D4 JUMPI DUP2 SWAP1 PUSH2 0xC94 DUP3 PUSH2 0xC8B PUSH1 0xC DUP8 ADD SLOAD PUSH2 0x1E51 JUMP JUMPDEST PUSH1 0xC DUP8 ADD PUSH2 0x1E8B JUMP JUMPDEST PUSH1 0x20 SWAP1 PUSH1 0x1F DUP4 GT PUSH1 0x1 EQ PUSH2 0xFC0 JUMPI PUSH1 0x0 SWAP3 PUSH2 0xFB5 JUMPI JUMPDEST POP POP DUP2 PUSH1 0x1 SHL SWAP2 PUSH1 0x0 NOT SWAP1 PUSH1 0x3 SHL SHR NOT AND OR PUSH1 0xC DUP3 ADD SSTORE JUMPDEST PUSH2 0x1C0 PUSH2 0x220 MLOAD PUSH2 0x1A0 DUP2 ADD MLOAD PUSH1 0xD DUP5 ADD SSTORE ADD MLOAD DUP1 MLOAD SWAP1 PUSH1 0x1 PUSH1 0x1 PUSH1 0x40 SHL SUB DUP3 GT PUSH2 0x2D4 JUMPI PUSH2 0xD01 DUP3 PUSH2 0xCF8 PUSH1 0xE DUP7 ADD SLOAD PUSH2 0x1E51 JUMP JUMPDEST PUSH1 0xE DUP7 ADD PUSH2 0x1E8B JUMP JUMPDEST PUSH1 0x20 SWAP1 PUSH1 0x1F DUP4 GT PUSH1 0x1 EQ PUSH2 0xF42 JUMPI PUSH1 0xF SWAP4 SWAP3 SWAP2 PUSH1 0x0 SWAP2 DUP4 PUSH2 0xF37 JUMPI JUMPDEST POP POP DUP2 PUSH1 0x1 SHL SWAP2 PUSH1 0x0 NOT SWAP1 PUSH1 0x3 SHL SHR NOT AND OR PUSH1 0xE DUP3 ADD SSTORE JUMPDEST ADD PUSH2 0x220 MLOAD PUSH2 0x1E0 DUP2 ADD MLOAD ISZERO ISZERO SWAP1 DUP3 SLOAD PUSH2 0xFF00 PUSH2 0x200 DUP4 ADD MLOAD ISZERO ISZERO PUSH1 0x8 SHL AND SWAP1 PUSH1 0xFF PUSH4 0xFF000000 PUSH2 0x240 PUSH3 0xFF0000 PUSH2 0x220 DUP8 ADD MLOAD ISZERO ISZERO PUSH1 0x10 SHL AND SWAP6 ADD MLOAD ISZERO ISZERO PUSH1 0x18 SHL AND SWAP5 AND SWAP1 PUSH4 0xFFFFFFFF NOT AND OR OR OR OR SWAP1 SSTORE PUSH1 0x40 MLOAD PUSH1 0x20 DUP2 DUP2 PUSH2 0xDA2 PUSH2 0x1A0 MLOAD DUP4 DUP2 MLOAD SWAP4 DUP5 SWAP3 ADD PUSH2 0x1DB2 JUMP JUMPDEST DUP2 ADD PUSH1 0x2 DUP2 MSTORE SUB ADD SWAP1 KECCAK256 PUSH2 0xDC0 PUSH1 0x24 PUSH2 0x200 MLOAD PUSH1 0x44 CALLDATALOAD ADD ADD DUP1 PUSH2 0x1E1F JUMP JUMPDEST SWAP1 SWAP2 DUP1 SLOAD SWAP1 PUSH9 0x10000000000000000 DUP3 LT ISZERO PUSH2 0x2D4 JUMPI PUSH1 0x1 DUP3 ADD DUP1 DUP3 SSTORE DUP3 LT ISZERO PUSH2 0xF21 JUMPI PUSH1 0x0 MSTORE PUSH1 0x20 PUSH1 0x0 KECCAK256 ADD SWAP2 PUSH1 0x1 PUSH1 0x1 PUSH1 0x40 SHL SUB DUP3 GT PUSH2 0x2D4 JUMPI PUSH2 0xE10 DUP3 PUSH2 0xE0A DUP6 SLOAD PUSH2 0x1E51 JUMP JUMPDEST DUP6 PUSH2 0x1E8B JUMP JUMPDEST PUSH1 0x0 SWAP1 PUSH1 0x1F DUP4 GT PUSH1 0x1 EQ PUSH2 0xEB2 JUMPI PUSH2 0xEA1 SWAP5 SWAP4 SWAP3 SWAP2 PUSH1 0x0 SWAP2 DUP4 PUSH2 0xEA7 JUMPI JUMPDEST POP POP DUP2 PUSH1 0x1 SHL SWAP2 PUSH1 0x0 NOT SWAP1 PUSH1 0x3 SHL SHR NOT AND OR SWAP1 SSTORE JUMPDEST PUSH2 0xE57 PUSH1 0x24 PUSH2 0x200 MLOAD PUSH1 0x44 CALLDATALOAD ADD ADD DUP1 PUSH2 0x1E1F JUMP JUMPDEST SWAP1 DUP2 PUSH1 0x40 MLOAD SWAP3 DUP4 SWAP3 DUP4 CALLDATACOPY DUP2 ADD PUSH1 0x0 DUP2 MSTORE SUB SWAP1 KECCAK256 PUSH2 0xE76 PUSH2 0x1A0 MLOAD PUSH2 0x1F05 JUMP JUMPDEST SWAP1 PUSH32 0x5C683C8EF124ED98B107DCF80C644ABC011626816B5B3A73E3F6D518C0CD778 PUSH1 0x0 DUP1 LOG3 PUSH2 0x1DFA JUMP JUMPDEST SWAP1 PUSH2 0x459 JUMP JUMPDEST ADD CALLDATALOAD SWAP1 POP DUP7 DUP1 PUSH2 0xE2E JUMP JUMPDEST DUP4 PUSH1 0x0 MSTORE PUSH1 0x20 PUSH1 0x0 KECCAK256 SWAP2 PUSH1 0x0 JUMPDEST PUSH1 0x1F NOT DUP6 AND DUP2 LT PUSH2 0xF09 JUMPI POP SWAP2 DUP4 SWAP2 PUSH1 0x1 SWAP4 PUSH2 0xEA1 SWAP8 SWAP7 SWAP6 PUSH1 0x1F NOT DUP2 AND LT PUSH2 0xEEF JUMPI JUMPDEST POP POP POP DUP2 SHL ADD SWAP1 SSTORE PUSH2 0xE43 JUMP JUMPDEST ADD CALLDATALOAD PUSH1 0x0 NOT PUSH1 0x3 DUP5 SWAP1 SHL PUSH1 0xF8 AND SHR NOT AND SWAP1 SSTORE DUP7 DUP1 DUP1 PUSH2 0xEE2 JUMP JUMPDEST SWAP1 SWAP3 PUSH1 0x20 PUSH1 0x1 DUP2 SWAP3 DUP7 DUP7 ADD CALLDATALOAD DUP2 SSTORE ADD SWAP5 ADD SWAP2 ADD PUSH2 0xEBF JUMP JUMPDEST PUSH4 0x4E487B71 PUSH1 0xE0 SHL PUSH1 0x0 MSTORE PUSH1 0x32 PUSH1 0x4 MSTORE PUSH1 0x24 PUSH1 0x0 REVERT JUMPDEST ADD MLOAD SWAP1 POP DUP7 DUP1 PUSH2 0xD1D JUMP JUMPDEST SWAP1 PUSH1 0xE DUP5 ADD PUSH1 0x0 MSTORE PUSH1 0x20 PUSH1 0x0 KECCAK256 SWAP2 PUSH1 0x0 JUMPDEST PUSH1 0x1F NOT DUP6 AND DUP2 LT PUSH2 0xF9D JUMPI POP SWAP2 DUP4 SWAP2 PUSH1 0x1 SWAP4 PUSH1 0xF SWAP7 SWAP6 PUSH1 0x1F NOT DUP2 AND LT PUSH2 0xF84 JUMPI JUMPDEST POP POP POP DUP2 SHL ADD PUSH1 0xE DUP3 ADD SSTORE PUSH2 0xD35 JUMP JUMPDEST ADD MLOAD PUSH1 0x0 NOT PUSH1 0xF8 DUP5 PUSH1 0x3 SHL AND SHR NOT AND SWAP1 SSTORE DUP7 DUP1 DUP1 PUSH2 0xF74 JUMP JUMPDEST SWAP2 SWAP3 PUSH1 0x20 PUSH1 0x1 DUP2 SWAP3 DUP7 DUP6 ADD MLOAD DUP2 SSTORE ADD SWAP5 ADD SWAP3 ADD PUSH2 0xF53 JUMP JUMPDEST ADD MLOAD SWAP1 POP DUP6 DUP1 PUSH2 0xCAA JUMP JUMPDEST SWAP3 POP PUSH1 0xC DUP5 ADD PUSH1 0x0 MSTORE PUSH1 0x20 PUSH1 0x0 KECCAK256 SWAP1 PUSH1 0x0 SWAP4 JUMPDEST PUSH1 0x1F NOT DUP5 AND DUP6 LT PUSH2 0x1017 JUMPI PUSH1 0x1 SWAP5 POP DUP4 PUSH1 0x1F NOT DUP2 AND LT PUSH2 0xFFE JUMPI JUMPDEST POP POP POP DUP2 SHL ADD PUSH1 0xC DUP3 ADD SSTORE PUSH2 0xCC2 JUMP JUMPDEST ADD MLOAD PUSH1 0x0 NOT PUSH1 0xF8 DUP5 PUSH1 0x3 SHL AND SHR NOT AND SWAP1 SSTORE DUP6 DUP1 DUP1 PUSH2 0xFEE JUMP JUMPDEST DUP2 DUP2 ADD MLOAD DUP4 SSTORE PUSH1 0x20 SWAP5 DUP6 ADD SWAP5 PUSH1 0x1 SWAP1 SWAP4 ADD SWAP3 SWAP1 SWAP2 ADD SWAP1 PUSH2 0xFD3 JUMP JUMPDEST ADD MLOAD SWAP1 POP DUP6 DUP1 PUSH2 0xC46 JUMP JUMPDEST PUSH1 0xB DUP4 ADD PUSH1 0x0 MSTORE PUSH1 0x20 PUSH1 0x0 KECCAK256 SWAP1 PUSH1 0x0 JUMPDEST PUSH1 0x1F NOT DUP5 AND DUP2 LT PUSH2 0x1094 JUMPI POP PUSH1 0x1 SWAP4 SWAP5 SWAP6 SWAP7 DUP4 PUSH1 0x1F NOT DUP2 AND LT PUSH2 0x107B JUMPI JUMPDEST POP POP POP DUP2 SHL ADD PUSH1 0xB DUP3 ADD SSTORE PUSH2 0xC5E JUMP JUMPDEST ADD MLOAD PUSH1 0x0 NOT PUSH1 0xF8 DUP5 PUSH1 0x3 SHL AND SHR NOT AND SWAP1 SSTORE DUP6 DUP1 DUP1 PUSH2 0x106B JUMP JUMPDEST SWAP1 SWAP2 PUSH1 0x20 PUSH1 0x1 DUP2 SWAP3 DUP6 DUP12 ADD MLOAD DUP2 SSTORE ADD SWAP4 ADD SWAP2 ADD PUSH2 0x104D JUMP JUMPDEST ADD MLOAD SWAP1 POP DUP6 DUP1 PUSH2 0xBE0 JUMP JUMPDEST SWAP3 POP PUSH1 0xA DUP7 ADD PUSH1 0x0 MSTORE PUSH1 0x20 PUSH1 0x0 KECCAK256 SWAP1 PUSH1 0x0 SWAP4 JUMPDEST PUSH1 0x1F NOT DUP5 AND DUP6 LT PUSH2 0x110E JUMPI PUSH1 0x1 SWAP5 POP DUP4 PUSH1 0x1F NOT DUP2 AND LT PUSH2 0x10F5 JUMPI JUMPDEST POP POP POP DUP2 SHL ADD PUSH1 0xA DUP5 ADD SSTORE PUSH2 0xBF8 JUMP JUMPDEST ADD MLOAD PUSH1 0x0 NOT PUSH1 0xF8 DUP5 PUSH1 0x3 SHL AND SHR NOT AND SWAP1 SSTORE DUP6 DUP1 DUP1 PUSH2 0x10E5 JUMP JUMPDEST DUP2 DUP2 ADD MLOAD DUP4 SSTORE PUSH1 0x20 SWAP5 DUP6 ADD SWAP5 PUSH1 0x1 SWAP1 SWAP4 ADD SWAP3 SWAP1 SWAP2 ADD SWAP1 PUSH2 0x10CA JUMP JUMPDEST ADD MLOAD SWAP1 POP DUP6 DUP1 PUSH2 0xB7C JUMP JUMPDEST SWAP3 POP PUSH1 0x9 DUP7 ADD PUSH1 0x0 MSTORE PUSH1 0x20 PUSH1 0x0 KECCAK256 SWAP1 PUSH1 0x0 SWAP4 JUMPDEST PUSH1 0x1F NOT DUP5 AND DUP6 LT PUSH2 0x118B JUMPI PUSH1 0x1 SWAP5 POP DUP4 PUSH1 0x1F NOT DUP2 AND LT PUSH2 0x1172 JUMPI JUMPDEST POP POP POP DUP2 SHL ADD PUSH1 0x9 DUP5 ADD SSTORE PUSH2 0xB94 JUMP JUMPDEST ADD MLOAD PUSH1 0x0 NOT PUSH1 0xF8 DUP5 PUSH1 0x3 SHL AND SHR NOT AND SWAP1 SSTORE DUP6 DUP1 DUP1 PUSH2 0x1162 JUMP JUMPDEST DUP2 DUP2 ADD MLOAD DUP4 SSTORE PUSH1 0x20 SWAP5 DUP6 ADD SWAP5 PUSH1 0x1 SWAP1 SWAP4 ADD SWAP3 SWAP1 SWAP2 ADD SWAP1 PUSH2 0x1147 JUMP JUMPDEST ADD MLOAD SWAP1 POP DUP6 DUP1 PUSH2 0xB18 JUMP JUMPDEST SWAP3 POP PUSH1 0x8 DUP7 ADD PUSH1 0x0 MSTORE PUSH1 0x20 PUSH1 0x0 KECCAK256 SWAP1 PUSH1 0x0 SWAP4 JUMPDEST PUSH1 0x1F NOT DUP5 AND DUP6 LT PUSH2 0x1208 JUMPI PUSH1 0x1 SWAP5 POP DUP4 PUSH1 0x1F NOT DUP2 AND LT PUSH2 0x11EF JUMPI JUMPDEST POP POP POP DUP2 SHL ADD PUSH1 0x8 DUP5 ADD SSTORE PUSH2 0xB30 JUMP JUMPDEST ADD MLOAD PUSH1 0x0 NOT PUSH1 0xF8 DUP5 PUSH1 0x3 SHL AND SHR NOT AND SWAP1 SSTORE DUP6 DUP1 DUP1 PUSH2 0x11DF JUMP JUMPDEST DUP2 DUP2 ADD MLOAD DUP4 SSTORE PUSH1 0x20 SWAP5 DUP6 ADD SWAP5 PUSH1 0x1 SWAP1 SWAP4 ADD SWAP3 SWAP1 SWAP2 ADD SWAP1 PUSH2 0x11C4 JUMP JUMPDEST ADD MLOAD SWAP1 POP DUP6 DUP1 PUSH2 0xAB4 JUMP JUMPDEST SWAP3 POP PUSH1 0x7 DUP7 ADD PUSH1 0x0 MSTORE PUSH1 0x20 PUSH1 0x0 KECCAK256 SWAP1 PUSH1 0x0 SWAP4 JUMPDEST PUSH1 0x1F NOT DUP5 AND DUP6 LT PUSH2 0x1285 JUMPI PUSH1 0x1 SWAP5 POP DUP4 PUSH1 0x1F NOT DUP2 AND LT PUSH2 0x126C JUMPI JUMPDEST POP POP POP DUP2 SHL ADD PUSH1 0x7 DUP5 ADD SSTORE PUSH2 0xACC JUMP JUMPDEST ADD MLOAD PUSH1 0x0 NOT PUSH1 0xF8 DUP5 PUSH1 0x3 SHL AND SHR NOT AND SWAP1 SSTORE DUP6 DUP1 DUP1 PUSH2 0x125C JUMP JUMPDEST DUP2 DUP2 ADD MLOAD DUP4 SSTORE PUSH1 0x20 SWAP5 DUP6 ADD SWAP5 PUSH1 0x1 SWAP1 SWAP4 ADD SWAP3 SWAP1 SWAP2 ADD SWAP1 PUSH2 0x1241 JUMP JUMPDEST ADD MLOAD SWAP1 POP DUP6 DUP1 PUSH2 0xA51 JUMP JUMPDEST SWAP3 POP PUSH1 0x6 DUP7 ADD PUSH1 0x0 MSTORE PUSH1 0x20 PUSH1 0x0 KECCAK256 SWAP1 PUSH1 0x0 SWAP4 JUMPDEST PUSH1 0x1F NOT DUP5 AND DUP6 LT PUSH2 0x1302 JUMPI PUSH1 0x1 SWAP5 POP DUP4 PUSH1 0x1F NOT DUP2 AND LT PUSH2 0x12E9 JUMPI JUMPDEST POP POP POP DUP2 SHL ADD PUSH1 0x6 DUP5 ADD SSTORE PUSH2 0xA69 JUMP JUMPDEST ADD MLOAD PUSH1 0x0 NOT PUSH1 0xF8 DUP5 PUSH1 0x3 SHL AND SHR NOT AND SWAP1 SSTORE DUP6 DUP1 DUP1 PUSH2 0x12D9 JUMP JUMPDEST DUP2 DUP2 ADD MLOAD DUP4 SSTORE PUSH1 0x20 SWAP5 DUP6 ADD SWAP5 PUSH1 0x1 SWAP1 SWAP4 ADD SWAP3 SWAP1 SWAP2 ADD SWAP1 PUSH2 0x12BE JUMP JUMPDEST ADD MLOAD SWAP1 POP DUP6 DUP1 PUSH2 0x9EE JUMP JUMPDEST SWAP3 POP PUSH1 0x5 DUP7 ADD PUSH1 0x0 MSTORE PUSH1 0x20 PUSH1 0x0 KECCAK256 SWAP1 PUSH1 0x0 SWAP4 JUMPDEST PUSH1 0x1F NOT DUP5 AND DUP6 LT PUSH2 0x137F JUMPI PUSH1 0x1 SWAP5 POP DUP4 PUSH1 0x1F NOT DUP2 AND LT PUSH2 0x1366 JUMPI JUMPDEST POP POP POP DUP2 SHL ADD PUSH1 0x5 DUP5 ADD SSTORE PUSH2 0xA06 JUMP JUMPDEST ADD MLOAD PUSH1 0x0 NOT PUSH1 0xF8 DUP5 PUSH1 0x3 SHL AND SHR NOT AND SWAP1 SSTORE DUP6 DUP1 DUP1 PUSH2 0x1356 JUMP JUMPDEST DUP2 DUP2 ADD MLOAD DUP4 SSTORE PUSH1 0x20 SWAP5 DUP6 ADD SWAP5 PUSH1 0x1 SWAP1 SWAP4 ADD SWAP3 SWAP1 SWAP2 ADD SWAP1 PUSH2 0x133B JUMP JUMPDEST ADD MLOAD SWAP1 POP DUP6 DUP1 PUSH2 0x98B JUMP JUMPDEST SWAP3 POP PUSH1 0x4 DUP7 ADD PUSH1 0x0 MSTORE PUSH1 0x20 PUSH1 0x0 KECCAK256 SWAP1 PUSH1 0x0 SWAP4 JUMPDEST PUSH1 0x1F NOT DUP5 AND DUP6 LT PUSH2 0x13FC JUMPI PUSH1 0x1 SWAP5 POP DUP4 PUSH1 0x1F NOT DUP2 AND LT PUSH2 0x13E3 JUMPI JUMPDEST POP POP POP DUP2 SHL ADD PUSH1 0x4 DUP5 ADD SSTORE PUSH2 0x9A3 JUMP JUMPDEST ADD MLOAD PUSH1 0x0 NOT PUSH1 0xF8 DUP5 PUSH1 0x3 SHL AND SHR NOT AND SWAP1 SSTORE DUP6 DUP1 DUP1 PUSH2 0x13D3 JUMP JUMPDEST DUP2 DUP2 ADD MLOAD DUP4 SSTORE PUSH1 0x20 SWAP5 DUP6 ADD SWAP5 PUSH1 0x1 SWAP1 SWAP4 ADD SWAP3 SWAP1 SWAP2 ADD SWAP1 PUSH2 0x13B8 JUMP JUMPDEST ADD MLOAD SWAP1 POP DUP6 DUP1 PUSH2 0x928 JUMP JUMPDEST SWAP3 POP PUSH1 0x3 DUP7 ADD PUSH1 0x0 MSTORE PUSH1 0x20 PUSH1 0x0 KECCAK256 SWAP1 PUSH1 0x0 SWAP4 JUMPDEST PUSH1 0x1F NOT DUP5 AND DUP6 LT PUSH2 0x1479 JUMPI PUSH1 0x1 SWAP5 POP DUP4 PUSH1 0x1F NOT DUP2 AND LT PUSH2 0x1460 JUMPI JUMPDEST POP POP POP DUP2 SHL ADD PUSH1 0x3 DUP5 ADD SSTORE PUSH2 0x940 JUMP JUMPDEST ADD MLOAD PUSH1 0x0 NOT PUSH1 0xF8 DUP5 PUSH1 0x3 SHL AND SHR NOT AND SWAP1 SSTORE DUP6 DUP1 DUP1 PUSH2 0x1450 JUMP JUMPDEST DUP2 DUP2 ADD MLOAD DUP4 SSTORE PUSH1 0x20 SWAP5 DUP6 ADD SWAP5 PUSH1 0x1 SWAP1 SWAP4 ADD SWAP3 SWAP1 SWAP2 ADD SWAP1 PUSH2 0x1435 JUMP JUMPDEST ADD MLOAD SWAP1 POP DUP6 DUP1 PUSH2 0x8C5 JUMP JUMPDEST SWAP3 POP PUSH1 0x2 DUP7 ADD PUSH1 0x0 MSTORE PUSH1 0x20 PUSH1 0x0 KECCAK256 SWAP1 PUSH1 0x0 SWAP4 JUMPDEST PUSH1 0x1F NOT DUP5 AND DUP6 LT PUSH2 0x14F6 JUMPI PUSH1 0x1 SWAP5 POP DUP4 PUSH1 0x1F NOT DUP2 AND LT PUSH2 0x14DD JUMPI JUMPDEST POP POP POP DUP2 SHL ADD PUSH1 0x2 DUP5 ADD SSTORE PUSH2 0x8DD JUMP JUMPDEST ADD MLOAD PUSH1 0x0 NOT PUSH1 0xF8 DUP5 PUSH1 0x3 SHL AND SHR NOT AND SWAP1 SSTORE DUP6 DUP1 DUP1 PUSH2 0x14CD JUMP JUMPDEST DUP2 DUP2 ADD MLOAD DUP4 SSTORE PUSH1 0x20 SWAP5 DUP6 ADD SWAP5 PUSH1 0x1 SWAP1 SWAP4 ADD SWAP3 SWAP1 SWAP2 ADD SWAP1 PUSH2 0x14B2 JUMP JUMPDEST ADD MLOAD SWAP1 POP DUP6 DUP1 PUSH2 0x862 JUMP JUMPDEST SWAP3 POP PUSH1 0x1 DUP7 ADD PUSH1 0x0 MSTORE PUSH1 0x20 PUSH1 0x0 KECCAK256 SWAP1 PUSH1 0x0 SWAP4 JUMPDEST PUSH1 0x1F NOT DUP5 AND DUP6 LT PUSH2 0x1573 JUMPI PUSH1 0x1 SWAP5 POP DUP4 PUSH1 0x1F NOT DUP2 AND LT PUSH2 0x155A JUMPI JUMPDEST POP POP POP DUP2 SHL ADD PUSH1 0x1 DUP5 ADD SSTORE PUSH2 0x87A JUMP JUMPDEST ADD MLOAD PUSH1 0x0 NOT PUSH1 0xF8 DUP5 PUSH1 0x3 SHL AND SHR NOT AND SWAP1 SSTORE DUP6 DUP1 DUP1 PUSH2 0x154A JUMP JUMPDEST DUP2 DUP2 ADD MLOAD DUP4 SSTORE PUSH1 0x20 SWAP5 DUP6 ADD SWAP5 PUSH1 0x1 SWAP1 SWAP4 ADD SWAP3 SWAP1 SWAP2 ADD SWAP1 PUSH2 0x152F JUMP JUMPDEST ADD MLOAD SWAP1 POP DUP6 DUP1 PUSH2 0x802 JUMP JUMPDEST SWAP3 POP DUP6 PUSH1 0x0 MSTORE PUSH1 0x20 PUSH1 0x0 KECCAK256 SWAP1 PUSH1 0x0 SWAP4 JUMPDEST PUSH1 0x1F NOT DUP5 AND DUP6 LT PUSH2 0x15EA JUMPI PUSH1 0x1 SWAP5 POP DUP4 PUSH1 0x1F NOT DUP2 AND LT PUSH2 0x15D1 JUMPI JUMPDEST POP POP POP DUP2 SHL ADD DUP4 SSTORE PUSH2 0x817 JUMP JUMPDEST ADD MLOAD PUSH1 0x0 NOT PUSH1 0xF8 DUP5 PUSH1 0x3 SHL AND SHR NOT AND SWAP1 SSTORE DUP6 DUP1 DUP1 PUSH2 0x15C4 JUMP JUMPDEST DUP2 DUP2 ADD MLOAD DUP4 SSTORE PUSH1 0x20 SWAP5 DUP6 ADD SWAP5 PUSH1 0x1 SWAP1 SWAP4 ADD SWAP3 SWAP1 SWAP2 ADD SWAP1 PUSH2 0x15A9 JUMP JUMPDEST PUSH1 0x40 MLOAD PUSH3 0x461BCD PUSH1 0xE5 SHL DUP2 MSTORE PUSH1 0x20 PUSH1 0x4 DUP3 ADD MSTORE PUSH1 0x16 PUSH1 0x24 DUP3 ADD MSTORE PUSH22 0x50726F6475637420616C726561647920657869737473 PUSH1 0x50 SHL PUSH1 0x44 DUP3 ADD MSTORE PUSH1 0x64 SWAP1 REVERT JUMPDEST PUSH1 0x40 MLOAD PUSH3 0x461BCD PUSH1 0xE5 SHL DUP2 MSTORE PUSH1 0x20 PUSH1 0x4 DUP3 ADD MSTORE PUSH1 0xB PUSH1 0x24 DUP3 ADD MSTORE PUSH11 0x8ADAE0E8F240C4C2E8C6D PUSH1 0xAB SHL PUSH1 0x44 DUP3 ADD MSTORE PUSH1 0x64 SWAP1 REVERT JUMPDEST CALLVALUE PUSH2 0x18C JUMPI PUSH1 0x20 CALLDATASIZE PUSH1 0x3 NOT ADD SLT PUSH2 0x18C JUMPI PUSH1 0x4 CALLDATALOAD PUSH1 0x1 PUSH1 0x1 PUSH1 0x40 SHL SUB DUP2 GT PUSH2 0x18C JUMPI PUSH1 0x20 PUSH2 0x16AB PUSH2 0x1750 SWAP3 CALLDATASIZE SWAP1 PUSH1 0x4 ADD PUSH2 0x1D94 JUMP JUMPDEST PUSH1 0x0 PUSH2 0x240 PUSH1 0x40 MLOAD PUSH2 0x16BC DUP2 PUSH2 0x1D11 JUMP JUMPDEST PUSH1 0x60 DUP2 MSTORE PUSH1 0x60 DUP6 DUP3 ADD MSTORE PUSH1 0x60 PUSH1 0x40 DUP3 ADD MSTORE PUSH1 0x60 DUP1 DUP3 ADD MSTORE PUSH1 0x60 PUSH1 0x80 DUP3 ADD MSTORE PUSH1 0x60 PUSH1 0xA0 DUP3 ADD MSTORE PUSH1 0x60 PUSH1 0xC0 DUP3 ADD MSTORE PUSH1 0x60 PUSH1 0xE0 DUP3 ADD MSTORE PUSH1 0x60 PUSH2 0x100 DUP3 ADD MSTORE PUSH1 0x60 PUSH2 0x120 DUP3 ADD MSTORE PUSH1 0x60 PUSH2 0x140 DUP3 ADD MSTORE PUSH1 0x60 PUSH2 0x160 DUP3 ADD MSTORE PUSH1 0x60 PUSH2 0x180 DUP3 ADD MSTORE DUP3 PUSH2 0x1A0 DUP3 ADD MSTORE PUSH1 0x60 PUSH2 0x1C0 DUP3 ADD MSTORE DUP3 PUSH2 0x1E0 DUP3 ADD MSTORE DUP3 PUSH2 0x200 DUP3 ADD MSTORE DUP3 PUSH2 0x220 DUP3 ADD MSTORE ADD MSTORE DUP2 PUSH1 0x40 MLOAD SWAP4 DUP3 DUP6 DUP1 SWAP5 MLOAD SWAP4 DUP5 SWAP3 ADD PUSH2 0x1DB2 JUMP JUMPDEST DUP2 ADD PUSH1 0x1 DUP2 MSTORE SUB ADD SWAP1 KECCAK256 PUSH1 0xFF PUSH1 0xF PUSH1 0x40 MLOAD SWAP3 PUSH2 0x176B DUP5 PUSH2 0x1D11 JUMP JUMPDEST PUSH2 0x1774 DUP2 PUSH2 0x1F25 JUMP JUMPDEST DUP5 MSTORE PUSH2 0x1782 PUSH1 0x1 DUP3 ADD PUSH2 0x1F25 JUMP JUMPDEST PUSH1 0x20 DUP6 ADD MSTORE PUSH2 0x1793 PUSH1 0x2 DUP3 ADD PUSH2 0x1F25 JUMP JUMPDEST PUSH1 0x40 DUP6 ADD MSTORE PUSH2 0x17A4 PUSH1 0x3 DUP3 ADD PUSH2 0x1F25 JUMP JUMPDEST PUSH1 0x60 DUP6 ADD MSTORE PUSH2 0x17B5 PUSH1 0x4 DUP3 ADD PUSH2 0x1F25 JUMP JUMPDEST PUSH1 0x80 DUP6 ADD MSTORE PUSH2 0x17C6 PUSH1 0x5 DUP3 ADD PUSH2 0x1F25 JUMP JUMPDEST PUSH1 0xA0 DUP6 ADD MSTORE PUSH2 0x17D7 PUSH1 0x6 DUP3 ADD PUSH2 0x1F25 JUMP JUMPDEST PUSH1 0xC0 DUP6 ADD MSTORE PUSH2 0x17E8 PUSH1 0x7 DUP3 ADD PUSH2 0x1F25 JUMP JUMPDEST PUSH1 0xE0 DUP6 ADD MSTORE PUSH2 0x17F9 PUSH1 0x8 DUP3 ADD PUSH2 0x1F25 JUMP JUMPDEST PUSH2 0x100 DUP6 ADD MSTORE PUSH2 0x180B PUSH1 0x9 DUP3 ADD PUSH2 0x1F25 JUMP JUMPDEST PUSH2 0x120 DUP6 ADD MSTORE PUSH2 0x181D PUSH1 0xA DUP3 ADD PUSH2 0x1F25 JUMP JUMPDEST PUSH2 0x140 DUP6 ADD MSTORE PUSH2 0x182F PUSH1 0xB DUP3 ADD PUSH2 0x1F25 JUMP JUMPDEST PUSH2 0x160 DUP6 ADD MSTORE PUSH2 0x1841 PUSH1 0xC DUP3 ADD PUSH2 0x1F25 JUMP JUMPDEST PUSH2 0x180 DUP6 ADD MSTORE PUSH1 0xD DUP2 ADD SLOAD PUSH2 0x1A0 DUP6 ADD MSTORE PUSH2 0x185E PUSH1 0xE DUP3 ADD PUSH2 0x1F25 JUMP JUMPDEST PUSH2 0x1C0 DUP6 ADD MSTORE ADD SLOAD DUP2 DUP2 AND ISZERO ISZERO PUSH2 0x1E0 DUP5 ADD MSTORE DUP2 DUP2 PUSH1 0x8 SHR AND ISZERO ISZERO PUSH2 0x200 DUP5 ADD MSTORE DUP2 DUP2 PUSH1 0x10 SHR AND ISZERO ISZERO PUSH2 0x220 DUP5 ADD MSTORE PUSH1 0x18 SHR AND ISZERO ISZERO PUSH2 0x240 DUP3 ADD MSTORE PUSH1 0x40 MLOAD DUP1 SWAP2 PUSH1 0x20 DUP3 MSTORE PUSH2 0x240 PUSH2 0x1A1D PUSH2 0x19F9 PUSH2 0x19E1 PUSH2 0x19C9 PUSH2 0x19B1 PUSH2 0x1999 PUSH2 0x1981 PUSH2 0x196A PUSH2 0x1954 PUSH2 0x193E DUP12 DUP14 PUSH1 0x80 PUSH2 0x1929 PUSH2 0x1914 PUSH2 0x18FE PUSH2 0x18E8 DUP7 MLOAD PUSH2 0x260 PUSH1 0x20 DUP9 ADD MSTORE PUSH2 0x280 DUP8 ADD SWAP1 PUSH2 0x1DD5 JUMP JUMPDEST PUSH1 0x20 DUP8 ADD MLOAD DUP7 DUP3 SUB PUSH1 0x1F NOT ADD PUSH1 0x40 DUP9 ADD MSTORE PUSH2 0x1DD5 JUMP JUMPDEST PUSH1 0x40 DUP7 ADD MLOAD DUP6 DUP3 SUB PUSH1 0x1F NOT ADD PUSH1 0x60 DUP8 ADD MSTORE PUSH2 0x1DD5 JUMP JUMPDEST PUSH1 0x60 DUP6 ADD MLOAD DUP5 DUP3 SUB PUSH1 0x1F NOT ADD DUP5 DUP7 ADD MSTORE PUSH2 0x1DD5 JUMP JUMPDEST SWAP3 ADD MLOAD SWAP1 PUSH1 0xA0 PUSH1 0x1F NOT DUP3 DUP6 SUB ADD SWAP2 ADD MSTORE PUSH2 0x1DD5 JUMP JUMPDEST PUSH1 0xA0 DUP13 ADD MLOAD DUP14 DUP3 SUB PUSH1 0x1F NOT ADD PUSH1 0xC0 DUP16 ADD MSTORE PUSH2 0x1DD5 JUMP JUMPDEST PUSH1 0xC0 DUP12 ADD MLOAD DUP13 DUP3 SUB PUSH1 0x1F NOT ADD PUSH1 0xE0 DUP15 ADD MSTORE PUSH2 0x1DD5 JUMP JUMPDEST PUSH1 0xE0 DUP11 ADD MLOAD DUP12 DUP3 SUB PUSH1 0x1F NOT ADD PUSH2 0x100 DUP14 ADD MSTORE PUSH2 0x1DD5 JUMP JUMPDEST PUSH2 0x100 DUP10 ADD MLOAD DUP11 DUP3 SUB PUSH1 0x1F NOT ADD PUSH2 0x120 DUP13 ADD MSTORE PUSH2 0x1DD5 JUMP JUMPDEST PUSH2 0x120 DUP9 ADD MLOAD DUP10 DUP3 SUB PUSH1 0x1F NOT ADD PUSH2 0x140 DUP12 ADD MSTORE PUSH2 0x1DD5 JUMP JUMPDEST PUSH2 0x140 DUP8 ADD MLOAD DUP9 DUP3 SUB PUSH1 0x1F NOT ADD PUSH2 0x160 DUP11 ADD MSTORE PUSH2 0x1DD5 JUMP JUMPDEST PUSH2 0x160 DUP7 ADD MLOAD DUP8 DUP3 SUB PUSH1 0x1F NOT ADD PUSH2 0x180 DUP10 ADD MSTORE PUSH2 0x1DD5 JUMP JUMPDEST PUSH2 0x180 DUP6 ADD MLOAD DUP7 DUP3 SUB PUSH1 0x1F NOT ADD PUSH2 0x1A0 DUP9 ADD MSTORE PUSH2 0x1DD5 JUMP JUMPDEST PUSH2 0x1A0 DUP5 ADD MLOAD PUSH2 0x1C0 DUP7 ADD MSTORE PUSH2 0x1C0 DUP5 ADD MLOAD PUSH1 0x1F NOT DUP7 DUP4 SUB ADD PUSH2 0x1E0 DUP8 ADD MSTORE PUSH2 0x1DD5 JUMP JUMPDEST SWAP2 PUSH2 0x1E0 DUP2 ADD MLOAD ISZERO ISZERO PUSH2 0x200 DUP6 ADD MSTORE PUSH2 0x200 DUP2 ADD MLOAD ISZERO ISZERO PUSH2 0x220 DUP6 ADD MSTORE PUSH2 0x220 DUP2 ADD MLOAD ISZERO ISZERO DUP3 DUP6 ADD MSTORE ADD MLOAD ISZERO ISZERO PUSH2 0x260 DUP4 ADD MSTORE SUB SWAP1 RETURN JUMPDEST CALLVALUE PUSH2 0x18C JUMPI PUSH1 0x20 DUP1 PUSH1 0x3 NOT CALLDATASIZE ADD SLT PUSH2 0x18C JUMPI PUSH1 0x1 PUSH1 0x1 PUSH1 0x40 SHL SUB PUSH1 0x4 CALLDATALOAD DUP2 DUP2 GT PUSH2 0x18C JUMPI DUP3 PUSH2 0x1C7 PUSH2 0x1A8A SWAP3 CALLDATASIZE SWAP1 PUSH1 0x4 ADD PUSH2 0x1D94 JUMP JUMPDEST DUP2 ADD PUSH1 0x2 DUP2 MSTORE SUB ADD SWAP1 KECCAK256 DUP1 SLOAD SWAP2 DUP3 GT PUSH2 0x2D4 JUMPI PUSH1 0x40 MLOAD SWAP3 PUSH2 0x1AB0 DUP2 DUP5 PUSH1 0x5 SHL ADD DUP6 PUSH2 0x1D2D JUMP JUMPDEST DUP3 DUP5 MSTORE PUSH1 0x0 SWAP2 DUP3 MSTORE DUP1 DUP3 KECCAK256 DUP2 DUP6 ADD JUMPDEST DUP5 DUP5 LT PUSH2 0x1B5E JUMPI DUP6 PUSH2 0x1AD3 DUP2 MLOAD ISZERO ISZERO PUSH2 0x1FCB JUMP JUMPDEST PUSH1 0x0 JUMPDEST DUP2 MLOAD DUP2 LT ISZERO PUSH2 0x2B6 JUMPI PUSH2 0x1B06 SWAP1 PUSH1 0xF PUSH1 0xFF DUP2 PUSH2 0x1AF5 PUSH2 0x245 DUP6 DUP9 PUSH2 0x2007 JUMP JUMPDEST ADD SLOAD PUSH1 0x8 SHR AND ISZERO PUSH2 0x1B0B JUMPI POP PUSH2 0x1DFA JUMP JUMPDEST PUSH2 0x1AD6 JUMP JUMPDEST PUSH2 0x1B18 PUSH2 0x245 DUP4 DUP7 PUSH2 0x2007 JUMP JUMPDEST ADD DUP1 SLOAD PUSH2 0xFF00 NOT AND PUSH2 0x100 OR SWAP1 SSTORE PUSH2 0x1B33 PUSH2 0x285 DUP3 DUP6 PUSH2 0x2007 JUMP JUMPDEST PUSH32 0x9BB3D92FF53CE504EE358D5FF79F13221B4836773184E8EC3E9E299F7D032AEE PUSH1 0x0 DUP1 LOG2 DUP4 PUSH2 0x254 JUMP JUMPDEST PUSH1 0x1 DUP4 DUP2 SWAP3 PUSH2 0x1B6C DUP6 PUSH2 0x1F25 JUMP JUMPDEST DUP2 MSTORE ADD SWAP3 ADD SWAP4 ADD SWAP3 SWAP1 PUSH2 0x1ABF JUMP JUMPDEST CALLVALUE PUSH2 0x18C JUMPI PUSH1 0x20 DUP1 PUSH1 0x3 NOT CALLDATASIZE ADD SLT PUSH2 0x18C JUMPI PUSH1 0x1 PUSH1 0x1 PUSH1 0x40 SHL SUB PUSH1 0x4 CALLDATALOAD DUP2 DUP2 GT PUSH2 0x18C JUMPI DUP3 PUSH2 0x1C7 PUSH2 0x1BB0 SWAP3 CALLDATASIZE SWAP1 PUSH1 0x4 ADD PUSH2 0x1D94 JUMP JUMPDEST DUP2 ADD PUSH1 0x2 DUP2 MSTORE SUB ADD SWAP1 KECCAK256 DUP1 SLOAD SWAP2 DUP3 GT PUSH2 0x2D4 JUMPI DUP3 SWAP1 PUSH1 0x40 MLOAD SWAP3 PUSH2 0x1BD8 DUP4 DUP3 PUSH1 0x5 SHL ADD DUP6 PUSH2 0x1D2D JUMP JUMPDEST DUP1 DUP5 MSTORE DUP3 DUP5 ADD DUP1 SWAP3 PUSH1 0x0 MSTORE DUP4 PUSH1 0x0 KECCAK256 PUSH1 0x0 SWAP2 JUMPDEST DUP4 DUP4 LT PUSH2 0x1C52 JUMPI POP POP POP POP PUSH1 0x40 MLOAD SWAP2 DUP1 DUP4 ADD SWAP4 DUP2 DUP5 MSTORE MLOAD DUP1 SWAP5 MSTORE PUSH1 0x40 DUP4 ADD SWAP4 PUSH1 0x40 DUP2 PUSH1 0x5 SHL DUP6 ADD ADD SWAP3 SWAP2 PUSH1 0x0 SWAP6 JUMPDEST DUP3 DUP8 LT PUSH2 0x1C26 JUMPI DUP6 DUP6 SUB DUP7 RETURN JUMPDEST SWAP1 SWAP2 SWAP3 SWAP4 DUP3 DUP1 PUSH2 0x1C42 PUSH1 0x1 SWAP4 PUSH1 0x3F NOT DUP11 DUP3 SUB ADD DUP7 MSTORE DUP9 MLOAD PUSH2 0x1DD5 JUMP JUMPDEST SWAP7 ADD SWAP3 ADD SWAP7 ADD SWAP6 SWAP3 SWAP2 SWAP1 SWAP3 PUSH2 0x1C19 JUMP JUMPDEST PUSH1 0x1 DUP7 DUP2 SWAP3 PUSH2 0x1C63 DUP6 SWAP11 SWAP10 SWAP11 PUSH2 0x1F25 JUMP JUMPDEST DUP2 MSTORE ADD SWAP3 ADD SWAP3 ADD SWAP2 SWAP1 SWAP6 SWAP5 SWAP6 PUSH2 0x1BEB JUMP JUMPDEST CALLVALUE PUSH2 0x18C JUMPI PUSH1 0x20 CALLDATASIZE PUSH1 0x3 NOT ADD SLT PUSH2 0x18C JUMPI PUSH1 0x4 CALLDATALOAD PUSH1 0x1 PUSH1 0x1 PUSH1 0x40 SHL SUB DUP2 GT PUSH2 0x18C JUMPI PUSH2 0x1CA7 PUSH2 0x1CEA SWAP2 CALLDATASIZE SWAP1 PUSH1 0x4 ADD PUSH2 0x1D94 JUMP JUMPDEST PUSH1 0xF PUSH2 0x1CCB PUSH1 0x20 PUSH1 0x40 MLOAD PUSH2 0x101 PUSH2 0xFA DUP7 MLOAD SWAP3 DUP5 DUP2 DUP2 DUP11 ADD SWAP6 PUSH2 0xEA DUP2 DUP4 DUP10 PUSH2 0x1DB2 JUMP JUMPDEST DUP2 ADD PUSH1 0x1 DUP2 MSTORE SUB ADD SWAP1 KECCAK256 ADD PUSH3 0x10000 PUSH3 0xFF0000 NOT DUP3 SLOAD AND OR SWAP1 SSTORE PUSH2 0x1F05 JUMP JUMPDEST PUSH32 0x4E4003378FE790A19A351B9848E06179B5D6E7A3262A28CFC05F8BACBA35857A PUSH1 0x0 DUP1 LOG2 STOP JUMPDEST PUSH2 0x260 DUP2 ADD SWAP1 DUP2 LT PUSH1 0x1 PUSH1 0x1 PUSH1 0x40 SHL SUB DUP3 GT OR PUSH2 0x2D4 JUMPI PUSH1 0x40 MSTORE JUMP JUMPDEST SWAP1 PUSH1 0x1F DUP1 NOT SWAP2 ADD AND DUP2 ADD SWAP1 DUP2 LT PUSH1 0x1 PUSH1 0x1 PUSH1 0x40 SHL SUB DUP3 GT OR PUSH2 0x2D4 JUMPI PUSH1 0x40 MSTORE JUMP JUMPDEST SWAP3 SWAP2 SWAP3 PUSH1 0x1 PUSH1 0x1 PUSH1 0x40 SHL SUB DUP3 GT PUSH2 0x2D4 JUMPI PUSH1 0x40 MLOAD SWAP2 PUSH2 0x1D77 PUSH1 0x1F DUP3 ADD PUSH1 0x1F NOT AND PUSH1 0x20 ADD DUP5 PUSH2 0x1D2D JUMP JUMPDEST DUP3 SWAP5 DUP2 DUP5 MSTORE DUP2 DUP4 ADD GT PUSH2 0x18C JUMPI DUP3 DUP2 PUSH1 0x20 SWAP4 DUP5 PUSH1 0x0 SWAP7 ADD CALLDATACOPY ADD ADD MSTORE JUMP JUMPDEST SWAP1 DUP1 PUSH1 0x1F DUP4 ADD SLT ISZERO PUSH2 0x18C JUMPI DUP2 PUSH1 0x20 PUSH2 0x1DAF SWAP4 CALLDATALOAD SWAP2 ADD PUSH2 0x1D4E JUMP JUMPDEST SWAP1 JUMP JUMPDEST PUSH1 0x0 JUMPDEST DUP4 DUP2 LT PUSH2 0x1DC5 JUMPI POP POP PUSH1 0x0 SWAP2 ADD MSTORE JUMP JUMPDEST DUP2 DUP2 ADD MLOAD DUP4 DUP3 ADD MSTORE PUSH1 0x20 ADD PUSH2 0x1DB5 JUMP JUMPDEST SWAP1 PUSH1 0x20 SWAP2 PUSH2 0x1DEE DUP2 MLOAD DUP1 SWAP3 DUP2 DUP6 MSTORE DUP6 DUP1 DUP7 ADD SWAP2 ADD PUSH2 0x1DB2 JUMP JUMPDEST PUSH1 0x1F ADD PUSH1 0x1F NOT AND ADD ADD SWAP1 JUMP JUMPDEST PUSH1 0x0 NOT DUP2 EQ PUSH2 0x1E09 JUMPI PUSH1 0x1 ADD SWAP1 JUMP JUMPDEST PUSH4 0x4E487B71 PUSH1 0xE0 SHL PUSH1 0x0 MSTORE PUSH1 0x11 PUSH1 0x4 MSTORE PUSH1 0x24 PUSH1 0x0 REVERT JUMPDEST SWAP1 CALLDATALOAD SWAP1 PUSH1 0x1E NOT DUP2 CALLDATASIZE SUB ADD DUP3 SLT ISZERO PUSH2 0x18C JUMPI ADD DUP1 CALLDATALOAD SWAP1 PUSH1 0x1 PUSH1 0x1 PUSH1 0x40 SHL SUB DUP3 GT PUSH2 0x18C JUMPI PUSH1 0x20 ADD SWAP2 DUP2 CALLDATASIZE SUB DUP4 SGT PUSH2 0x18C JUMPI JUMP JUMPDEST SWAP1 PUSH1 0x1 DUP3 DUP2 SHR SWAP3 AND DUP1 ISZERO PUSH2 0x1E81 JUMPI JUMPDEST PUSH1 0x20 DUP4 LT EQ PUSH2 0x1E6B JUMPI JUMP JUMPDEST PUSH4 0x4E487B71 PUSH1 0xE0 SHL PUSH1 0x0 MSTORE PUSH1 0x22 PUSH1 0x4 MSTORE PUSH1 0x24 PUSH1 0x0 REVERT JUMPDEST SWAP2 PUSH1 0x7F AND SWAP2 PUSH2 0x1E60 JUMP JUMPDEST SWAP1 PUSH1 0x1F DUP2 GT PUSH2 0x1E99 JUMPI POP POP POP JUMP JUMPDEST PUSH1 0x0 SWAP2 DUP3 MSTORE PUSH1 0x20 DUP3 KECCAK256 SWAP1 PUSH1 0x20 PUSH1 0x1F DUP6 ADD PUSH1 0x5 SHR DUP4 ADD SWAP5 LT PUSH2 0x1ED5 JUMPI JUMPDEST PUSH1 0x1F ADD PUSH1 0x5 SHR ADD SWAP2 JUMPDEST DUP3 DUP2 LT PUSH2 0x1ECA JUMPI POP POP POP JUMP JUMPDEST DUP2 DUP2 SSTORE PUSH1 0x1 ADD PUSH2 0x1EBE JUMP JUMPDEST SWAP1 SWAP3 POP DUP3 SWAP1 PUSH2 0x1EB5 JUMP JUMPDEST PUSH1 0x20 PUSH2 0x1EF8 SWAP2 DUP2 PUSH1 0x40 MLOAD SWAP4 DUP3 DUP6 DUP1 SWAP5 MLOAD SWAP4 DUP5 SWAP3 ADD PUSH2 0x1DB2 JUMP JUMPDEST DUP2 ADD PUSH1 0x1 DUP2 MSTORE SUB ADD SWAP1 KECCAK256 SWAP1 JUMP JUMPDEST PUSH2 0x1F1D SWAP1 PUSH1 0x20 PUSH1 0x40 MLOAD SWAP3 DUP3 DUP5 DUP1 SWAP5 MLOAD SWAP4 DUP5 SWAP3 ADD PUSH2 0x1DB2 JUMP JUMPDEST DUP2 ADD SUB SWAP1 KECCAK256 SWAP1 JUMP JUMPDEST SWAP1 PUSH1 0x40 MLOAD SWAP2 DUP3 PUSH1 0x0 DUP3 SLOAD SWAP3 PUSH2 0x1F39 DUP5 PUSH2 0x1E51 JUMP JUMPDEST SWAP1 DUP2 DUP5 MSTORE PUSH1 0x1 SWAP5 DUP6 DUP2 AND SWAP1 DUP2 PUSH1 0x0 EQ PUSH2 0x1FA8 JUMPI POP PUSH1 0x1 EQ PUSH2 0x1F65 JUMPI JUMPDEST POP POP PUSH2 0x1F63 SWAP3 POP SUB DUP4 PUSH2 0x1D2D JUMP JUMPDEST JUMP JUMPDEST SWAP1 SWAP4 SWAP2 POP PUSH1 0x0 MSTORE PUSH1 0x20 SWAP1 DUP2 PUSH1 0x0 KECCAK256 SWAP4 PUSH1 0x0 SWAP2 JUMPDEST DUP2 DUP4 LT PUSH2 0x1F90 JUMPI POP POP PUSH2 0x1F63 SWAP4 POP DUP3 ADD ADD CODESIZE DUP1 PUSH2 0x1F55 JUMP JUMPDEST DUP6 SLOAD DUP9 DUP5 ADD DUP6 ADD MSTORE SWAP5 DUP6 ADD SWAP5 DUP8 SWAP5 POP SWAP2 DUP4 ADD SWAP2 PUSH2 0x1F78 JUMP JUMPDEST SWAP2 POP POP PUSH2 0x1F63 SWAP5 POP PUSH1 0x20 SWAP3 POP PUSH1 0xFF NOT AND DUP3 DUP5 ADD MSTORE ISZERO ISZERO PUSH1 0x5 SHL DUP3 ADD ADD CODESIZE DUP1 PUSH2 0x1F55 JUMP JUMPDEST ISZERO PUSH2 0x1FD2 JUMPI JUMP JUMPDEST PUSH1 0x40 MLOAD PUSH3 0x461BCD PUSH1 0xE5 SHL DUP2 MSTORE PUSH1 0x20 PUSH1 0x4 DUP3 ADD MSTORE PUSH1 0xD PUSH1 0x24 DUP3 ADD MSTORE PUSH13 0x109BDE081B9BDD08199BDD5B99 PUSH1 0x9A SHL PUSH1 0x44 DUP3 ADD MSTORE PUSH1 0x64 SWAP1 REVERT JUMPDEST DUP1 MLOAD DUP3 LT ISZERO PUSH2 0xF21 JUMPI PUSH1 0x20 SWAP2 PUSH1 0x5 SHL ADD ADD SWAP1 JUMP JUMPDEST ISZERO PUSH2 0x2022 JUMPI JUMP JUMPDEST PUSH1 0x40 MLOAD PUSH3 0x461BCD PUSH1 0xE5 SHL DUP2 MSTORE PUSH1 0x20 PUSH1 0x4 DUP3 ADD MSTORE PUSH1 0xE PUSH1 0x24 DUP3 ADD MSTORE PUSH14 0x139BDD081C9959DA5CDD195C9959 PUSH1 0x92 SHL PUSH1 0x44 DUP3 ADD MSTORE PUSH1 0x64 SWAP1 REVERT INVALID LOG2 PUSH5 0x6970667358 0x22 SLT KECCAK256 GASLIMIT 0xDD SWAP9 0xC9 EXTCODEHASH LOG4 0xB5 0xA5 0x27 0x29 DUP10 SWAP12 0x4C MSTORE STATICCALL DUP4 RETURN 0xEF DUP11 0xAB PUSH9 0x61700AF74B30761937 PUSH16 0x2B64736F6C6343000814003300000000 "},"methodIdentifiers":{"getProduct(string)":"68111cce","getProductsByBox(string)":"289496bb","owner()":"8da5cb5b","registerBatchProducts(string,string,(string,string,string,string,string,string,string,string,string,string,string,string,string,uint256,string)[])":"85abadc2","saleComplete(string)":"1768850f","shipBox(string)":"cfc9a8c9","verifyBox(string)":"52671aef","verifyBySystem(string)":"d15bd3cb","verifyProduct(string)":"92efc453"}}}}}