{
  "_format": "hh-sol-artifact-1",
  "contractName": "TrustChain",
  "sourceName": "contracts/TrustChain.sol",
  "abi": [
    {
      "inputs": [],
      "stateMutability": "nonpayable",
      "type": "constructor"
    },
    {
      "anonymous": false,
      "inputs": [
        {
          "indexed": true,
          "internalType": "string",
          "name": "batchNumber",
          "type": "string"
        },
        {
          "indexed": true,
          "internalType": "string",
          "name": "boxId",
          "type": "string"
        },
        {
          "indexed": false,
          "internalType": "uint256",
          "name": "productCount",
          "type": "uint256"
        }
      ],
      "name": "BatchRegistered",
      "type": "event"
    },
    {
      "anonymous": false,
      "inputs": [
        {
          "indexed": true,
          "internalType": "string",
          "name": "productId",
          "type": "string"
        },
        {
          "indexed": true,
          "internalType": "string",
          "name": "boxId",
          "type": "string"
        }
      ],
      "name": "ProductRegistered",
      "type": "event"
    },
    {
      "anonymous": false,
      "inputs": [
        {
          "indexed": true,
          "internalType": "string",
          "name": "productId",
          "type": "string"
        }
      ],
      "name": "ProductShipped",
      "type": "event"
    },
    {
      "anonymous": false,
      "inputs": [
        {
          "indexed": true,
          "internalType": "string",
          "name": "productId",
          "type": "string"
        }
      ],
      "name": "ProductSold",
      "type": "event"
    },
    {
      "anonymous": false,
      "inputs": [
        {
          "indexed": true,
          "internalType": "string",
          "name": "productId",
          "type": "string"
        }
      ],
      "name": "ProductSystemVerified",
      "type": "event"
    },
    {
      "anonymous": false,
      "inputs": [
        {
          "indexed": true,
          "internalType": "string",
          "name": "productId",
          "type": "string"
        }
      ],
      "name": "ProductVerified",
      "type": "event"
    },
    {
      "inputs": [
        {
          "internalType": "string",
          "name": "productId",
          "type": "string"
        }
      ],
      "name": "getProduct",
      "outputs": [
        {
          "components": [
            {
              "internalType": "string",
              "name": "productId",
              "type": "string"
            },
            {
              "internalType": "string",
              "name": "boxId",
              "type": "string"
            },
            {
              "internalType": "string",
              "name": "name",
              "type": "string"
            },
            {
              "internalType": "string",
              "name": "category",
              "type": "string"
            },
            {
              "internalType": "string",
              "name": "manufacturer",
              "type": "string"
            },
            {
              "internalType": "string",
              "name": "manufacturerDate",
              "type": "string"
            },
            {
              "internalType": "string",
              "name": "manufacturePlace",
              "type": "string"
            },
            {
              "internalType": "string",
              "name": "modelNumber",
              "type": "string"
            },
            {
              "internalType": "string",
              "name": "serialNumber",
              "type": "string"
            },
            {
              "internalType": "string",
              "name": "warrantyPeriod",
              "type": "string"
            },
            {
              "internalType": "string",
              "name": "batchNumber",
              "type": "string"
            },
            {
              "internalType": "string",
              "name": "color",
              "type": "string"
            },
            {
              "internalType": "string",
              "name": "specs",
              "type": "string"
            },
            {
              "internalType": "uint256",
              "name": "price",
              "type": "uint256"
            },
            {
              "internalType": "string",
              "name": "image",
              "type": "string"
            },
            {
              "internalType": "bool",
              "name": "shipped",
              "type": "bool"
            },
            {
              "internalType": "bool",
              "name": "verifiedByRetailer",
              "type": "bool"
            },
            {
              "internalType": "bool",
              "name": "sold",
              "type": "bool"
            },
            {
              "internalType": "bool",
              "name": "verifiedBySystem",
              "type": "bool"
            }
          ],
          "internalType": "struct TrustChain.Product",
          "name": "",
          "type": "tuple"
        }
      ],
      "stateMutability": "view",
      "type": "function"
    },
    {
      "inputs": [
        {
          "internalType": "string",
          "name": "boxId",
          "type": "string"
        }
      ],
      "name": "getProductsByBox",
      "outputs": [
        {
          "internalType": "string[]",
          "name": "",
          "type": "string[]"
        }
      ],
      "stateMutability": "view",
      "type": "function"
    },
    {
      "inputs": [],
      "name": "owner",
      "outputs": [
        {
          "internalType": "address",
          "name": "",
          "type": "address"
        }
      ],
      "stateMutability": "view",
      "type": "function"
    },
    {
      "inputs": [
        {
          "internalType": "string",
          "name": "batchNumber",
          "type": "string"
        },
        {
          "internalType": "string",
          "name": "boxId",
          "type": "string"
        },
        {
          "components": [
            {
              "internalType": "string",
              "name": "productId",
              "type": "string"
            },
            {
              "internalType": "string",
              "name": "boxId",
              "type": "string"
            },
            {
              "internalType": "string",
              "name": "name",
              "type": "string"
            },
            {
              "internalType": "string",
              "name": "category",
              "type": "string"
            },
            {
              "internalType": "string",
              "name": "manufacturer",
              "type": "string"
            },
            {
              "internalType": "string",
              "name": "manufacturerDate",
              "type": "string"
            },
            {
              "internalType": "string",
              "name": "manufacturePlace",
              "type": "string"
            },
            {
              "internalType": "string",
              "name": "modelNumber",
              "type": "string"
            },
            {
              "internalType": "string",
              "name": "serialNumber",
              "type": "string"
            },
            {
              "internalType": "string",
              "name": "warrantyPeriod",
              "type": "string"
            },
            {
              "internalType": "string",
              "name": "batchNumber",
              "type": "string"
            },
            {
              "internalType": "string",
              "name": "color",
              "type": "string"
            },
            {
              "internalType": "string",
              "name": "specs",
              "type": "string"
            },
            {
              "internalType": "uint256",
              "name": "price",
              "type": "uint256"
            },
            {
              "internalType": "string",
              "name": "image",
              "type": "string"
            }
          ],
          "internalType": "struct TrustChain.ProductInput[]",
          "name": "items",
          "type": "tuple[]"
        }
      ],
      "name": "registerBatchProducts",
      "outputs": [],
      "stateMutability": "nonpayable",
      "type": "function"
    },
    {
      "inputs": [
        {
          "internalType": "string",
          "name": "_boxId",
          "type": "string"
        }
      ],
      "name": "saleBox",
      "outputs": [],
      "stateMutability": "nonpayable",
      "type": "function"
    },
    {
      "inputs": [
        {
          "internalType": "string",
          "name": "productId",
          "type": "string"
        }
      ],
      "name": "saleComplete",
      "outputs": [],
      "stateMutability": "nonpayable",
      "type": "function"
    },
    {
      "inputs": [
        {
          "internalType": "string",
          "name": "_boxId",
          "type": "string"
        }
      ],
      "name": "shipBox",
      "outputs": [],
      "stateMutability": "nonpayable",
      "type": "function"
    },
    {
      "inputs": [
        {
          "internalType": "string",
          "name": "_boxId",
          "type": "string"
        }
      ],
      "name": "verifyBox",
      "outputs": [],
      "stateMutability": "nonpayable",
      "type": "function"
    },
    {
      "inputs": [
        {
          "internalType": "string",
          "name": "productId",
          "type": "string"
        }
      ],
      "name": "verifyBySystem",
      "outputs": [],
      "stateMutability": "nonpayable",
      "type": "function"
    },
    {
      "inputs": [
        {
          "internalType": "string",
          "name": "productId",
          "type": "string"
        }
      ],
      "name": "verifyProduct",
      "outputs": [],
      "stateMutability": "nonpayable",
      "type": "function"
    }
  ],
  "bytecode": "0x6080806040523461002857600080546001600160a01b03191633179055612278908161002e8239f35b600080fdfe610260604052600436101561001357600080fd5b60003560e01c80631768850f14611dcf578063289496bb14611cd657806352671aef14611bda57806368111cce146117f05780636ddd6c93146116f257806385abadc2146103b05780638da5cb5b1461038757806392efc453146102df578063cfc9a8c9146101b35763d15bd3cb1461008b57600080fd5b346101ae576020806003193601126101ae576004356001600160401b0381116101ae576100bc903690600401611ed1565b6000546001600160a01b0316330361017c57600f61013561015593336000526001815260406000206101176101106040518481895195828b019661010181848a611eef565b82019081520301902054611fa7565b151561215f565b33600052600182526040600020604051809481938851928391611eef565b82019081520301902001805463ff00000019166301000000179055612063565b7f7d8a41247edd77a402ab86adc7161f72221dda94f4f8e55c05267db2f3723932600080a2005b60405162461bcd60e51b815260048101839052600a60248201526927b7363c9037bbb732b960b11b6044820152606490fd5b600080fd5b346101ae576020806003193601126101ae576004356001600160401b0381116101ae57816101e8610208923690600401611ed1565b336000526002825260406000208260405194838680955193849201611eef565b82019081520301902061021d81541515612083565b60005b81548110156102dd5761026590336000526001808552604060002060ff6102478487612035565b50610255600f938492612142565b0154161561026a575b5050611f37565b610220565b3360005281865261028960406000206102838588612035565b50612142565b019060ff198254161790556102ae6102a18285612035565b50604051918280926120bf565b0390207f9dbe2d347001eec4f99473edc6161746246c3bd920ebc7aec9ea509774a6a87c600080a2848061025e565b005b346101ae576020806003193601126101ae57600435906001600160401b0382116101ae57600f610344610319610360943690600401611ed1565b92336000526001815260406000206101176101106040518481895195828b019661010181848a611eef565b82019081520301902001805461ff001916610100179055612063565b7f9bb3d92ff53ce504ee358d5ff79f13221b4836773184e8ec3e9e299f7d032aee600080a2005b346101ae5760003660031901126101ae576000546040516001600160a01b039091168152602090f35b346101ae5760603660031901126101ae576004356001600160401b0381116101ae576103e0903690600401611ed1565b6024356001600160401b0381116101ae576103ff903690600401611ed1565b610240526001600160401b03604435116101ae573660236044350112156101ae576001600160401b0360443560040135116101ae573660246044356004013560051b6044350101116101ae5760443560040135156116bf576000610120525b61012051604435600401358110156116775760249060051b604435010135610202196044353603018112156101ae576104b96104bf913360005260016020526104b36024604060002092604435010180611f5c565b90611f8e565b54611fa7565b61161d576101205160051b6044350160240135604435016024810160248201906104e891611f5c565b906101c0526064820160248301906104ff91611f5c565b61014052610220526105176084830160248401611f5c565b9061052860a4850160248601611f5c565b9061053960c4870160248801611f5c565b909161054b60e4890160248a01611f5c565b9490956101048a0160248b019061056191611f5c565b9890996101248c0160248d019061057791611f5c565b9c906101a0526101448101602482019061059091611f5c565b6102005260a0526105a8610184820160248301611f5c565b6101e05260c0526105c06101a4820160248301611f5c565b610180526080526105d9906101e4810190602401611f5c565b60e0526101605260405180610100526105f190611e4e565b366101c0519161060092611e8b565b6101005152610240516101005160200152366101405190610220519161062592611e8b565b6101005160400152369061063892611e8b565b6101005160600152369061064b92611e8b565b6101005160800152369061065e92611e8b565b6101005160a00152369061067192611e8b565b6101005160c00152369061068492611e8b565b6101005160e00152366101a0519161069b92611e8b565b610100805101526102005160a0516106b4913691611e8b565b61010051610120015280610100516101400152366101e0519060c051916106da92611e8b565b610100516101600152610180516080516106f5913691611e8b565b6101005161018001526101205160051b6044350160240135604435016101c40135610100516101a001523660e05190610160519161073292611e8b565b610100516101c00152610100516101e0016000905261010051610200016000905261010051610220016000905261010051610240016000905233600052600160205260406000206101205160051b6044350160240135604435016024018061079991611f5c565b6107a39291611f8e565b9061010051519081516001600160401b038111610f30576107ce816107c88654611fa7565b86611fe1565b602092601f82116001146115b257928192936000926115a7575b50508160011b916000199060031b1c19161782555b60206101005101519081516001600160401b038111610f3057610830816108276001870154611fa7565b60018701611fe1565b602092601f8211600114611536579281929360009261152b575b50508160011b916000199060031b1c19161760018301555b60406101005101519081516001600160401b038111610f30576108958161088c6002870154611fa7565b60028701611fe1565b602092601f82116001146114ba57928192936000926114af575b50508160011b916000199060031b1c19161760028301555b60606101005101519081516001600160401b038111610f30576108fa816108f16003870154611fa7565b60038701611fe1565b602092601f821160011461143e5792819293600092611433575b50508160011b916000199060031b1c19161760038301555b60806101005101519081516001600160401b038111610f305761095f816109566004870154611fa7565b60048701611fe1565b602092601f82116001146113c257928192936000926113b7575b50508160011b916000199060031b1c19161760048301555b60a06101005101519081516001600160401b038111610f30576109c4816109bb6005870154611fa7565b60058701611fe1565b602092601f8211600114611346579281929360009261133b575b50508160011b916000199060031b1c19161760058301555b60c06101005101519081516001600160401b038111610f3057610a2981610a206006870154611fa7565b60068701611fe1565b602092601f82116001146112ca57928192936000926112bf575b50508160011b916000199060031b1c19161760068301555b60e06101005101519081516001600160401b038111610f3057610a8e81610a856007870154611fa7565b60078701611fe1565b602092601f821160011461124e5792819293600092611243575b50508160011b916000199060031b1c19161760078301555b610100805101519081516001600160401b038111610f3057610af281610ae96008870154611fa7565b60088701611fe1565b602092601f82116001146111d257928192936000926111c7575b50508160011b916000199060031b1c19161760088301555b6101206101005101519081516001600160401b038111610f3057610b5881610b4f6009870154611fa7565b60098701611fe1565b602092601f8211600114611156579281929360009261114b575b50508160011b916000199060031b1c19161760098301555b6101406101005101519081516001600160401b038111610f3057610bbe81610bb5600a870154611fa7565b600a8701611fe1565b602092601f82116001146110da57928192936000926110cf575b50508160011b916000199060031b1c191617600a8301555b6101606101005101519081516001600160401b038111610f3057610c2481610c1b600b870154611fa7565b600b8701611fe1565b602092601f821160011461105e5792819293600092611053575b50508160011b916000199060031b1c191617600b8301555b6101806101005101519182516001600160401b038111610f3057610c8a81610c81600c850154611fa7565b600c8501611fe1565b6020601f8211600114610fe55781929394600092610fda575b50508160011b916000199060031b1c191617600c8201555b6101c0610100516101a0810151600d84015501518051906001600160401b038211610f3057610cfa82610cf1600e860154611fa7565b600e8601611fe1565b602090601f8311600114610f6757600f93929160009183610f5c575b50508160011b916000199060031b1c191617600e8201555b01610100516101e0810151151590825461ff00610200830151151560081b169060ff63ff00000061024062ff0000610220870151151560101b16950151151560181b1694169063ffffffff191617171717905533600052600260205260406000206020604051809282610daa6102405184815193849201611eef565b820190815203019020610dd16024806101205160051b604435010135604435010180611f5c565b9091805468010000000000000000811015610f3057610df591600182018155612035565b929092610f46576001600160401b038211610f30578190610e1a826107c88654611fa7565b600090601f8311600114610ec857600092610ebd575b50508160011b916000199060031b1c19161790555b610e636024806101205160051b604435010135604435010180611f5c565b90816040519283928337810160008152039020610e8261024051612063565b907f05c683c8ef124ed98b107dcf80c644abc011626816b5b3a73e3f6d518c0cd778600080a3610eb461012051611f37565b6101205261045e565b013590508480610e30565b600085815260208120909450915b601f1984168510610f18576001945083601f19811610610efe575b505050811b019055610e45565b0135600019600384901b60f8161c19169055848080610ef1565b81810135835560209485019460019093019201610ed6565b634e487b7160e01b600052604160045260246000fd5b634e487b7160e01b600052600060045260246000fd5b015190508580610d16565b90600e840160005260206000209160005b601f1985168110610fc25750918391600193600f9695601f19811610610fa9575b505050811b01600e820155610d2e565b015160001960f88460031b161c19169055858080610f99565b91926020600181928685015181550194019201610f78565b015190508480610ca3565b600c830160005260206000209060005b601f198416811061103b5750600193949583601f19811610611022575b505050811b01600c820155610cbb565b015160001960f88460031b161c19169055848080611012565b9091602060018192858a015181550193019101610ff5565b015190508480610c3e565b92600b85016000526020600020906000945b601f19841686106110b557600194955083601f1981161061109c575b505050811b01600b830155610c56565b015160001960f88460031b161c1916905584808061108c565b909160206001819285850151815501930195019490611070565b015190508480610bd8565b92600a85016000526020600020906000945b601f198416861061113157600194955083601f19811610611118575b505050811b01600a830155610bf0565b015160001960f88460031b161c19169055848080611108565b9091602060018192858501518155019301950194906110ec565b015190508480610b72565b92600985016000526020600020906000945b601f19841686106111ad57600194955083601f19811610611194575b505050811b016009830155610b8a565b015160001960f88460031b161c19169055848080611184565b909160206001819285850151815501930195019490611168565b015190508480610b0c565b92600885016000526020600020906000945b601f198416861061122957600194955083601f19811610611210575b505050811b016008830155610b24565b015160001960f88460031b161c19169055848080611200565b9091602060018192858501518155019301950194906111e4565b015190508480610aa8565b92600785016000526020600020906000945b601f19841686106112a557600194955083601f1981161061128c575b505050811b016007830155610ac0565b015160001960f88460031b161c1916905584808061127c565b909160206001819285850151815501930195019490611260565b015190508480610a43565b92600685016000526020600020906000945b601f198416861061132157600194955083601f19811610611308575b505050811b016006830155610a5b565b015160001960f88460031b161c191690558480806112f8565b9091602060018192858501518155019301950194906112dc565b0151905084806109de565b92600585016000526020600020906000945b601f198416861061139d57600194955083601f19811610611384575b505050811b0160058301556109f6565b015160001960f88460031b161c19169055848080611374565b909160206001819285850151815501930195019490611358565b015190508480610979565b92600485016000526020600020906000945b601f198416861061141957600194955083601f19811610611400575b505050811b016004830155610991565b015160001960f88460031b161c191690558480806113f0565b9091602060018192858501518155019301950194906113d4565b015190508480610914565b92600385016000526020600020906000945b601f198416861061149557600194955083601f1981161061147c575b505050811b01600383015561092c565b015160001960f88460031b161c1916905584808061146c565b909160206001819285850151815501930195019490611450565b0151905084806108af565b92600285016000526020600020906000945b601f198416861061151157600194955083601f198116106114f8575b505050811b0160028301556108c7565b015160001960f88460031b161c191690558480806114e8565b9091602060018192858501518155019301950194906114cc565b01519050848061084a565b92600185016000526020600020906000945b601f198416861061158d57600194955083601f19811610611574575b505050811b016001830155610862565b015160001960f88460031b161c19169055848080611564565b909160206001819285850151815501930195019490611548565b0151905084806107e8565b92846000526020600020906000945b601f198416861061160357600194955083601f198116106115ea575b505050811b0182556107fd565b015160001960f88460031b161c191690558480806115dd565b9091602060018192858501518155019301950194906115c1565b60405162461bcd60e51b815260206004820152602c60248201527f50726f6475637420616c72656164792065786973747320666f7220746869732060448201526b36b0b73ab330b1ba3ab932b960a11b6064820152608490fd5b61168082612063565b61168c61024051612063565b907f18db121024f7d458bf791e0bd10ef3c4172203c9f0a9179a3700330d364cb62c6020604051604435600401358152a3005b60405162461bcd60e51b815260206004820152600b60248201526a08adae0e8f240c4c2e8c6d60ab1b6044820152606490fd5b346101ae576020806003193601126101ae576004356001600160401b0381116101ae57816101e8611727923690600401611ed1565b82019081520301902061173c81541515612083565b60005b81548110156102dd576117879033600052600180855260406000209060ff6117678487612035565b50611775600f948592612142565b015460101c161561178c575050611f37565b61173f565b3360005285526117a460406000206102838487612035565b01805462ff00001916620100001790556117c16102a18285612035565b0390207f4e4003378fe790a19a351b9848e06179b5d6e7a3262a28cfc05f8bacba35857a600080a2848061025e565b346101ae5760203660031901126101ae576004356001600160401b0381116101ae5760206118256118d7923690600401611ed1565b600061024060405161183681611e4e565b606081526060858201526060604082015260608082015260606080820152606060a0820152606060c0820152606060e082015260606101008201526060610120820152606061014082015260606101608201526060610180820152826101a082015260606101c0820152826101e082015282610200820152826102208201520152336000526001825260406000208260405194838680955193849201611eef565b82019081520301902060ff600f604051926118f184611e4e565b6118fa8161219c565b84526119086001820161219c565b60208501526119196002820161219c565b604085015261192a6003820161219c565b606085015261193b6004820161219c565b608085015261194c6005820161219c565b60a085015261195d6006820161219c565b60c085015261196e6007820161219c565b60e085015261197f6008820161219c565b6101008501526119916009820161219c565b6101208501526119a3600a820161219c565b6101408501526119b5600b820161219c565b6101608501526119c7600c820161219c565b610180850152600d8101546101a08501526119e4600e820161219c565b6101c0850152015481811615156101e0840152818160081c161515610200840152818160101c16151561022084015260181c161515610240820152604051809160208252610240611ba3611b7f611b67611b4f611b37611b1f611b07611af0611ada611ac48b8d6080611aaf611a9a611a84611a6e86516102606020880152610280870190611f12565b6020870151868203601f19016040880152611f12565b6040860151858203601f19016060870152611f12565b6060850151848203601f190184860152611f12565b9201519060a0601f1982850301910152611f12565b60a08c01518d8203601f190160c08f0152611f12565b60c08b01518c8203601f190160e08e0152611f12565b60e08a01518b8203601f19016101008d0152611f12565b6101008901518a8203601f19016101208c0152611f12565b610120880151898203601f19016101408b0152611f12565b610140870151888203601f19016101608a0152611f12565b610160860151878203601f1901610180890152611f12565b610180850151868203601f19016101a0880152611f12565b6101a08401516101c08601526101c0840151601f19868303016101e0870152611f12565b916101e081015115156102008501526102008101511515610220850152610220810151151582850152015115156102608301520390f35b346101ae576020806003193601126101ae576004356001600160401b0381116101ae57816101e8611c0f923690600401611ed1565b820190815203019020611c2481541515612083565b60005b81548110156102dd57611c6f9033600052600180855260406000209060ff611c4f8487612035565b50611c5d600f948592612142565b015460081c1615611c74575050611f37565b611c27565b336000528552611c8c60406000206102838487612035565b01805461ff001916610100179055611ca76102a18285612035565b0390207f9bb3d92ff53ce504ee358d5ff79f13221b4836773184e8ec3e9e299f7d032aee600080a2848061025e565b346101ae576020806003193601126101ae576001600160401b036004358181116101ae57826101e8611d0c923690600401611ed1565b8201908152030190208054918211610f3057829060405192611d33838260051b0185611e6a565b8084528284018092600052836000206000915b838310611dad5750505050604051918083019381845251809452604083019360408160051b85010192916000955b828710611d815785850386f35b909192938280611d9d600193603f198a82030186528851611f12565b9601920196019592919092611d74565b6001868192611dbe859a999a61219c565b815201920192019190959495611d46565b346101ae576020806003193601126101ae57600435906001600160401b0382116101ae57600f611e09610319611e27943690600401611ed1565b82019081520301902001805462ff0000191662010000179055612063565b7f4e4003378fe790a19a351b9848e06179b5d6e7a3262a28cfc05f8bacba35857a600080a2005b61026081019081106001600160401b03821117610f3057604052565b90601f801991011681019081106001600160401b03821117610f3057604052565b9291926001600160401b038211610f305760405191611eb4601f8201601f191660200184611e6a565b8294818452818301116101ae578281602093846000960137010152565b9080601f830112156101ae57816020611eec93359101611e8b565b90565b60005b838110611f025750506000910152565b8181015183820152602001611ef2565b90602091611f2b81518092818552858086019101611eef565b601f01601f1916010190565b6000198114611f465760010190565b634e487b7160e01b600052601160045260246000fd5b903590601e19813603018212156101ae57018035906001600160401b0382116101ae576020019181360383136101ae57565b6020919283604051948593843782019081520301902090565b90600182811c92168015611fd7575b6020831014611fc157565b634e487b7160e01b600052602260045260246000fd5b91607f1691611fb6565b90601f8111611fef57505050565b600091825260208220906020601f850160051c8301941061202b575b601f0160051c01915b82811061202057505050565b818155600101612014565b909250829061200b565b805482101561204d5760005260206000200190600090565b634e487b7160e01b600052603260045260246000fd5b61207b90602060405192828480945193849201611eef565b810103902090565b1561208a57565b60405162461bcd60e51b815260206004820152600d60248201526c109bde081b9bdd08199bdd5b99609a1b6044820152606490fd5b6000929181546120ce81611fa7565b9260019180831690811561212757506001146120eb575b50505050565b90919293945060005260209081600020906000915b85831061211657505050500190388080806120e5565b805485840152918301918101612100565b60ff19168452505050811515909102019150388080806120e5565b60209061215592604051938480936120bf565b9081520301902090565b1561216657565b60405162461bcd60e51b815260206004820152600e60248201526d139bdd081c9959da5cdd195c995960921b6044820152606490fd5b90604051918260008254926121b084611fa7565b90818452600194858116908160001461221f57506001146121dc575b50506121da92500383611e6a565b565b9093915060005260209081600020936000915b8183106122075750506121da935082010138806121cc565b855488840185015294850194879450918301916121ef565b9150506121da94506020925060ff191682840152151560051b82010138806121cc56fea264697066735822122070832294479962ceb61d4c3a03338cc2c60ddd704ffc69c95ec6b2afbaaca4ad64736f6c63430008140033",
  "linkReferences": {},
  "deployedLinkReferences": {}
}