{
  "_format": "hh-sol-artifact-1",
  "contractName": "TrustChain",
  "sourceName": "contracts/TrustChain.sol",
  "abi": [
    {
      "inputs": [],
      "stateMutability": "nonpayable",
      "type": "constructor"
    },
    {
      "anonymous": false,
      "inputs": [
        {
          "indexed": true,
          "internalType": "string",
          "name": "batchNumber",
          "type": "string"
        },
        {
          "indexed": true,
          "internalType": "string",
          "name": "boxId",
          "type": "string"
        },
        {
          "indexed": false,
          "internalType": "uint256",
          "name": "productCount",
          "type": "uint256"
        }
      ],
      "name": "BatchRegistered",
      "type": "event"
    },
    {
      "anonymous": false,
      "inputs": [
        {
          "indexed": true,
          "internalType": "string",
          "name": "productId",
          "type": "string"
        },
        {
          "indexed": true,
          "internalType": "string",
          "name": "boxId",
          "type": "string"
        }
      ],
      "name": "ProductRegistered",
      "type": "event"
    },
    {
      "anonymous": false,
      "inputs": [
        {
          "indexed": true,
          "internalType": "string",
          "name": "productId",
          "type": "string"
        }
      ],
      "name": "ProductShipped",
      "type": "event"
    },
    {
      "anonymous": false,
      "inputs": [
        {
          "indexed": true,
          "internalType": "string",
          "name": "productId",
          "type": "string"
        }
      ],
      "name": "ProductSold",
      "type": "event"
    },
    {
      "anonymous": false,
      "inputs": [
        {
          "indexed": true,
          "internalType": "string",
          "name": "productId",
          "type": "string"
        }
      ],
      "name": "ProductSystemVerified",
      "type": "event"
    },
    {
      "anonymous": false,
      "inputs": [
        {
          "indexed": true,
          "internalType": "string",
          "name": "productId",
          "type": "string"
        }
      ],
      "name": "ProductVerified",
      "type": "event"
    },
    {
      "inputs": [
        {
          "internalType": "string",
          "name": "productId",
          "type": "string"
        }
      ],
      "name": "getProduct",
      "outputs": [
        {
          "components": [
            {
              "internalType": "string",
              "name": "productId",
              "type": "string"
            },
            {
              "internalType": "string",
              "name": "boxId",
              "type": "string"
            },
            {
              "internalType": "string",
              "name": "name",
              "type": "string"
            },
            {
              "internalType": "string",
              "name": "category",
              "type": "string"
            },
            {
              "internalType": "string",
              "name": "manufacturer",
              "type": "string"
            },
            {
              "internalType": "string",
              "name": "manufacturerDate",
              "type": "string"
            },
            {
              "internalType": "string",
              "name": "manufacturePlace",
              "type": "string"
            },
            {
              "internalType": "string",
              "name": "modelNumber",
              "type": "string"
            },
            {
              "internalType": "string",
              "name": "serialNumber",
              "type": "string"
            },
            {
              "internalType": "string",
              "name": "warrantyPeriod",
              "type": "string"
            },
            {
              "internalType": "string",
              "name": "batchNumber",
              "type": "string"
            },
            {
              "internalType": "string",
              "name": "color",
              "type": "string"
            },
            {
              "internalType": "string",
              "name": "specs",
              "type": "string"
            },
            {
              "internalType": "uint256",
              "name": "price",
              "type": "uint256"
            },
            {
              "internalType": "string",
              "name": "image",
              "type": "string"
            },
            {
              "internalType": "bool",
              "name": "shipped",
              "type": "bool"
            },
            {
              "internalType": "bool",
              "name": "verifiedByRetailer",
              "type": "bool"
            },
            {
              "internalType": "bool",
              "name": "sold",
              "type": "bool"
            },
            {
              "internalType": "bool",
              "name": "verifiedBySystem",
              "type": "bool"
            }
          ],
          "internalType": "struct TrustChain.Product",
          "name": "",
          "type": "tuple"
        }
      ],
      "stateMutability": "view",
      "type": "function"
    },
    {
      "inputs": [
        {
          "internalType": "string",
          "name": "boxId",
          "type": "string"
        }
      ],
      "name": "getProductsByBox",
      "outputs": [
        {
          "internalType": "string[]",
          "name": "",
          "type": "string[]"
        }
      ],
      "stateMutability": "view",
      "type": "function"
    },
    {
      "inputs": [],
      "name": "owner",
      "outputs": [
        {
          "internalType": "address",
          "name": "",
          "type": "address"
        }
      ],
      "stateMutability": "view",
      "type": "function"
    },
    {
      "inputs": [
        {
          "internalType": "string",
          "name": "batchNumber",
          "type": "string"
        },
        {
          "internalType": "string",
          "name": "boxId",
          "type": "string"
        },
        {
          "components": [
            {
              "internalType": "string",
              "name": "productId",
              "type": "string"
            },
            {
              "internalType": "string",
              "name": "boxId",
              "type": "string"
            },
            {
              "internalType": "string",
              "name": "name",
              "type": "string"
            },
            {
              "internalType": "string",
              "name": "category",
              "type": "string"
            },
            {
              "internalType": "string",
              "name": "manufacturer",
              "type": "string"
            },
            {
              "internalType": "string",
              "name": "manufacturerDate",
              "type": "string"
            },
            {
              "internalType": "string",
              "name": "manufacturePlace",
              "type": "string"
            },
            {
              "internalType": "string",
              "name": "modelNumber",
              "type": "string"
            },
            {
              "internalType": "string",
              "name": "serialNumber",
              "type": "string"
            },
            {
              "internalType": "string",
              "name": "warrantyPeriod",
              "type": "string"
            },
            {
              "internalType": "string",
              "name": "batchNumber",
              "type": "string"
            },
            {
              "internalType": "string",
              "name": "color",
              "type": "string"
            },
            {
              "internalType": "string",
              "name": "specs",
              "type": "string"
            },
            {
              "internalType": "uint256",
              "name": "price",
              "type": "uint256"
            },
            {
              "internalType": "string",
              "name": "image",
              "type": "string"
            }
          ],
          "internalType": "struct TrustChain.ProductInput[]",
          "name": "items",
          "type": "tuple[]"
        }
      ],
      "name": "registerBatchProducts",
      "outputs": [],
      "stateMutability": "nonpayable",
      "type": "function"
    },
    {
      "inputs": [
        {
          "internalType": "string",
          "name": "productId",
          "type": "string"
        }
      ],
      "name": "saleComplete",
      "outputs": [],
      "stateMutability": "nonpayable",
      "type": "function"
    },
    {
      "inputs": [
        {
          "internalType": "string",
          "name": "_boxId",
          "type": "string"
        }
      ],
      "name": "shipBox",
      "outputs": [],
      "stateMutability": "nonpayable",
      "type": "function"
    },
    {
      "inputs": [
        {
          "internalType": "string",
          "name": "_boxId",
          "type": "string"
        }
      ],
      "name": "verifyBox",
      "outputs": [],
      "stateMutability": "nonpayable",
      "type": "function"
    },
    {
      "inputs": [
        {
          "internalType": "string",
          "name": "productId",
          "type": "string"
        }
      ],
      "name": "verifyBySystem",
      "outputs": [],
      "stateMutability": "nonpayable",
      "type": "function"
    },
    {
      "inputs": [
        {
          "internalType": "string",
          "name": "productId",
          "type": "string"
        }
      ],
      "name": "verifyProduct",
      "outputs": [],
      "stateMutability": "nonpayable",
      "type": "function"
    }
  ],
  "bytecode": "0x6080806040523461002857600080546001600160a01b0319163317905561214b908161002e8239f35b600080fdfe610260604052600436101561001357600080fd5b60003560e01c80631768850f14611ca2578063289496bb14611ba957806352671aef14611aad57806368111cce146116c357806385abadc2146103a55780638da5cb5b1461037c57806392efc453146102d4578063cfc9a8c9146101a85763d15bd3cb1461008057600080fd5b346101a3576020806003193601126101a3576004356001600160401b0381116101a3576100b1903690600401611da4565b6000546001600160a01b0316330361017157600f61012a61014a933360005260018152604060002061010c6101056040518481895195828b01966100f681848a611dc2565b82019081520301902054611e7a565b1515612032565b33600052600182526040600020604051809481938851928391611dc2565b82019081520301902001805463ff00000019166301000000179055611f36565b7f7d8a41247edd77a402ab86adc7161f72221dda94f4f8e55c05267db2f3723932600080a2005b60405162461bcd60e51b815260048101839052600a60248201526927b7363c9037bbb732b960b11b6044820152606490fd5b600080fd5b346101a3576020806003193601126101a3576004356001600160401b0381116101a357816101dd6101fd923690600401611da4565b336000526002825260406000208260405194838680955193849201611dc2565b82019081520301902061021281541515611f56565b60005b81548110156102d25761025a90336000526001808552604060002060ff61023c8487611f08565b5061024a600f938492612015565b0154161561025f575b5050611e0a565b610215565b3360005281865261027e60406000206102788588611f08565b50612015565b019060ff198254161790556102a36102968285611f08565b5060405191828092611f92565b0390207f9dbe2d347001eec4f99473edc6161746246c3bd920ebc7aec9ea509774a6a87c600080a28480610253565b005b346101a3576020806003193601126101a357600435906001600160401b0382116101a357600f61033961030e610355943690600401611da4565b923360005260018152604060002061010c6101056040518481895195828b01966100f681848a611dc2565b82019081520301902001805461ff001916610100179055611f36565b7f9bb3d92ff53ce504ee358d5ff79f13221b4836773184e8ec3e9e299f7d032aee600080a2005b346101a35760003660031901126101a3576000546040516001600160a01b039091168152602090f35b346101a35760603660031901126101a3576004356001600160401b0381116101a3576103d5903690600401611da4565b6024356001600160401b0381116101a3576103f4903690600401611da4565b610220526001600160401b03604435116101a3573660236044350112156101a3576001600160401b0360443560040135116101a3573660246044356004013560051b6044350101116101a357604435600401351561169057600060c0525b60c051604435600401358110156116485760249060051b604435010135610202196044353603018112156101a3576104ac6104b2913360005260016020526104a66024604060002092604435010180611e2f565b90611e61565b54611e7a565b6115ee5760c05160051b6044350160240135604435016024810160248201906104da91611e2f565b90610240526064820160248301906104f191611e2f565b60a052610160526105086084830160248401611e2f565b9061051960a4850160248601611e2f565b9061052a60c4870160248801611e2f565b909161053c60e4890160248a01611e2f565b9490956101048a0160248b019061055291611e2f565b9890996101248c0160248d019061056891611e2f565b9c906101c0526101448101602482019061058191611e2f565b610100526101405261059a610184820160248301611e2f565b610200526101e0526105b36101a4820160248301611e2f565b610120526101a0526105cd906101e4810190602401611e2f565b60e05261018052604051806080526105e490611d21565b3661024051916105f392611d5e565b6080515261022051608051602001523660a05190610160519161061592611d5e565b60805160400152369061062792611d5e565b60805160600152369061063992611d5e565b60805160800152369061064b92611d5e565b60805160a00152369061065d92611d5e565b60805160c00152369061066f92611d5e565b60805160e00152366101c0519161068592611d5e565b608051610100015236610100519061014051916106a192611d5e565b60805161012001528060805161014001523661020051906101e051916106c692611d5e565b6080516101600152610120516101a0516106e1913691611d5e565b608051610180015260c05160051b6044350160240135604435016101c401356080516101a001523660e05190610180519161071b92611d5e565b6080516101c001526080516101e00160009052608051610200016000905260805161022001600090526080516102400160009052336000526001602052604060002060c05160051b6044350160240135604435016024018061077c91611e2f565b6107869291611e61565b90608051519081516001600160401b038111610f01576107b0816107aa8654611e7a565b86611eb4565b602092601f82116001146115835792819293600092611578575b50508160011b916000199060031b1c19161782555b602060805101519081516001600160401b038111610f0157610811816108086001870154611e7a565b60018701611eb4565b602092601f821160011461150757928192936000926114fc575b50508160011b916000199060031b1c19161760018301555b604060805101519081516001600160401b038111610f01576108758161086c6002870154611e7a565b60028701611eb4565b602092601f821160011461148b5792819293600092611480575b50508160011b916000199060031b1c19161760028301555b606060805101519081516001600160401b038111610f01576108d9816108d06003870154611e7a565b60038701611eb4565b602092601f821160011461140f5792819293600092611404575b50508160011b916000199060031b1c19161760038301555b6080805101519081516001600160401b038111610f015761093c816109336004870154611e7a565b60048701611eb4565b602092601f82116001146113935792819293600092611388575b50508160011b916000199060031b1c19161760048301555b60a060805101519081516001600160401b038111610f01576109a0816109976005870154611e7a565b60058701611eb4565b602092601f8211600114611317579281929360009261130c575b50508160011b916000199060031b1c19161760058301555b60c060805101519081516001600160401b038111610f0157610a04816109fb6006870154611e7a565b60068701611eb4565b602092601f821160011461129b5792819293600092611290575b50508160011b916000199060031b1c19161760068301555b60e060805101519081516001600160401b038111610f0157610a6881610a5f6007870154611e7a565b60078701611eb4565b602092601f821160011461121f5792819293600092611214575b50508160011b916000199060031b1c19161760078301555b61010060805101519081516001600160401b038111610f0157610acd81610ac46008870154611e7a565b60088701611eb4565b602092601f82116001146111a35792819293600092611198575b50508160011b916000199060031b1c19161760088301555b61012060805101519081516001600160401b038111610f0157610b3281610b296009870154611e7a565b60098701611eb4565b602092601f8211600114611127579281929360009261111c575b50508160011b916000199060031b1c19161760098301555b61014060805101519081516001600160401b038111610f0157610b9781610b8e600a870154611e7a565b600a8701611eb4565b602092601f82116001146110ab57928192936000926110a0575b50508160011b916000199060031b1c191617600a8301555b61016060805101519081516001600160401b038111610f0157610bfc81610bf3600b870154611e7a565b600b8701611eb4565b602092601f821160011461102f5792819293600092611024575b50508160011b916000199060031b1c191617600b8301555b61018060805101519182516001600160401b038111610f0157610c6181610c58600c850154611e7a565b600c8501611eb4565b6020601f8211600114610fb65781929394600092610fab575b50508160011b916000199060031b1c191617600c8201555b6101c06080516101a0810151600d84015501518051906001600160401b038211610f0157610cd082610cc7600e860154611e7a565b600e8601611eb4565b602090601f8311600114610f3857600f93929160009183610f2d575b50508160011b916000199060031b1c191617600e8201555b016080516101e0810151151590825461ff00610200830151151560081b169060ff63ff00000061024062ff0000610220870151151560101b16950151151560181b1694169063ffffffff191617171717905533600052600260205260406000206020604051809282610d7f6102205184815193849201611dc2565b820190815203019020610da560248060c05160051b604435010135604435010180611e2f565b9091805468010000000000000000811015610f0157610dc991600182018155611f08565b929092610f17576001600160401b038211610f01578190610dee826107aa8654611e7a565b600090601f8311600114610e9957600092610e8e575b50508160011b916000199060031b1c19161790555b610e3660248060c05160051b604435010135604435010180611e2f565b90816040519283928337810160008152039020610e5561022051611f36565b907f05c683c8ef124ed98b107dcf80c644abc011626816b5b3a73e3f6d518c0cd778600080a3610e8660c051611e0a565b60c052610452565b013590508480610e04565b600085815260208120909450915b601f1984168510610ee9576001945083601f19811610610ecf575b505050811b019055610e19565b0135600019600384901b60f8161c19169055848080610ec2565b81810135835560209485019460019093019201610ea7565b634e487b7160e01b600052604160045260246000fd5b634e487b7160e01b600052600060045260246000fd5b015190508580610cec565b90600e840160005260206000209160005b601f1985168110610f935750918391600193600f9695601f19811610610f7a575b505050811b01600e820155610d04565b015160001960f88460031b161c19169055858080610f6a565b91926020600181928685015181550194019201610f49565b015190508480610c7a565b600c830160005260206000209060005b601f198416811061100c5750600193949583601f19811610610ff3575b505050811b01600c820155610c92565b015160001960f88460031b161c19169055848080610fe3565b9091602060018192858a015181550193019101610fc6565b015190508480610c16565b92600b85016000526020600020906000945b601f198416861061108657600194955083601f1981161061106d575b505050811b01600b830155610c2e565b015160001960f88460031b161c1916905584808061105d565b909160206001819285850151815501930195019490611041565b015190508480610bb1565b92600a85016000526020600020906000945b601f198416861061110257600194955083601f198116106110e9575b505050811b01600a830155610bc9565b015160001960f88460031b161c191690558480806110d9565b9091602060018192858501518155019301950194906110bd565b015190508480610b4c565b92600985016000526020600020906000945b601f198416861061117e57600194955083601f19811610611165575b505050811b016009830155610b64565b015160001960f88460031b161c19169055848080611155565b909160206001819285850151815501930195019490611139565b015190508480610ae7565b92600885016000526020600020906000945b601f19841686106111fa57600194955083601f198116106111e1575b505050811b016008830155610aff565b015160001960f88460031b161c191690558480806111d1565b9091602060018192858501518155019301950194906111b5565b015190508480610a82565b92600785016000526020600020906000945b601f198416861061127657600194955083601f1981161061125d575b505050811b016007830155610a9a565b015160001960f88460031b161c1916905584808061124d565b909160206001819285850151815501930195019490611231565b015190508480610a1e565b92600685016000526020600020906000945b601f19841686106112f257600194955083601f198116106112d9575b505050811b016006830155610a36565b015160001960f88460031b161c191690558480806112c9565b9091602060018192858501518155019301950194906112ad565b0151905084806109ba565b92600585016000526020600020906000945b601f198416861061136e57600194955083601f19811610611355575b505050811b0160058301556109d2565b015160001960f88460031b161c19169055848080611345565b909160206001819285850151815501930195019490611329565b015190508480610956565b92600485016000526020600020906000945b601f19841686106113ea57600194955083601f198116106113d1575b505050811b01600483015561096e565b015160001960f88460031b161c191690558480806113c1565b9091602060018192858501518155019301950194906113a5565b0151905084806108f3565b92600385016000526020600020906000945b601f198416861061146657600194955083601f1981161061144d575b505050811b01600383015561090b565b015160001960f88460031b161c1916905584808061143d565b909160206001819285850151815501930195019490611421565b01519050848061088f565b92600285016000526020600020906000945b601f19841686106114e257600194955083601f198116106114c9575b505050811b0160028301556108a7565b015160001960f88460031b161c191690558480806114b9565b90916020600181928585015181550193019501949061149d565b01519050848061082b565b92600185016000526020600020906000945b601f198416861061155e57600194955083601f19811610611545575b505050811b016001830155610843565b015160001960f88460031b161c19169055848080611535565b909160206001819285850151815501930195019490611519565b0151905084806107ca565b92846000526020600020906000945b601f19841686106115d457600194955083601f198116106115bb575b505050811b0182556107df565b015160001960f88460031b161c191690558480806115ae565b909160206001819285850151815501930195019490611592565b60405162461bcd60e51b815260206004820152602c60248201527f50726f6475637420616c72656164792065786973747320666f7220746869732060448201526b36b0b73ab330b1ba3ab932b960a11b6064820152608490fd5b61165182611f36565b61165d61022051611f36565b907f18db121024f7d458bf791e0bd10ef3c4172203c9f0a9179a3700330d364cb62c6020604051604435600401358152a3005b60405162461bcd60e51b815260206004820152600b60248201526a08adae0e8f240c4c2e8c6d60ab1b6044820152606490fd5b346101a35760203660031901126101a3576004356001600160401b0381116101a35760206116f86117aa923690600401611da4565b600061024060405161170981611d21565b606081526060858201526060604082015260608082015260606080820152606060a0820152606060c0820152606060e082015260606101008201526060610120820152606061014082015260606101608201526060610180820152826101a082015260606101c0820152826101e082015282610200820152826102208201520152336000526001825260406000208260405194838680955193849201611dc2565b82019081520301902060ff600f604051926117c484611d21565b6117cd8161206f565b84526117db6001820161206f565b60208501526117ec6002820161206f565b60408501526117fd6003820161206f565b606085015261180e6004820161206f565b608085015261181f6005820161206f565b60a08501526118306006820161206f565b60c08501526118416007820161206f565b60e08501526118526008820161206f565b6101008501526118646009820161206f565b610120850152611876600a820161206f565b610140850152611888600b820161206f565b61016085015261189a600c820161206f565b610180850152600d8101546101a08501526118b7600e820161206f565b6101c0850152015481811615156101e0840152818160081c161515610200840152818160101c16151561022084015260181c161515610240820152604051809160208252610240611a76611a52611a3a611a22611a0a6119f26119da6119c36119ad6119978b8d608061198261196d61195761194186516102606020880152610280870190611de5565b6020870151868203601f19016040880152611de5565b6040860151858203601f19016060870152611de5565b6060850151848203601f190184860152611de5565b9201519060a0601f1982850301910152611de5565b60a08c01518d8203601f190160c08f0152611de5565b60c08b01518c8203601f190160e08e0152611de5565b60e08a01518b8203601f19016101008d0152611de5565b6101008901518a8203601f19016101208c0152611de5565b610120880151898203601f19016101408b0152611de5565b610140870151888203601f19016101608a0152611de5565b610160860151878203601f1901610180890152611de5565b610180850151868203601f19016101a0880152611de5565b6101a08401516101c08601526101c0840151601f19868303016101e0870152611de5565b916101e081015115156102008501526102008101511515610220850152610220810151151582850152015115156102608301520390f35b346101a3576020806003193601126101a3576004356001600160401b0381116101a357816101dd611ae2923690600401611da4565b820190815203019020611af781541515611f56565b60005b81548110156102d257611b429033600052600180855260406000209060ff611b228487611f08565b50611b30600f948592612015565b015460081c1615611b47575050611e0a565b611afa565b336000528552611b5f60406000206102788487611f08565b01805461ff001916610100179055611b7a6102968285611f08565b0390207f9bb3d92ff53ce504ee358d5ff79f13221b4836773184e8ec3e9e299f7d032aee600080a28480610253565b346101a3576020806003193601126101a3576001600160401b036004358181116101a357826101dd611bdf923690600401611da4565b8201908152030190208054918211610f0157829060405192611c06838260051b0185611d3d565b8084528284018092600052836000206000915b838310611c805750505050604051918083019381845251809452604083019360408160051b85010192916000955b828710611c545785850386f35b909192938280611c70600193603f198a82030186528851611de5565b9601920196019592919092611c47565b6001868192611c91859a999a61206f565b815201920192019190959495611c19565b346101a3576020806003193601126101a357600435906001600160401b0382116101a357600f611cdc61030e611cfa943690600401611da4565b82019081520301902001805462ff0000191662010000179055611f36565b7f4e4003378fe790a19a351b9848e06179b5d6e7a3262a28cfc05f8bacba35857a600080a2005b61026081019081106001600160401b03821117610f0157604052565b90601f801991011681019081106001600160401b03821117610f0157604052565b9291926001600160401b038211610f015760405191611d87601f8201601f191660200184611d3d565b8294818452818301116101a3578281602093846000960137010152565b9080601f830112156101a357816020611dbf93359101611d5e565b90565b60005b838110611dd55750506000910152565b8181015183820152602001611dc5565b90602091611dfe81518092818552858086019101611dc2565b601f01601f1916010190565b6000198114611e195760010190565b634e487b7160e01b600052601160045260246000fd5b903590601e19813603018212156101a357018035906001600160401b0382116101a3576020019181360383136101a357565b6020919283604051948593843782019081520301902090565b90600182811c92168015611eaa575b6020831014611e9457565b634e487b7160e01b600052602260045260246000fd5b91607f1691611e89565b90601f8111611ec257505050565b600091825260208220906020601f850160051c83019410611efe575b601f0160051c01915b828110611ef357505050565b818155600101611ee7565b9092508290611ede565b8054821015611f205760005260206000200190600090565b634e487b7160e01b600052603260045260246000fd5b611f4e90602060405192828480945193849201611dc2565b810103902090565b15611f5d57565b60405162461bcd60e51b815260206004820152600d60248201526c109bde081b9bdd08199bdd5b99609a1b6044820152606490fd5b600092918154611fa181611e7a565b92600191808316908115611ffa5750600114611fbe575b50505050565b90919293945060005260209081600020906000915b858310611fe95750505050019038808080611fb8565b805485840152918301918101611fd3565b60ff1916845250505081151590910201915038808080611fb8565b6020906120289260405193848093611f92565b9081520301902090565b1561203957565b60405162461bcd60e51b815260206004820152600e60248201526d139bdd081c9959da5cdd195c995960921b6044820152606490fd5b906040519182600082549261208384611e7a565b9081845260019485811690816000146120f257506001146120af575b50506120ad92500383611d3d565b565b9093915060005260209081600020936000915b8183106120da5750506120ad9350820101388061209f565b855488840185015294850194879450918301916120c2565b9150506120ad94506020925060ff191682840152151560051b820101388061209f56fea2646970667358221220f2087019813e2617cdabf21fd6efc86d79af93227b0c1416683be34ae41f04ed64736f6c63430008140033",
  "linkReferences": {},
  "deployedLinkReferences": {}
}