{
  "_format": "hh-sol-artifact-1",
  "contractName": "TrustChain",
  "sourceName": "contracts/TrustChain.sol",
  "abi": [
    {
      "inputs": [],
      "stateMutability": "nonpayable",
      "type": "constructor"
    },
    {
      "anonymous": false,
      "inputs": [
        {
          "indexed": true,
          "internalType": "string",
          "name": "batchNumber",
          "type": "string"
        },
        {
          "indexed": true,
          "internalType": "string",
          "name": "boxId",
          "type": "string"
        },
        {
          "indexed": false,
          "internalType": "uint256",
          "name": "productCount",
          "type": "uint256"
        }
      ],
      "name": "BatchRegistered",
      "type": "event"
    },
    {
      "anonymous": false,
      "inputs": [
        {
          "indexed": true,
          "internalType": "string",
          "name": "productId",
          "type": "string"
        },
        {
          "indexed": true,
          "internalType": "string",
          "name": "boxId",
          "type": "string"
        }
      ],
      "name": "ProductRegistered",
      "type": "event"
    },
    {
      "anonymous": false,
      "inputs": [
        {
          "indexed": true,
          "internalType": "string",
          "name": "productId",
          "type": "string"
        }
      ],
      "name": "ProductShipped",
      "type": "event"
    },
    {
      "anonymous": false,
      "inputs": [
        {
          "indexed": true,
          "internalType": "string",
          "name": "productId",
          "type": "string"
        }
      ],
      "name": "ProductSold",
      "type": "event"
    },
    {
      "anonymous": false,
      "inputs": [
        {
          "indexed": true,
          "internalType": "string",
          "name": "productId",
          "type": "string"
        }
      ],
      "name": "ProductSystemVerified",
      "type": "event"
    },
    {
      "anonymous": false,
      "inputs": [
        {
          "indexed": true,
          "internalType": "string",
          "name": "productId",
          "type": "string"
        }
      ],
      "name": "ProductVerified",
      "type": "event"
    },
    {
      "inputs": [
        {
          "internalType": "string",
          "name": "productId",
          "type": "string"
        }
      ],
      "name": "getProduct",
      "outputs": [
        {
          "components": [
            {
              "internalType": "string",
              "name": "productId",
              "type": "string"
            },
            {
              "internalType": "string",
              "name": "boxId",
              "type": "string"
            },
            {
              "internalType": "string",
              "name": "name",
              "type": "string"
            },
            {
              "internalType": "string",
              "name": "category",
              "type": "string"
            },
            {
              "internalType": "string",
              "name": "manufacturer",
              "type": "string"
            },
            {
              "internalType": "string",
              "name": "manufacturerDate",
              "type": "string"
            },
            {
              "internalType": "string",
              "name": "manufacturePlace",
              "type": "string"
            },
            {
              "internalType": "string",
              "name": "modelNumber",
              "type": "string"
            },
            {
              "internalType": "string",
              "name": "serialNumber",
              "type": "string"
            },
            {
              "internalType": "string",
              "name": "warrantyPeriod",
              "type": "string"
            },
            {
              "internalType": "string",
              "name": "batchNumber",
              "type": "string"
            },
            {
              "internalType": "string",
              "name": "color",
              "type": "string"
            },
            {
              "internalType": "string",
              "name": "specs",
              "type": "string"
            },
            {
              "internalType": "uint256",
              "name": "price",
              "type": "uint256"
            },
            {
              "internalType": "string",
              "name": "image",
              "type": "string"
            },
            {
              "internalType": "bool",
              "name": "shipped",
              "type": "bool"
            },
            {
              "internalType": "bool",
              "name": "verifiedByRetailer",
              "type": "bool"
            },
            {
              "internalType": "bool",
              "name": "sold",
              "type": "bool"
            },
            {
              "internalType": "bool",
              "name": "verifiedBySystem",
              "type": "bool"
            }
          ],
          "internalType": "struct TrustChain.Product",
          "name": "",
          "type": "tuple"
        }
      ],
      "stateMutability": "view",
      "type": "function"
    },
    {
      "inputs": [
        {
          "internalType": "string",
          "name": "boxId",
          "type": "string"
        }
      ],
      "name": "getProductsByBox",
      "outputs": [
        {
          "internalType": "string[]",
          "name": "",
          "type": "string[]"
        }
      ],
      "stateMutability": "view",
      "type": "function"
    },
    {
      "inputs": [],
      "name": "owner",
      "outputs": [
        {
          "internalType": "address",
          "name": "",
          "type": "address"
        }
      ],
      "stateMutability": "view",
      "type": "function"
    },
    {
      "inputs": [
        {
          "internalType": "string",
          "name": "batchNumber",
          "type": "string"
        },
        {
          "internalType": "string",
          "name": "boxId",
          "type": "string"
        },
        {
          "components": [
            {
              "internalType": "string",
              "name": "productId",
              "type": "string"
            },
            {
              "internalType": "string",
              "name": "boxId",
              "type": "string"
            },
            {
              "internalType": "string",
              "name": "name",
              "type": "string"
            },
            {
              "internalType": "string",
              "name": "category",
              "type": "string"
            },
            {
              "internalType": "string",
              "name": "manufacturer",
              "type": "string"
            },
            {
              "internalType": "string",
              "name": "manufacturerDate",
              "type": "string"
            },
            {
              "internalType": "string",
              "name": "manufacturePlace",
              "type": "string"
            },
            {
              "internalType": "string",
              "name": "modelNumber",
              "type": "string"
            },
            {
              "internalType": "string",
              "name": "serialNumber",
              "type": "string"
            },
            {
              "internalType": "string",
              "name": "warrantyPeriod",
              "type": "string"
            },
            {
              "internalType": "string",
              "name": "batchNumber",
              "type": "string"
            },
            {
              "internalType": "string",
              "name": "color",
              "type": "string"
            },
            {
              "internalType": "string",
              "name": "specs",
              "type": "string"
            },
            {
              "internalType": "uint256",
              "name": "price",
              "type": "uint256"
            },
            {
              "internalType": "string",
              "name": "image",
              "type": "string"
            }
          ],
          "internalType": "struct TrustChain.ProductInput[]",
          "name": "items",
          "type": "tuple[]"
        }
      ],
      "name": "registerBatchProducts",
      "outputs": [],
      "stateMutability": "nonpayable",
      "type": "function"
    },
    {
      "inputs": [
        {
          "internalType": "string",
          "name": "productId",
          "type": "string"
        }
      ],
      "name": "saleComplete",
      "outputs": [],
      "stateMutability": "nonpayable",
      "type": "function"
    },
    {
      "inputs": [
        {
          "internalType": "string",
          "name": "_boxId",
          "type": "string"
        }
      ],
      "name": "shipBox",
      "outputs": [],
      "stateMutability": "nonpayable",
      "type": "function"
    },
    {
      "inputs": [
        {
          "internalType": "string",
          "name": "_boxId",
          "type": "string"
        }
      ],
      "name": "verifyBox",
      "outputs": [],
      "stateMutability": "nonpayable",
      "type": "function"
    },
    {
      "inputs": [
        {
          "internalType": "string",
          "name": "productId",
          "type": "string"
        }
      ],
      "name": "verifyBySystem",
      "outputs": [],
      "stateMutability": "nonpayable",
      "type": "function"
    }
  ],
  "bytecode": "0x6080806040523461002857600080546001600160a01b03191633179055611fe2908161002e8239f35b600080fdfe610260604052600436101561001357600080fd5b60003560e01c80631768850f14611bc8578063289496bb14611ace57806352671aef146119a857806368111cce146115ca57806385abadc2146103085780638da5cb5b146102df578063cfc9a8c9146101865763d15bd3cb1461007557600080fd5b34610181576020366003190112610181576004356001600160401b038111610181576100a5903690600401611ce8565b6000546001600160a01b0316330361014f5761012890600f61010760206040516100f66100ef8651928481818a01956100df818389611d06565b8101600181520301902054611da5565b1515611f6f565b604051809381928751928391611d06565b8101600181520301902001630100000063ff00000019825416179055611e59565b7f7d8a41247edd77a402ab86adc7161f72221dda94f4f8e55c05267db2f3723932600080a2005b60405162461bcd60e51b815260206004820152600a60248201526927b7363c9037bbb732b960b11b6044820152606490fd5b600080fd5b3461018157602080600319360112610181576001600160401b0360043581811161018157826101bc6101cf923690600401611ce8565b8160405193828580945193849201611d06565b8101600281520301902080549182116102c957604051926101f5818460051b0185611c81565b82845260009182528082208185015b8484106102ad578561021881511515611f1f565b60005b81518110156102ab5761024f90600f60ff8161024061023a8588611f5b565b51611e33565b01541615610254575b50611d4e565b61021b565b61026161023a8386611f5b565b01805460ff1916600117905561028061027a8285611f5b565b51611e59565b7f9dbe2d347001eec4f99473edc6161746246c3bd920ebc7aec9ea509774a6a87c600080a283610249565b005b60018381926102bb85611e79565b815201920193019290610204565b634e487b7160e01b600052604160045260246000fd5b34610181576000366003190112610181576000546040516001600160a01b039091168152602090f35b34610181576060366003190112610181576004356001600160401b03811161018157610338903690600401611ce8565b6024356001600160401b03811161018157610357903690600401611ce8565b610240526001600160401b036044351161018157366023604435011215610181576001600160401b036044356004013511610181573660246044356004013560051b604435010111610181576044356004013515611597576000905b604435600401358210610408576103c990611e59565b6103d561024051611e59565b907f18db121024f7d458bf791e0bd10ef3c4172203c9f0a9179a3700330d364cb62c6020604051604435600401358152a3005b60248260051b6044350101358060e0526102021960443536030181121561018157602061043f602461045a93604435010180611d73565b91908260405193849283378101600181520301902054611da5565b6115595760e051604435016104726024820180611d73565b9060805260648201602483019061048891611d73565b6101a052610220526104a06084830160248401611d73565b906104b160a4850160248601611d73565b906104c260c4870160248801611d73565b90916104d460e4890160248a01611d73565b9490956101048a0160248b01906104ea91611d73565b9890996101248c0160248d019061050091611d73565b9c9060a0526101448101602482019061051891611d73565b610200526101e052610531610184820160248301611d73565b610160526101805261054a6101a4820160248301611d73565b6101c05261010052610564906101e4810190602401611d73565b6101205260c052604051806101405261057c90611c65565b366080519161058a92611ca2565b6101405152610240516101405160200152366101a0519061022051916105af92611ca2565b610140516040015236906105c292611ca2565b610140516060015236906105d592611ca2565b610140516080015236906105e892611ca2565b6101405160a0015236906105fb92611ca2565b6101405160c00152369061060e92611ca2565b6101405160e001523660a0519161062492611ca2565b610140516101000152610200516101e051610640913691611ca2565b61014051610120015280610140516101400152366101605190610180519161066792611ca2565b6101405161016001526101c05161010051610683913691611ca2565b61014051610180015260e051604435016101c40135610140516101a0015236610120519060c051916106b492611ca2565b610140516101c00152610140516101e0016000905261014051610200016000905261014051610220016000905261014051610240016000905260e051604435016024018061070191611d73565b908160405192839283378101600181520360200190209161014051518051906001600160401b0382116102c95781906107448261073e8854611da5565b88611ddf565b602090601f83116001146114ed576000926114e2575b50508160011b916000199060031b1c19161783555b60206101405101518051906001600160401b0382116102c95781906107a48261079b6001890154611da5565b60018901611ddf565b602090601f831160011461147057600092611465575b50508160011b916000199060031b1c19161760018401555b60406101405101518051906001600160401b0382116102c9578190610807826107fe6002890154611da5565b60028901611ddf565b602090601f83116001146113f3576000926113e8575b50508160011b916000199060031b1c19161760028401555b60606101405101518051906001600160401b0382116102c957819061086a826108616003890154611da5565b60038901611ddf565b602090601f83116001146113765760009261136b575b50508160011b916000199060031b1c19161760038401555b60806101405101518051906001600160401b0382116102c95781906108cd826108c46004890154611da5565b60048901611ddf565b602090601f83116001146112f9576000926112ee575b50508160011b916000199060031b1c19161760048401555b60a06101405101518051906001600160401b0382116102c9578190610930826109276005890154611da5565b60058901611ddf565b602090601f831160011461127c57600092611271575b50508160011b916000199060031b1c19161760058401555b60c06101405101518051906001600160401b0382116102c95781906109938261098a6006890154611da5565b60068901611ddf565b602090601f83116001146111ff576000926111f4575b50508160011b916000199060031b1c19161760068401555b60e06101405101518051906001600160401b0382116102c95781906109f6826109ed6007890154611da5565b60078901611ddf565b602090601f831160011461118257600092611177575b50508160011b916000199060031b1c19161760078401555b6101006101405101518051906001600160401b0382116102c9578190610a5a82610a516008890154611da5565b60088901611ddf565b602090601f8311600114611105576000926110fa575b50508160011b916000199060031b1c19161760088401555b6101206101405101518051906001600160401b0382116102c9578190610abe82610ab56009890154611da5565b60098901611ddf565b602090601f83116001146110885760009261107d575b50508160011b916000199060031b1c19161760098401555b610140805101518051906001600160401b0382116102c9578190610b2082610b17600a890154611da5565b600a8901611ddf565b602090601f831160011461100b57600092611000575b50508160011b916000199060031b1c191617600a8401555b6101606101405101519283516001600160401b0381116102c957610b8281610b79600b850154611da5565b600b8501611ddf565b6020601f8211600114610f91578192939495600092610f86575b50508160011b916000199060031b1c191617600b8201555b6101806101405101518051906001600160401b0382116102c9578190610bea82610be1600c870154611da5565b600c8701611ddf565b602090601f8311600114610f1457600092610f09575b50508160011b916000199060031b1c191617600c8201555b6101c0610140516101a0810151600d84015501518051906001600160401b0382116102c957610c5782610c4e600e860154611da5565b600e8601611ddf565b602090601f8311600114610e9657600f93929160009183610e8b575b50508160011b916000199060031b1c191617600e8201555b01610140516101e0810151151590825461ff00610200830151151560081b169060ff63ff00000061024062ff0000610220870151151560101b16950151151560181b1694169063ffffffff191617171717905560405160208181610cf86102405183815193849201611d06565b81016002815203019020610d15602460e051604435010180611d73565b9091805490680100000000000000008210156102c95760018201808255821015610e7557600052602060002001916001600160401b0382116102c957610d6582610d5f8554611da5565b85611ddf565b600090601f8311600114610e0657610df59493929160009183610dfb575b50508160011b916000199060031b1c19161790555b610dab602460e051604435010180611d73565b90816040519283928337810160008152039020610dca61024051611e59565b907f05c683c8ef124ed98b107dcf80c644abc011626816b5b3a73e3f6d518c0cd778600080a3611d4e565b906103b3565b013590508680610d83565b8360005260206000209160005b601f1985168110610e5d5750918391600193610df5979695601f19811610610e43575b505050811b019055610d98565b0135600019600384901b60f8161c19169055868080610e36565b90926020600181928686013581550194019101610e13565b634e487b7160e01b600052603260045260246000fd5b015190508680610c73565b90600e840160005260206000209160005b601f1985168110610ef15750918391600193600f9695601f19811610610ed8575b505050811b01600e820155610c8b565b015160001960f88460031b161c19169055868080610ec8565b91926020600181928685015181550194019201610ea7565b015190508580610c00565b9250600c84016000526020600020906000935b601f1984168510610f6b576001945083601f19811610610f52575b505050811b01600c820155610c18565b015160001960f88460031b161c19169055858080610f42565b81810151835560209485019460019093019290910190610f27565b015190508580610b9c565b600b830160005260206000209060005b601f1984168110610fe8575060019394959683601f19811610610fcf575b505050811b01600b820155610bb4565b015160001960f88460031b161c19169055858080610fbf565b9091602060018192858b015181550193019101610fa1565b015190508580610b36565b9250600a86016000526020600020906000935b601f1984168510611062576001945083601f19811610611049575b505050811b01600a840155610b4e565b015160001960f88460031b161c19169055858080611039565b8181015183556020948501946001909301929091019061101e565b015190508580610ad4565b9250600986016000526020600020906000935b601f19841685106110df576001945083601f198116106110c6575b505050811b016009840155610aec565b015160001960f88460031b161c191690558580806110b6565b8181015183556020948501946001909301929091019061109b565b015190508580610a70565b9250600886016000526020600020906000935b601f198416851061115c576001945083601f19811610611143575b505050811b016008840155610a88565b015160001960f88460031b161c19169055858080611133565b81810151835560209485019460019093019290910190611118565b015190508580610a0c565b9250600786016000526020600020906000935b601f19841685106111d9576001945083601f198116106111c0575b505050811b016007840155610a24565b015160001960f88460031b161c191690558580806111b0565b81810151835560209485019460019093019290910190611195565b0151905085806109a9565b9250600686016000526020600020906000935b601f1984168510611256576001945083601f1981161061123d575b505050811b0160068401556109c1565b015160001960f88460031b161c1916905585808061122d565b81810151835560209485019460019093019290910190611212565b015190508580610946565b9250600586016000526020600020906000935b601f19841685106112d3576001945083601f198116106112ba575b505050811b01600584015561095e565b015160001960f88460031b161c191690558580806112aa565b8181015183556020948501946001909301929091019061128f565b0151905085806108e3565b9250600486016000526020600020906000935b601f1984168510611350576001945083601f19811610611337575b505050811b0160048401556108fb565b015160001960f88460031b161c19169055858080611327565b8181015183556020948501946001909301929091019061130c565b015190508580610880565b9250600386016000526020600020906000935b601f19841685106113cd576001945083601f198116106113b4575b505050811b016003840155610898565b015160001960f88460031b161c191690558580806113a4565b81810151835560209485019460019093019290910190611389565b01519050858061081d565b9250600286016000526020600020906000935b601f198416851061144a576001945083601f19811610611431575b505050811b016002840155610835565b015160001960f88460031b161c19169055858080611421565b81810151835560209485019460019093019290910190611406565b0151905085806107ba565b9250600186016000526020600020906000935b601f19841685106114c7576001945083601f198116106114ae575b505050811b0160018401556107d2565b015160001960f88460031b161c1916905585808061149e565b81810151835560209485019460019093019290910190611483565b01519050858061075a565b9250856000526020600020906000935b601f198416851061153e576001945083601f19811610611525575b505050811b01835561076f565b015160001960f88460031b161c19169055858080611518565b818101518355602094850194600190930192909101906114fd565b60405162461bcd60e51b815260206004820152601660248201527550726f6475637420616c72656164792065786973747360501b6044820152606490fd5b60405162461bcd60e51b815260206004820152600b60248201526a08adae0e8f240c4c2e8c6d60ab1b6044820152606490fd5b34610181576020366003190112610181576004356001600160401b0381116101815760206115ff6116a4923690600401611ce8565b600061024060405161161081611c65565b606081526060858201526060604082015260608082015260606080820152606060a0820152606060c0820152606060e082015260606101008201526060610120820152606061014082015260606101608201526060610180820152826101a082015260606101c0820152826101e0820152826102008201528261022082015201528160405193828580945193849201611d06565b8101600181520301902060ff600f604051926116bf84611c65565b6116c881611e79565b84526116d660018201611e79565b60208501526116e760028201611e79565b60408501526116f860038201611e79565b606085015261170960048201611e79565b608085015261171a60058201611e79565b60a085015261172b60068201611e79565b60c085015261173c60078201611e79565b60e085015261174d60088201611e79565b61010085015261175f60098201611e79565b610120850152611771600a8201611e79565b610140850152611783600b8201611e79565b610160850152611795600c8201611e79565b610180850152600d8101546101a08501526117b2600e8201611e79565b6101c0850152015481811615156101e0840152818160081c161515610200840152818160101c16151561022084015260181c16151561024082015260405180916020825261024061197161194d61193561191d6119056118ed6118d56118be6118a86118928b8d608061187d61186861185261183c86516102606020880152610280870190611d29565b6020870151868203601f19016040880152611d29565b6040860151858203601f19016060870152611d29565b6060850151848203601f190184860152611d29565b9201519060a0601f1982850301910152611d29565b60a08c01518d8203601f190160c08f0152611d29565b60c08b01518c8203601f190160e08e0152611d29565b60e08a01518b8203601f19016101008d0152611d29565b6101008901518a8203601f19016101208c0152611d29565b610120880151898203601f19016101408b0152611d29565b610140870151888203601f19016101608a0152611d29565b610160860151878203601f1901610180890152611d29565b610180850151868203601f19016101a0880152611d29565b6101a08401516101c08601526101c0840151601f19868303016101e0870152611d29565b916101e081015115156102008501526102008101511515610220850152610220810151151582850152015115156102608301520390f35b3461018157602080600319360112610181576001600160401b0360043581811161018157826101bc6119de923690600401611ce8565b8101600281520301902080549182116102c95760405192611a04818460051b0185611c81565b82845260009182528082208185015b848410611ab25785611a2781511515611f1f565b60005b81518110156102ab57611a5a90600f60ff81611a4961023a8588611f5b565b015460081c1615611a5f5750611d4e565b611a2a565b611a6c61023a8386611f5b565b01805461ff001916610100179055611a8761027a8285611f5b565b7f9bb3d92ff53ce504ee358d5ff79f13221b4836773184e8ec3e9e299f7d032aee600080a283610249565b6001838192611ac085611e79565b815201920193019290611a13565b3461018157602080600319360112610181576001600160401b0360043581811161018157826101bc611b04923690600401611ce8565b8101600281520301902080549182116102c957829060405192611b2c838260051b0185611c81565b8084528284018092600052836000206000915b838310611ba65750505050604051918083019381845251809452604083019360408160051b85010192916000955b828710611b7a5785850386f35b909192938280611b96600193603f198a82030186528851611d29565b9601920196019592919092611b6d565b6001868192611bb7859a999a611e79565b815201920192019190959495611b3f565b34610181576020366003190112610181576004356001600160401b03811161018157611bfb611c3e913690600401611ce8565b600f611c1f60206040516100f66100ef8651928481818a01956100df818389611d06565b81016001815203019020016201000062ff000019825416179055611e59565b7f4e4003378fe790a19a351b9848e06179b5d6e7a3262a28cfc05f8bacba35857a600080a2005b61026081019081106001600160401b038211176102c957604052565b90601f801991011681019081106001600160401b038211176102c957604052565b9291926001600160401b0382116102c95760405191611ccb601f8201601f191660200184611c81565b829481845281830111610181578281602093846000960137010152565b9080601f8301121561018157816020611d0393359101611ca2565b90565b60005b838110611d195750506000910152565b8181015183820152602001611d09565b90602091611d4281518092818552858086019101611d06565b601f01601f1916010190565b6000198114611d5d5760010190565b634e487b7160e01b600052601160045260246000fd5b903590601e198136030182121561018157018035906001600160401b0382116101815760200191813603831361018157565b90600182811c92168015611dd5575b6020831014611dbf57565b634e487b7160e01b600052602260045260246000fd5b91607f1691611db4565b90601f8111611ded57505050565b600091825260208220906020601f850160051c83019410611e29575b601f0160051c01915b828110611e1e57505050565b818155600101611e12565b9092508290611e09565b6020611e4c918160405193828580945193849201611d06565b8101600181520301902090565b611e7190602060405192828480945193849201611d06565b810103902090565b9060405191826000825492611e8d84611da5565b908184526001948581169081600014611efc5750600114611eb9575b5050611eb792500383611c81565b565b9093915060005260209081600020936000915b818310611ee4575050611eb793508201013880611ea9565b85548884018501529485019487945091830191611ecc565b915050611eb794506020925060ff191682840152151560051b8201013880611ea9565b15611f2657565b60405162461bcd60e51b815260206004820152600d60248201526c109bde081b9bdd08199bdd5b99609a1b6044820152606490fd5b8051821015610e755760209160051b010190565b15611f7657565b60405162461bcd60e51b815260206004820152600e60248201526d139bdd081c9959da5cdd195c995960921b6044820152606490fdfea2646970667358221220b7fb2a658162e869ab8e21ea58376d563309c4cca4760d885bc64eee5c94e68764736f6c63430008140033",
  "linkReferences": {},
  "deployedLinkReferences": {}
}