{
  "_format": "hh-sol-artifact-1",
  "contractName": "TrustChain",
  "sourceName": "contracts/TrustChain.sol",
  "abi": [
    {
      "inputs": [],
      "stateMutability": "nonpayable",
      "type": "constructor"
    },
    {
      "anonymous": false,
      "inputs": [
        {
          "indexed": true,
          "internalType": "string",
          "name": "batchNumber",
          "type": "string"
        },
        {
          "indexed": true,
          "internalType": "string",
          "name": "boxId",
          "type": "string"
        },
        {
          "indexed": false,
          "internalType": "uint256",
          "name": "productCount",
          "type": "uint256"
        }
      ],
      "name": "BatchRegistered",
      "type": "event"
    },
    {
      "anonymous": false,
      "inputs": [
        {
          "indexed": true,
          "internalType": "string",
          "name": "productId",
          "type": "string"
        },
        {
          "indexed": true,
          "internalType": "string",
          "name": "boxId",
          "type": "string"
        }
      ],
      "name": "ProductRegistered",
      "type": "event"
    },
    {
      "anonymous": false,
      "inputs": [
        {
          "indexed": true,
          "internalType": "string",
          "name": "productId",
          "type": "string"
        }
      ],
      "name": "ProductShipped",
      "type": "event"
    },
    {
      "anonymous": false,
      "inputs": [
        {
          "indexed": true,
          "internalType": "string",
          "name": "productId",
          "type": "string"
        }
      ],
      "name": "ProductSold",
      "type": "event"
    },
    {
      "anonymous": false,
      "inputs": [
        {
          "indexed": true,
          "internalType": "string",
          "name": "productId",
          "type": "string"
        }
      ],
      "name": "ProductSystemVerified",
      "type": "event"
    },
    {
      "anonymous": false,
      "inputs": [
        {
          "indexed": true,
          "internalType": "string",
          "name": "productId",
          "type": "string"
        }
      ],
      "name": "ProductVerified",
      "type": "event"
    },
    {
      "inputs": [
        {
          "internalType": "string",
          "name": "productId",
          "type": "string"
        }
      ],
      "name": "getProduct",
      "outputs": [
        {
          "components": [
            {
              "internalType": "string",
              "name": "productId",
              "type": "string"
            },
            {
              "internalType": "string",
              "name": "boxId",
              "type": "string"
            },
            {
              "internalType": "string",
              "name": "name",
              "type": "string"
            },
            {
              "internalType": "string",
              "name": "category",
              "type": "string"
            },
            {
              "internalType": "string",
              "name": "manufacturer",
              "type": "string"
            },
            {
              "internalType": "string",
              "name": "manufacturerDate",
              "type": "string"
            },
            {
              "internalType": "string",
              "name": "manufacturePlace",
              "type": "string"
            },
            {
              "internalType": "string",
              "name": "modelNumber",
              "type": "string"
            },
            {
              "internalType": "string",
              "name": "serialNumber",
              "type": "string"
            },
            {
              "internalType": "string",
              "name": "warrantyPeriod",
              "type": "string"
            },
            {
              "internalType": "string",
              "name": "batchNumber",
              "type": "string"
            },
            {
              "internalType": "string",
              "name": "color",
              "type": "string"
            },
            {
              "internalType": "string",
              "name": "specs",
              "type": "string"
            },
            {
              "internalType": "uint256",
              "name": "price",
              "type": "uint256"
            },
            {
              "internalType": "string",
              "name": "image",
              "type": "string"
            },
            {
              "internalType": "bool",
              "name": "shipped",
              "type": "bool"
            },
            {
              "internalType": "bool",
              "name": "verifiedByRetailer",
              "type": "bool"
            },
            {
              "internalType": "bool",
              "name": "sold",
              "type": "bool"
            },
            {
              "internalType": "bool",
              "name": "verifiedBySystem",
              "type": "bool"
            }
          ],
          "internalType": "struct TrustChain.Product",
          "name": "",
          "type": "tuple"
        }
      ],
      "stateMutability": "view",
      "type": "function"
    },
    {
      "inputs": [
        {
          "internalType": "string",
          "name": "boxId",
          "type": "string"
        }
      ],
      "name": "getProductsByBox",
      "outputs": [
        {
          "internalType": "string[]",
          "name": "",
          "type": "string[]"
        }
      ],
      "stateMutability": "view",
      "type": "function"
    },
    {
      "inputs": [],
      "name": "owner",
      "outputs": [
        {
          "internalType": "address",
          "name": "",
          "type": "address"
        }
      ],
      "stateMutability": "view",
      "type": "function"
    },
    {
      "inputs": [
        {
          "internalType": "string",
          "name": "batchNumber",
          "type": "string"
        },
        {
          "internalType": "string",
          "name": "boxId",
          "type": "string"
        },
        {
          "components": [
            {
              "internalType": "string",
              "name": "productId",
              "type": "string"
            },
            {
              "internalType": "string",
              "name": "boxId",
              "type": "string"
            },
            {
              "internalType": "string",
              "name": "name",
              "type": "string"
            },
            {
              "internalType": "string",
              "name": "category",
              "type": "string"
            },
            {
              "internalType": "string",
              "name": "manufacturer",
              "type": "string"
            },
            {
              "internalType": "string",
              "name": "manufacturerDate",
              "type": "string"
            },
            {
              "internalType": "string",
              "name": "manufacturePlace",
              "type": "string"
            },
            {
              "internalType": "string",
              "name": "modelNumber",
              "type": "string"
            },
            {
              "internalType": "string",
              "name": "serialNumber",
              "type": "string"
            },
            {
              "internalType": "string",
              "name": "warrantyPeriod",
              "type": "string"
            },
            {
              "internalType": "string",
              "name": "batchNumber",
              "type": "string"
            },
            {
              "internalType": "string",
              "name": "color",
              "type": "string"
            },
            {
              "internalType": "string",
              "name": "specs",
              "type": "string"
            },
            {
              "internalType": "uint256",
              "name": "price",
              "type": "uint256"
            },
            {
              "internalType": "string",
              "name": "image",
              "type": "string"
            }
          ],
          "internalType": "struct TrustChain.ProductInput[]",
          "name": "items",
          "type": "tuple[]"
        }
      ],
      "name": "registerBatchProducts",
      "outputs": [],
      "stateMutability": "nonpayable",
      "type": "function"
    },
    {
      "inputs": [
        {
          "internalType": "string",
          "name": "productId",
          "type": "string"
        }
      ],
      "name": "saleComplete",
      "outputs": [],
      "stateMutability": "nonpayable",
      "type": "function"
    },
    {
      "inputs": [
        {
          "internalType": "string",
          "name": "_boxId",
          "type": "string"
        }
      ],
      "name": "shipBox",
      "outputs": [],
      "stateMutability": "nonpayable",
      "type": "function"
    },
    {
      "inputs": [
        {
          "internalType": "string",
          "name": "_boxId",
          "type": "string"
        }
      ],
      "name": "verifyBox",
      "outputs": [],
      "stateMutability": "nonpayable",
      "type": "function"
    },
    {
      "inputs": [
        {
          "internalType": "string",
          "name": "productId",
          "type": "string"
        }
      ],
      "name": "verifyBySystem",
      "outputs": [],
      "stateMutability": "nonpayable",
      "type": "function"
    },
    {
      "inputs": [
        {
          "internalType": "string",
          "name": "productId",
          "type": "string"
        }
      ],
      "name": "verifyProduct",
      "outputs": [],
      "stateMutability": "nonpayable",
      "type": "function"
    }
  ],
  "bytecode": "0x6080806040523461002857600080546001600160a01b0319163317905561208e908161002e8239f35b600080fdfe610260604052600436101561001357600080fd5b60003560e01c80631768850f14611c74578063289496bb14611b7a57806352671aef14611a5457806368111cce1461167657806385abadc2146103ae5780638da5cb5b1461038557806392efc453146102ea578063cfc9a8c9146101915763d15bd3cb1461008057600080fd5b3461018c57602036600319011261018c576004356001600160401b03811161018c576100b0903690600401611d94565b6000546001600160a01b0316330361015a5761013390600f61011260206040516101016100fa8651928481818a01956100ea818389611db2565b8101600181520301902054611e51565b151561201b565b604051809381928751928391611db2565b8101600181520301902001630100000063ff00000019825416179055611f05565b7f7d8a41247edd77a402ab86adc7161f72221dda94f4f8e55c05267db2f3723932600080a2005b60405162461bcd60e51b815260206004820152600a60248201526927b7363c9037bbb732b960b11b6044820152606490fd5b600080fd5b3461018c5760208060031936011261018c576001600160401b0360043581811161018c57826101c76101da923690600401611d94565b8160405193828580945193849201611db2565b8101600281520301902080549182116102d45760405192610200818460051b0185611d2d565b82845260009182528082208185015b8484106102b8578561022381511515611fcb565b60005b81518110156102b65761025a90600f60ff8161024b6102458588612007565b51611edf565b0154161561025f575b50611dfa565b610226565b61026c6102458386612007565b01805460ff1916600117905561028b6102858285612007565b51611f05565b7f9dbe2d347001eec4f99473edc6161746246c3bd920ebc7aec9ea509774a6a87c600080a283610254565b005b60018381926102c685611f25565b81520192019301929061020f565b634e487b7160e01b600052604160045260246000fd5b3461018c57602036600319011261018c576004356001600160401b03811161018c5761031d61035e913690600401611d94565b600f61034160206040516101016100fa8651928481818a01956100ea818389611db2565b810160018152030190200161010061ff0019825416179055611f05565b7f9bb3d92ff53ce504ee358d5ff79f13221b4836773184e8ec3e9e299f7d032aee600080a2005b3461018c57600036600319011261018c576000546040516001600160a01b039091168152602090f35b3461018c57606036600319011261018c576004356001600160401b03811161018c576103de903690600401611d94565b6024356001600160401b03811161018c576103fd903690600401611d94565b6101a0526001600160401b036044351161018c5736602360443501121561018c576001600160401b03604435600401351161018c573660246044356004013560051b60443501011161018c576044356004013515611643576000905b6044356004013582106104ae5761046f90611f05565b61047b6101a051611f05565b907f18db121024f7d458bf791e0bd10ef3c4172203c9f0a9179a3700330d364cb62c6020604051604435600401358152a3005b60248260051b60443501013580610200526102021960443536030181121561018c5760206104e6602461050193604435010180611e1f565b91908260405193849283378101600181520301902054611e51565b61160557610200516044350161051a6024820180611e1f565b906101c05260648201602483019061053191611e1f565b610160526080526105486084830160248401611e1f565b9061055960a4850160248601611e1f565b9061056a60c4870160248801611e1f565b909161057c60e4890160248a01611e1f565b9490956101048a0160248b019061059291611e1f565b9890996101248c0160248d01906105a891611e1f565b9c9061018052610144810160248201906105c191611e1f565b60c052610240526105d9610184820160248301611e1f565b60e052610120526105f16101a4820160248301611e1f565b6101e0526101405261060b906101e4810190602401611e1f565b60a05261010052604051806102205261062390611d11565b366101c0519161063292611d4e565b61022051526101a05161022051602001523661016051906080519161065692611d4e565b6102205160400152369061066992611d4e565b6102205160600152369061067c92611d4e565b6102205160800152369061068f92611d4e565b6102205160a0015236906106a292611d4e565b6102205160c0015236906106b592611d4e565b6102205160e001523661018051916106cc92611d4e565b61022051610100015260c051610240516106e7913691611d4e565b610220516101200152806102205161014001523660e05190610120519161070d92611d4e565b6102205161016001526101e05161014051610729913691611d4e565b61022051610180015261020051604435016101c40135610220516101a001523660a05190610100519161075b92611d4e565b610220516101c00152610220516101e001600090526102205161020001600090526102205161022001600090526102205161024001600090526102005160443501602401806107a991611e1f565b908160405192839283378101600181520360200190209161022051518051906001600160401b0382116102d45781906107ec826107e68854611e51565b88611e8b565b602090601f83116001146115995760009261158e575b50508160011b916000199060031b1c19161783555b60206102205101518051906001600160401b0382116102d457819061084c826108436001890154611e51565b60018901611e8b565b602090601f831160011461151c57600092611511575b50508160011b916000199060031b1c19161760018401555b60406102205101518051906001600160401b0382116102d45781906108af826108a66002890154611e51565b60028901611e8b565b602090601f831160011461149f57600092611494575b50508160011b916000199060031b1c19161760028401555b60606102205101518051906001600160401b0382116102d4578190610912826109096003890154611e51565b60038901611e8b565b602090601f831160011461142257600092611417575b50508160011b916000199060031b1c19161760038401555b60806102205101518051906001600160401b0382116102d45781906109758261096c6004890154611e51565b60048901611e8b565b602090601f83116001146113a55760009261139a575b50508160011b916000199060031b1c19161760048401555b60a06102205101518051906001600160401b0382116102d45781906109d8826109cf6005890154611e51565b60058901611e8b565b602090601f83116001146113285760009261131d575b50508160011b916000199060031b1c19161760058401555b60c06102205101518051906001600160401b0382116102d4578190610a3b82610a326006890154611e51565b60068901611e8b565b602090601f83116001146112ab576000926112a0575b50508160011b916000199060031b1c19161760068401555b60e06102205101518051906001600160401b0382116102d4578190610a9e82610a956007890154611e51565b60078901611e8b565b602090601f831160011461122e57600092611223575b50508160011b916000199060031b1c19161760078401555b6101006102205101518051906001600160401b0382116102d4578190610b0282610af96008890154611e51565b60088901611e8b565b602090601f83116001146111b1576000926111a6575b50508160011b916000199060031b1c19161760088401555b6101206102205101518051906001600160401b0382116102d4578190610b6682610b5d6009890154611e51565b60098901611e8b565b602090601f831160011461113457600092611129575b50508160011b916000199060031b1c19161760098401555b6101406102205101518051906001600160401b0382116102d4578190610bca82610bc1600a890154611e51565b600a8901611e8b565b602090601f83116001146110b7576000926110ac575b50508160011b916000199060031b1c191617600a8401555b6101606102205101519283516001600160401b0381116102d457610c2c81610c23600b850154611e51565b600b8501611e8b565b6020601f821160011461103d578192939495600092611032575b50508160011b916000199060031b1c191617600b8201555b6101806102205101518051906001600160401b0382116102d4578190610c9482610c8b600c870154611e51565b600c8701611e8b565b602090601f8311600114610fc057600092610fb5575b50508160011b916000199060031b1c191617600c8201555b6101c0610220516101a0810151600d84015501518051906001600160401b0382116102d457610d0182610cf8600e860154611e51565b600e8601611e8b565b602090601f8311600114610f4257600f93929160009183610f37575b50508160011b916000199060031b1c191617600e8201555b01610220516101e0810151151590825461ff00610200830151151560081b169060ff63ff00000061024062ff0000610220870151151560101b16950151151560181b1694169063ffffffff191617171717905560405160208181610da26101a05183815193849201611db2565b81016002815203019020610dc0602461020051604435010180611e1f565b9091805490680100000000000000008210156102d45760018201808255821015610f2157600052602060002001916001600160401b0382116102d457610e1082610e0a8554611e51565b85611e8b565b600090601f8311600114610eb257610ea19493929160009183610ea7575b50508160011b916000199060031b1c19161790555b610e57602461020051604435010180611e1f565b90816040519283928337810160008152039020610e766101a051611f05565b907f05c683c8ef124ed98b107dcf80c644abc011626816b5b3a73e3f6d518c0cd778600080a3611dfa565b90610459565b013590508680610e2e565b8360005260206000209160005b601f1985168110610f095750918391600193610ea1979695601f19811610610eef575b505050811b019055610e43565b0135600019600384901b60f8161c19169055868080610ee2565b90926020600181928686013581550194019101610ebf565b634e487b7160e01b600052603260045260246000fd5b015190508680610d1d565b90600e840160005260206000209160005b601f1985168110610f9d5750918391600193600f9695601f19811610610f84575b505050811b01600e820155610d35565b015160001960f88460031b161c19169055868080610f74565b91926020600181928685015181550194019201610f53565b015190508580610caa565b9250600c84016000526020600020906000935b601f1984168510611017576001945083601f19811610610ffe575b505050811b01600c820155610cc2565b015160001960f88460031b161c19169055858080610fee565b81810151835560209485019460019093019290910190610fd3565b015190508580610c46565b600b830160005260206000209060005b601f1984168110611094575060019394959683601f1981161061107b575b505050811b01600b820155610c5e565b015160001960f88460031b161c1916905585808061106b565b9091602060018192858b01518155019301910161104d565b015190508580610be0565b9250600a86016000526020600020906000935b601f198416851061110e576001945083601f198116106110f5575b505050811b01600a840155610bf8565b015160001960f88460031b161c191690558580806110e5565b818101518355602094850194600190930192909101906110ca565b015190508580610b7c565b9250600986016000526020600020906000935b601f198416851061118b576001945083601f19811610611172575b505050811b016009840155610b94565b015160001960f88460031b161c19169055858080611162565b81810151835560209485019460019093019290910190611147565b015190508580610b18565b9250600886016000526020600020906000935b601f1984168510611208576001945083601f198116106111ef575b505050811b016008840155610b30565b015160001960f88460031b161c191690558580806111df565b818101518355602094850194600190930192909101906111c4565b015190508580610ab4565b9250600786016000526020600020906000935b601f1984168510611285576001945083601f1981161061126c575b505050811b016007840155610acc565b015160001960f88460031b161c1916905585808061125c565b81810151835560209485019460019093019290910190611241565b015190508580610a51565b9250600686016000526020600020906000935b601f1984168510611302576001945083601f198116106112e9575b505050811b016006840155610a69565b015160001960f88460031b161c191690558580806112d9565b818101518355602094850194600190930192909101906112be565b0151905085806109ee565b9250600586016000526020600020906000935b601f198416851061137f576001945083601f19811610611366575b505050811b016005840155610a06565b015160001960f88460031b161c19169055858080611356565b8181015183556020948501946001909301929091019061133b565b01519050858061098b565b9250600486016000526020600020906000935b601f19841685106113fc576001945083601f198116106113e3575b505050811b0160048401556109a3565b015160001960f88460031b161c191690558580806113d3565b818101518355602094850194600190930192909101906113b8565b015190508580610928565b9250600386016000526020600020906000935b601f1984168510611479576001945083601f19811610611460575b505050811b016003840155610940565b015160001960f88460031b161c19169055858080611450565b81810151835560209485019460019093019290910190611435565b0151905085806108c5565b9250600286016000526020600020906000935b601f19841685106114f6576001945083601f198116106114dd575b505050811b0160028401556108dd565b015160001960f88460031b161c191690558580806114cd565b818101518355602094850194600190930192909101906114b2565b015190508580610862565b9250600186016000526020600020906000935b601f1984168510611573576001945083601f1981161061155a575b505050811b01600184015561087a565b015160001960f88460031b161c1916905585808061154a565b8181015183556020948501946001909301929091019061152f565b015190508580610802565b9250856000526020600020906000935b601f19841685106115ea576001945083601f198116106115d1575b505050811b018355610817565b015160001960f88460031b161c191690558580806115c4565b818101518355602094850194600190930192909101906115a9565b60405162461bcd60e51b815260206004820152601660248201527550726f6475637420616c72656164792065786973747360501b6044820152606490fd5b60405162461bcd60e51b815260206004820152600b60248201526a08adae0e8f240c4c2e8c6d60ab1b6044820152606490fd5b3461018c57602036600319011261018c576004356001600160401b03811161018c5760206116ab611750923690600401611d94565b60006102406040516116bc81611d11565b606081526060858201526060604082015260608082015260606080820152606060a0820152606060c0820152606060e082015260606101008201526060610120820152606061014082015260606101608201526060610180820152826101a082015260606101c0820152826101e0820152826102008201528261022082015201528160405193828580945193849201611db2565b8101600181520301902060ff600f6040519261176b84611d11565b61177481611f25565b845261178260018201611f25565b602085015261179360028201611f25565b60408501526117a460038201611f25565b60608501526117b560048201611f25565b60808501526117c660058201611f25565b60a08501526117d760068201611f25565b60c08501526117e860078201611f25565b60e08501526117f960088201611f25565b61010085015261180b60098201611f25565b61012085015261181d600a8201611f25565b61014085015261182f600b8201611f25565b610160850152611841600c8201611f25565b610180850152600d8101546101a085015261185e600e8201611f25565b6101c0850152015481811615156101e0840152818160081c161515610200840152818160101c16151561022084015260181c161515610240820152604051809160208252610240611a1d6119f96119e16119c96119b161199961198161196a61195461193e8b8d60806119296119146118fe6118e886516102606020880152610280870190611dd5565b6020870151868203601f19016040880152611dd5565b6040860151858203601f19016060870152611dd5565b6060850151848203601f190184860152611dd5565b9201519060a0601f1982850301910152611dd5565b60a08c01518d8203601f190160c08f0152611dd5565b60c08b01518c8203601f190160e08e0152611dd5565b60e08a01518b8203601f19016101008d0152611dd5565b6101008901518a8203601f19016101208c0152611dd5565b610120880151898203601f19016101408b0152611dd5565b610140870151888203601f19016101608a0152611dd5565b610160860151878203601f1901610180890152611dd5565b610180850151868203601f19016101a0880152611dd5565b6101a08401516101c08601526101c0840151601f19868303016101e0870152611dd5565b916101e081015115156102008501526102008101511515610220850152610220810151151582850152015115156102608301520390f35b3461018c5760208060031936011261018c576001600160401b0360043581811161018c57826101c7611a8a923690600401611d94565b8101600281520301902080549182116102d45760405192611ab0818460051b0185611d2d565b82845260009182528082208185015b848410611b5e5785611ad381511515611fcb565b60005b81518110156102b657611b0690600f60ff81611af56102458588612007565b015460081c1615611b0b5750611dfa565b611ad6565b611b186102458386612007565b01805461ff001916610100179055611b336102858285612007565b7f9bb3d92ff53ce504ee358d5ff79f13221b4836773184e8ec3e9e299f7d032aee600080a283610254565b6001838192611b6c85611f25565b815201920193019290611abf565b3461018c5760208060031936011261018c576001600160401b0360043581811161018c57826101c7611bb0923690600401611d94565b8101600281520301902080549182116102d457829060405192611bd8838260051b0185611d2d565b8084528284018092600052836000206000915b838310611c525750505050604051918083019381845251809452604083019360408160051b85010192916000955b828710611c265785850386f35b909192938280611c42600193603f198a82030186528851611dd5565b9601920196019592919092611c19565b6001868192611c63859a999a611f25565b815201920192019190959495611beb565b3461018c57602036600319011261018c576004356001600160401b03811161018c57611ca7611cea913690600401611d94565b600f611ccb60206040516101016100fa8651928481818a01956100ea818389611db2565b81016001815203019020016201000062ff000019825416179055611f05565b7f4e4003378fe790a19a351b9848e06179b5d6e7a3262a28cfc05f8bacba35857a600080a2005b61026081019081106001600160401b038211176102d457604052565b90601f801991011681019081106001600160401b038211176102d457604052565b9291926001600160401b0382116102d45760405191611d77601f8201601f191660200184611d2d565b82948184528183011161018c578281602093846000960137010152565b9080601f8301121561018c57816020611daf93359101611d4e565b90565b60005b838110611dc55750506000910152565b8181015183820152602001611db5565b90602091611dee81518092818552858086019101611db2565b601f01601f1916010190565b6000198114611e095760010190565b634e487b7160e01b600052601160045260246000fd5b903590601e198136030182121561018c57018035906001600160401b03821161018c5760200191813603831361018c57565b90600182811c92168015611e81575b6020831014611e6b57565b634e487b7160e01b600052602260045260246000fd5b91607f1691611e60565b90601f8111611e9957505050565b600091825260208220906020601f850160051c83019410611ed5575b601f0160051c01915b828110611eca57505050565b818155600101611ebe565b9092508290611eb5565b6020611ef8918160405193828580945193849201611db2565b8101600181520301902090565b611f1d90602060405192828480945193849201611db2565b810103902090565b9060405191826000825492611f3984611e51565b908184526001948581169081600014611fa85750600114611f65575b5050611f6392500383611d2d565b565b9093915060005260209081600020936000915b818310611f90575050611f6393508201013880611f55565b85548884018501529485019487945091830191611f78565b915050611f6394506020925060ff191682840152151560051b8201013880611f55565b15611fd257565b60405162461bcd60e51b815260206004820152600d60248201526c109bde081b9bdd08199bdd5b99609a1b6044820152606490fd5b8051821015610f215760209160051b010190565b1561202257565b60405162461bcd60e51b815260206004820152600e60248201526d139bdd081c9959da5cdd195c995960921b6044820152606490fdfea264697066735822122045dd98c93fa4b5a52729899b4c52fa83f3ef8aab6861700af74b307619376f2b64736f6c63430008140033",
  "linkReferences": {},
  "deployedLinkReferences": {}
}